:020000040000FA
:1000000028AFFF1F95020000CD020000CF020000C4
:10001000D1020000D3020000D50200000000000061
:10002000000000000000000000000000D7020000F7
:10003000D902000000000000DB0200001D470000A4
:10004000713200008532000099320000AD320000AC
:10005000C1320000D5320000E9320000FD3200005C
:100060001133000025330000393300004D33000008
:100070006133000075330000893300009D330000B8
:10008000B1330000C5330000D9330000ED33000068
:100090000134000015340000293400003D34000014
:1000A0005134000065340000793400008D340000C4
:1000B000A1340000B5340000C9340000DD34000074
:1000C000F134000005350000193500002D35000021
:1000D0004135000055350000693500007D350000D0
:1000E00091350000A5350000B9350000CD35000080
:1000F000E1350000F5350000093600001D3600002E
:100100003136000045360000593600006D360000DB
:100110008136000095360000A9360000BD3600008B
:10012000D1360000E5360000F93600000D3700003A
:100130002137000035370000493700005D370000E7
:10014000713700008537000099370000AD37000097
:10015000C1370000D5370000E9370000FD37000047
:100160001138000025380000393800004D380000F3
:100170006138000075380000893800009D380000A3
:10018000B1380000C5380000D9380000ED38000053
:100190000139000015390000293900003D390000FF
:1001A0005139000065390000793900008D390000AF
:1001B000A1390000B5390000C9390000DD3900005F
:1001C000F1390000053A0000193A00002D3A00000C
:1001D000413A0000553A0000693A00007D3A0000BB
:1001E000913A0000A53A0000B93A0000CD3A00006B
:1001F000E13A0000F53A0000093B00001D3B000019
:10020000313B0000453B0000593B00006D3B0000C6
:10021000813B0000953B0000A93B0000BD3B000076
:10022000D13B0000E53B0000F93B00000D3C000025
:10023000213C0000353C0000493C00005D3C0000D2
:10024000DF020000DF020000DF020000DF0200002A
:10025000DF020000DF020000DF020000DF0200001A
:10026000DF020000DF020000DF020000DF0200000A
:10027000DF020000DF020000DF020000DF020000FA
:10028000DFF80CD000F012FA00480047A564000027
:1002900028AFFF1F12484FF01F01016011484FF0B7
:1002A0007701016010484FF0770101600F484FF46B
:1002B000885101600B484FF0760101600A484FF009
:1002C000760101600A4880470A480047FEE7FEE7DA
:1002D000FEE7FEE7FEE7FEE7FEE7FEE7FEE7FEE7F6
:1002E00010080540040805400C08054000080540BA
:1002F0009D480000810200002DE9F05F05460020C6
:1003000092469B4688460646814640241BE0284686
:1003100041464746224600F024F953465A46C01A41
:10032000914110D311461846224600F055F82D1A77
:1003300067EB01084F4622460120002100F04CF8EF
:1003400017EB00094E41201EA4F10104DFDC4846F2
:1003500031462A464346BDE8F09F40EA01039B0729
:1003600003D009E008C9121F08C0042AFAD203E02A
:1003700011F8013B00F8013B521EF9D27047421CB4
:1003800010F8011B0029FBD1801A704730B50446D4
:100390000020034600E05B1C934203D2E05CCD5C8E
:1003A000401BF8D030BD0EB540F233410291002120
:1003B000CDE900110A460B4600F029F903B000BD53
:1003C0000EB540F2334202920022CDE900221346DC
:1003D00000F01DF903B000BD202A04DB203A00FA2A
:1003E00002F1002070479140C2F1200320FA03F38C
:1003F000194390407047704710B506F02DF810BDB6
:10040000BFFFDFFFFFFEFFFFFFFFFFFFFFFFFFFF5D
:10041000FFFFFFFFFFFFFFFFFFFFFFFFFFFFFFFFEC
:100420002DE9F04D81EA030404F0004B21F0004572
:1004300014464FF0000A23F0004150EA050220D094
:1004400054EA01021DD0C5F30A570246C5F313034F
:10045000C1F31300C1F30A5640F4801543F480132E
:10046000A7EB0608101BD64608F2FD3873EB050013
:1004700002D308F1010801E092185B41B8F1000FC6
:1004800003DA00200146BDE8F08D00204FF4801112
:10049000064684460EE0171B73EB050705D3121BB7
:1004A00063EB050306434CEA010C49084FEA3000B0
:1004B00092185B4150EA0107EDD152EA030012D0D5
:1004C00082EA040083EA0501084305D0101BAB4112
:1004D00006D20122002306E000224FF0004302E092
:1004E0006FF0010253101AEB06004CEB085110EBB1
:1004F0000A0041EB0B01BDE8F04D00F079B801F0C6
:10050000004330B421F0004150EA010206D00A0D48
:10051000A2F56072C1F31301002A02DC30BC002096
:100520007047440F44EAC104C100E01830BC00EB3E
:10053000C25000F026B830B50B46014600202022FC
:10054000012409E021FA02F59D4205D303FA02F5E0
:10055000491B04FA02F52844151EA2F10102F1DC40
:1005600030BD202A04DB203A21FA02F00021704736
:1005700021FA02F3D040C2F120029140084319460B
:1005800070470029A8BF7047401C490008BF20F0F1
:100590000100704710B4B0FA80FC00FA0CF050EA89
:1005A000010404BF10BC704749B1CCF1200421FA0A
:1005B00004F411FA0CF118BF012121430843A3EB05
:1005C0000C01CB1D4FEA00614FEA102042BF002012
:1005D00010BC704700EBC35010440029A4BF10BCEE
:1005E0007047401C490008BF20F0010010BC704754
:1005F00010B5141E73F1000408DA401C41F100012B
:1006000092185B411A4301D120F0010010BD2DE981
:10061000F04D92469B4611B1B1FA81F202E0B0FA78
:1006200080F220329046FFF7D7FE04460F4640EA9C
:100630000A0041EA0B0153465A46084313D01146BB
:1006400053EA010019D0C8F140025046FFF789FF74
:1006500005460E46504659464246FFF7BDFE084342
:1006600005D0012004E020463946BDE8F08D002089
:10067000054346EAE0762C4337430A986305E40ACB
:10068000A0EB08000022FD0A44EA47540A3002D5D4
:1006900000200146E9E7010510196941DDE9084537
:1006A00000196941BDE8F04DA2E70000064C074D76
:1006B00006E0E06840F0010394E807009847103432
:1006C000AC42F6D3FFF7E0FD286F0000486F000052
:1006D0002DE9F04107460C461546984600BF1F48D5
:1006E000874201D1102D04D91D48874202D1082D1F
:1006F00000D804E040F265111AA000F0DDFF00BF51
:1007000000BF0CB1012C00D104E04FF4B37115A06F
:1007100000F0D2FF00BF00BFB8F1000F02D0B8F167
:10072000010F00D104E040F267110EA000F0C4FFF9
:1007300000BF07F10C0000EB8406B8F1010F05D1F2
:1007400030680121A9400843306004E0306801218D
:10075000A94088433060BDE8F081000000000440FB
:10076000000404402E2E2F2E2E2F2E2E2F2E2E2F15
:100770002E2E2F2E2E2F647269766572732F68636A
:1007800033325F6C6C5F6472697665722F7372636B
:100790002F686333325F6C6C5F6164632E630000AB
:1007A00070B505460C4600BF0F48854202D00F4881
:1007B000854200D104E040F2AB210DA000F07CFFA7
:1007C00000BF00BF24B144F00300032800D104E0BF
:1007D0004FF42B7106A000F06FFF00BF84F0030000
:1007E00085F8460070BD000000000440000404408D
:1007F0002E2E2F2E2E2F2E2E2F2E2E2F2E2E2F2E14
:100800002E2F647269766572732F686333325F6C62
:100810006C5F6472697665722F7372632F686333DD
:10082000325F6C6C5F6164632E63000070B50546D7
:100830000C466FF0020600BF2148854202D02148D5
:10084000854200D103E0E5211FA000F035FF00BF85
:10085000002C33D000BF208840B12088012805D06B
:100860002088022802D02088032800D103E0E82154
:1008700015A000F021FF00BF00BF6088202804D031
:100880006088102801D0608800B903E0E9210EA03B
:1008900000F012FF00BF00BFA08810B1A088802820
:1008A00000D103E0EA2108A000F006FF00BF208885
:1008B00061880843A188084368800026304670BDDF
:1008C00000000440000404402E2E2F2E2E2F2E2E2A
:1008D0002F2E2E2F2E2E2F2E2E2F647269766572BC
:1008E000732F686333325F6C6C5F64726976657214
:1008F0002F7372632F686333325F6C6C5F61646364
:100900002E63000070B504460D46164600BF194818
:10091000844202D01848844200D104E040F23B21D6
:1009200016A000F0C9FE00BF00BF25B145F00300CE
:10093000032800D104E04FF40F7110A000F0BCFEBA
:1009400000BF00BF0EB1012E00D104E040F23D21F6
:100950000AA000F0B1FE00BF012E05D194F84700B7
:10096000284384F8470004E094F84700A84384F83B
:10097000470070BD00000440000404402E2E2F2EBE
:100980002E2F2E2E2F2E2E2F2E2E2F2E2E2F647208
:1009900069766572732F686333325F6C6C5F647263
:1009A000697665722F7372632F686333325F6C6C84
:1009B0005F6164632E6300002DE9F04104460D463B
:1009C000164600BF052E00D304E040F2A51110A08A
:1009D00000F072FE00BF00BF1C48844201D1102D00
:1009E00004D91B48844202D1082D00D804E040F20B
:1009F000A71107A000F060FE00BF04F12000471916
:100A0000102D01D23E7001E084F83060BDE8F08125
:100A10002E2E2F2E2E2F2E2E2F2E2E2F2E2E2F2EF1
:100A20002E2F647269766572732F686333325F6C40
:100A30006C5F6472697665722F7372632F686333BB
:100A4000325F6C6C5F6164632E63000000000440E1
:100A50000004044070B50446002500BF0A488442E3
:100A600002D00A48844200D104E040F2532108A099
:100A700000F022FE00BF2078012801D1C51F01E04F
:100A800001202070284670BD00000440000404408E
:100A90002E2E2F2E2E2F2E2E2F2E2E2F2E2E2F2E71
:100AA0002E2F647269766572732F686333325F6CC0
:100AB0006C5F6472697665722F7372632F6863333B
:100AC000325F6C6C5F6164632E63000001466FF0FF
:100AD000020021B100220A804A808A8000207047EB
:100AE00070B504460D4600BF0A48844207D3094842
:100AF0006830844203D804F0030000B903E08F217A
:100B000005A000F0D9FD00BF206865F30800206053
:100B100070BD0000040801402E2E2F2E2E2F2E2EE9
:100B20002F2E2E2F2E2E2F2E2E2F64726976657269
:100B3000732F686333325F6C6C5F647269766572C1
:100B40002F7372632F686333325F6C6C5F616F73F6
:100B50002E63000010B500F009F805F07FFA024896
:100B6000FFF778FF10BD0000000004401CB5012114
:100B7000084601F0C5FE6846FFF7A8FF0120ADF862
:100B800000002020ADF802000020ADF80400694606
:100B90000C48FFF74BFE302209210A48FFF70CFFF3
:100BA00000F012F80123092200210648FFF790FD0A
:100BB00001210448FFF7F4FD012211460148FFF727
:100BC000A1FE1CBD0000044000B585B0684602F0DF
:100BD00017FA4FF40040ADF810006A4602210120D8
:100BE00001F04AFF05B000BD10B50848006840F4A8
:100BF00000600649086000BF0221012002F044F8AD
:100C00000028F9D0022001F077FD10BD7080FF1F91
:100C100070B5044600250CB9ED1E02E0204602F036
:100C200049FA284670BD000010B5044600BF24B143
:100C300044F06900692800D104E040F28B5106A01D
:100C400000F03AFD00BF13480078204008B10120B1
:100C500010BD0020FCE700002E2E2F2E2E2F2E2E52
:100C60002F2E2E2F2E2E2F2E2E2F64726976657228
:100C7000732F686333325F6C6C5F64726976657280
:100C80002F7372632F686333325F6C6C5F636C6BBE
:100C90002E6300003C40054070B50446002500BFAF
:100CA0000CB1012C00D104E040F216311EA000F07E
:100CB00003FD00BF00BF2B48008800F0010000B119
:100CC00004E040F2173118A000F0F6FC00BFF4B9C0
:100CD0002548007800F0070010B96FF0050520E006
:100CE0002148DA300068C0F3C01058B11E48001D1A
:100CF000007810B96FF0050513E001201A49103192
:100D000008700EE0012018491031087009E0002039
:100D10001549103108704FF48051012000F07DFA20
:100D20000546284670BD00002E2E2F2E2E2F2E2E6B
:100D30002F2E2E2F2E2E2F2E2E2F64726976657257
:100D4000732F686333325F6C6C5F647269766572AF
:100D50002F7372632F686333325F6C6C5F636C6BED
:100D60002E630000FE4305402640054070B5044652
:100D7000002500BF0CB1012C00D104E040F2D921C4
:100D800014A000F099FC00BF00BF2148008800F0CB
:100D9000010000B104E040F2DA210EA000F08CFC6A
:100DA00000BF6CB91B48007800F00700022802D190
:100DB0006FF0050508E0012015492931087003E0AE
:100DC0000020134929310870A02000F0BDFC2846FE
:100DD00070BD00002E2E2F2E2E2F2E2E2F2E2E2FBA
:100DE0002E2E2F2E2E2F647269766572732F6863F4
:100DF00033325F6C6C5F6472697665722F737263F5
:100E00002F686333325F6C6C5F636C6B2E63000022
:100E1000FE4305402640054070B50446002500BF4E
:100E20000CB1012C00D104E040F2E5411FA000F01C
:100E300043FC00BF00BF2C48008800F0010000B157
:100E400004E040F2E64119A000F036FC00BF64B9AE
:100E50002648007800F00700052801D1C54322E0AC
:100E600001202249091D08701DE02048DA30006881
:100E7000C0F3C01030B94FF48051082000F0CDF914
:100E8000054605E04FF48051012000F0C6F9054603
:100E90004DB900201549091D08704FF480512020DC
:100EA00000F0BBF90546284670BD00002E2E2F2EFF
:100EB0002E2F2E2E2F2E2E2F2E2E2F2E2E2F6472D3
:100EC00069766572732F686333325F6C6C5F64722E
:100ED000697665722F7372632F686333325F6C6C4F
:100EE0005F636C6B2E630000FE43054026400540A7
:100EF0002DE9F041044614B96FF002061FE100BF6E
:100F00002079C0F3C01018B12079C0F3C01000B12F
:100F100004E04FF497618BA000F0CEFB00BF00BF50
:100F2000207900F01F00401C182805D8207900F017
:100F30001F00401C00B104E040F2B94181A000F064
:100F4000BBFB00BF00BF6068C0F30820401CB0F5C9
:100F5000F07F06D86068C0F30820401C142800D336
:100F600004E040F2BA4177A000F0A6FB00BF00BF4A
:100F70000121606801EB1070102805D8606801EB52
:100F80001070022800D304E040F2BB416DA000F0D5
:100F900093FB00BF2079C0F3C01008B9784901E085
:100FA00078480168207900F01F00401CB1FBF0F781
:100FB0006068C0F30820401C00FB07F500BF7248C2
:100FC000874203D87148874200D304E04FF4986108
:100FD0005CA000F071FB00BF00BF6D48854203D8E4
:100FE0004010854200D304E040F2C14155A000F01A
:100FF00063FB00BF00BF0121606801EB1070B5FB0F
:10100000F0F06449884209D80121606801EB107052
:10101000B5FBF0F06049884200D304E040F2C241E1
:1010200048A000F049FB00BF00BF6068C0F3036048
:10103000401C102806D86068C0F30360401C0228DA
:1010400000D304E040F2C3413EA000F035FB00BFF6
:1010500000BF6068C0F30350401C102806D86068C9
:10106000C0F30350401C022800D304E040F2C44106
:1010700034A000F021FB00BF00BF6068C0F3035044
:10108000401CB5FBF0F04349884209D86068C0F3C2
:101090000350401CB5FBF0F03F49884200D304E008
:1010A00040F2C54127A000F007FB00BF00BF606809
:1010B000C0F30360401CB5FBF0F03649884209D804
:1010C0006068C0F30360401CB5FBF0F03249884211
:1010D00000D304E040F2C6411AA000F0EDFA00BFD0
:1010E00000BF2078012801D0207800B904E04FF437
:1010F000996114A000F0E0FA00BF00BF2748008803
:1011000000F0010000B104E040F2C9410DA000F080
:10111000D3FA00BF2079C1092148006861F3C710E4
:101120001F49086060680860207820B90120FFF737
:1011300073FE064603E00020FFF76EFE06463046CB
:10114000BDE8F0812E2E2F2E2E2F2E2E2F2E2E2F5D
:101150002E2E2F2E2E2F647269766572732F686380
:1011600033325F6C6C5F6472697665722F73726381
:101170002F686333325F6C6C5F636C6B2E630000AF
:1011800000127A000480FF1F40787D0140420F006A
:1011900000389C1C00C2EB0BC0E1E400FE4305409C
:1011A000004105400146002009B9C01E22E000228E
:1011B0004A604A6822F080024A604A6822F01F02B0
:1011C0004A6013234A6863F310224A604A6822F097
:1011D000704202F180524A604A6822F0706202F165
:1011E00080724A604A6822F4700202F580124A60F6
:1011F00001220A70704770B504460D462946204604
:1012000002F016FF03F0E4FA70BD10B50446204664
:1012100003F0ACF803F0DCFA10BDF8B505460C4657
:10122000002000906FF0070609E02846FFF7FCFC5D
:10123000012801D1002605E00098401C009000988C
:10124000A042F2D900BF3046F8BD000070B5044698
:10125000002500BF0CB1012C00D104E04FF46771F0
:101260001EA000F029FA00BF00BF2B48008800F044
:10127000010000B104E040F29D3118A000F01CFA1A
:1012800000BFFCB92548007800F00700032802D110
:101290006FF0050520E02148DA300068C0F3C01087
:1012A00058B91E48001D007810B96FF0050513E00D
:1012B00001201A490C3108700EE0012017490C3149
:1012C000087009E0002015490C3108704FF4805176
:1012D0000820FFF7A2FF0546284670BD2E2E2F2EB0
:1012E0002E2F2E2E2F2E2E2F2E2E2F2E2E2F64729F
:1012F00069766572732F686333325F6C6C5F6472FA
:10130000697665722F7372632F686333325F6C6C1A
:101310005F636C6B2E630000FE4305402640054072
:1013200070B5044614B96FF002057FE000BF207865
:10133000012801D0207800B904E04FF45F713CA08F
:1013400000F0BAF900BF00BF607840B160781028A3
:1013500005D06078202802D06078302800D104E0E1
:1013600040F27D3132A000F0A7F900BF00BFA078A5
:1013700010B1A078402800D104E040F27E312CA0CA
:1013800000F09AF900BF00BFE078802801D0E07833
:1013900000B904E040F27F3125A000F08DF900BFD4
:1013A00000BF2079012817D02079022814D0207995
:1013B000032811D0207904280ED0207905280BD0DD
:1013C0002079062808D02079072805D02079082818
:1013D00002D02079092800D104E04FF4607114A0F4
:1013E00000F06AF900BF00BF2048008800F001004B
:1013F00000B104E040F281310DA000F05DF900BFC2
:1014000020791B490870E07861780843A178084387
:10141000164912310870207820B90120FFF716FF15
:10142000054603E00020FFF711FF0546284670BD82
:101430002E2E2F2E2E2F2E2E2F2E2E2F2E2E2F2EC7
:101440002E2F647269766572732F686333325F6C16
:101450006C5F6472697665722F7372632F68633391
:10146000325F6C6C5F636C6B2E630000FE43054063
:10147000A24005400146002009B9C01E08E0012233
:101480000A7000228A704A708022CA7005220A718E
:10149000704700002DE9F04F2DED088B89B0834691
:1014A000894601200490801E039000BF6D4883454B
:1014B00008D06D48834505D06C48834502D06C4800
:1014C000834500D104E040F2A5116AA000F0F4F8D1
:1014D00000BFD9F80040D9F80460002C7CD0002E61
:1014E000FCD0B000B4FBF0F0451EFF2D77D8C9F852
:1014F0000850B000B4FBF0F100FB114005900598D6
:1015000030B99FED6C0A89ED040A0020039066E073
:1015100000206A1C40EB000C04230021A2FB030EF8
:101520000CFB03E302FB0132A0FB067302FB063255
:1015300000FB01284FF480710022A7FB01C308FBC8
:10154000013107FB021052084FEA34031CEB030180
:10155000504122460023CDE9001008460199FEF7CC
:10156000CBFE8021B0EB010ABAF17F0F35D8C9F864
:101570000CA0490000203A46A2FB01CE08FB01E185
:1015800007FB0018674680211AEB010240EB0003BD
:101590000021A2FB040C03FB04C302FB0131CDE9D3
:1015A000060138464146FEF70BFF41EC1A0BDDE918
:1015B0000601FEF705FF53EC1A2BFEF731FFFEF78D
:1015C0009EFF00EE100AF7EE000A30EE608A89ED09
:1015D000048A0020039002E03EE00020049004987A
:1015E000D0BB04EB84004000B100B0FBF1F0401D23
:1015F0000A21B0FBF1F0451EFF2D2DD8C9F8085087
:1016000000206B1C404104214FF0000CA3FB012E75
:1016100000FB01E003FB0C016346A2FB067C01FB1F
:1016200006C102FB031838464146FEF7C9FE41ECED
:101630001A0B2046FEF7B7FE53EC1A2BFEF7F0FE0E
:10164000FEF75DFF00EE100AF7EE000A30EE608A4A
:1016500089ED048A00200390039809B0BDEC088B43
:10166000BDE8F08F00D0014000D4014000100240DE
:10167000001402402E2E2F2E2E2F2E2E2F2E2E2FE8
:101680002E2E2F2E2E2F647269766572732F68634B
:1016900033325F6C6C5F6472697665722F7372634C
:1016A0002F686333325F6C6C5F75736172742E6385
:1016B000000000000000000004460D462A462146B6
:1016C00002A004F051FB00BFFEE7000057726F6EEE
:1016D0006720706172616D65746572732076616CEC
:1016E00075653A2066696C65202573206F6E206CE5
:1016F000696E652025640D0A0000000038B50246B9
:10170000002300250095D81E00BF0D4D2D682C46E6
:1017100000BF0C4D2D68294689B105E00D6805F024
:101720008003009D6D1C0095009DA54201D8002BF3
:10173000F4D013B18A80002001E06FF0070038BDBB
:101740006C80FF1F6880FF1F08B50C49096AC1F350
:1017500002630B490968D9400A4B1944491EB1FB81
:10176000F3F206E0009200BF00994B1E009300299F
:10177000FAD1011EA0F10100F4D108BD00400540DE
:101780000080FF1F808D5B002DE9F04704460D4669
:101790009146002700BF6E48844202D06D488442C3
:1017A00000D104E040F27B116BA0FFF785FF00BF82
:1017B00000BF032D00D804E04FF4BE7166A0FFF710
:1017C0007BFF00BF00BFB9F1000F02D0B9F1010FDC
:1017D00000D104E040F27D115FA0FFF76DFF00BF74
:1017E0006C48007800287DD101206A490870E069C2
:1017F0000121A94020EA010ABAF1000F73D0E06983
:1018000000F00100D8B1D5B1A06C4FEA1048A06E2D
:10181000060C0A2E13D8464511D20BE0781C87B26D
:10182000B7F5A04F06D900205A4908706FF007009D
:10183000BDE8F087E06900F001000028EED1E06922
:1018400000F0020002281ED1012D1CD0D4F888001F
:101850004FEA1048D4F8A800060C0A2E13D84645C3
:1018600011D200270AE0781C87B2B7F5A04F05D93E
:101870000020484908706FF00700D9E7E06900F0E0
:1018800002000028EFD1E06900F0040004281ED116
:10189000022D1CD00027D4F8C8004FEA1048D4F815
:1018A000E800060C0A2E12D8464510D20AE0781C31
:1018B00087B2B7F5A04F05D90020364908706FF000
:1018C0000700B5E7E06900F004000028EFD1E06907
:1018D00000F00800082821D1032D1FD00027D4F8DC
:1018E000080101E030E019E04FEA1048D4F828017F
:1018F000060C0A2E12D8464510D20AE0781C87B290
:10190000B7F5A04F05D90020224908706FF00700F5
:101910008EE7E06900F008000028EFD1B9F1010F6F
:1019200007D1E1690120A84000F00F000143E16107
:1019300006E0E0690121A9400F228A431040E061DE
:1019400000201449087073E74FF0FF3070E7000083
:1019500000300540003405402E2E2F2E2E2F2E2E27
:101960002F2E2E2F2E2E2F2E2E2F6472697665721B
:10197000732F686333325F6C6C5F64726976657273
:101980002F7372632F686333325F6C6C5F646D61B9
:101990002E6300005C80FF1F70B504460D4600BF3B
:1019A0000E48844202D00E48844200D104E04FF435
:1019B000B2710CA0FFF780FE00BF00BF2DB145F053
:1019C0000F10B0F10F1F00D104E040F2651105A027
:1019D000FFF772FE00BFA56170BD0000003005403A
:1019E000003405402E2E2F2E2E2F2E2E2F2E2E2F52
:1019F0002E2E2F2E2E2F647269766572732F6863D8
:101A000033325F6C6C5F6472697665722F737263D8
:101A10002F686333325F6C6C5F646D612E6300000E
:101A200070B504460D4600BF0B48844202D00B48F7
:101A3000844200D103E0FB2109A0FFF73DFE00BF77
:101A400000BF0DB1012D00D103E0FC2104A0FFF780
:101A500033FE00BF256070BD0030054000340540F6
:101A60002E2E2F2E2E2F2E2E2F2E2E2F2E2E2F2E91
:101A70002E2F647269766572732F686333325F6CE0
:101A80006C5F6472697665722F7372632F6863335B
:101A9000325F6C6C5F646D612E63000010B58EB0B8
:101AA0000121880300F042FE0121C80300F03EFE40
:101AB0000121480400F03AFE06A800F0DDFC4FF4D6
:101AC0008050069001200A904FF4FA700B9000208D
:101AD00009905A4808905A48079000200C9004201A
:101AE0000D9006AA0021574800F000F90446002C8A
:101AF0005CD103A800F06CFA4FF4806003900020E2
:101B000004905148059003AA00214E4800F0DAF9EC
:101B10004D490798086008984860DDE90A0140EAE5
:101B200001404949886008468861DDE90C010843A5
:101B300009990843069908430399084304990843FF
:101B40004149C861012200213E4800F095FA012177
:101B50003C4800F047FA2020ADF804000020ADF822
:101B600006003A48029001A801F028FBBDF90600E2
:101B700004F01EF9BDF906000F2104F057F9BDF974
:101B8000060004F031F94FF493713148FEF7A8FFD5
:101B900001212C48FFF744FF01221146294800F09B
:101BA0007DFC012200212748FFF7EEFD06A800F08A
:101BB00063FC4FF48050069001200A904FF4FA70B5
:101BC0000B90002009901E48801E08901B4807902B
:101BD00001200C9000200D9006AA00211D4800F065
:101BE00085F8044634BB2420ADF804000120ADF88C
:101BF00006001948029001A801F0E0FABDF90600BC
:101C000004F0D6F8BDF906000F2104F00FF9BDF974
:101C1000060004F0E9F840F227110D481030FEF7F5
:101C20005FFF01210B48FFF7FBFE01221146094827
:101C300000F034FC20460EB010BD00007880FF1F7D
:101C400006140240003005406084FF1FD13E0000B2
:101C500014080140003405403951000070B50446B5
:101C60000D4600BF1048844202D01048844200D183
:101C700004E040F272510EA0FFF71EFD00BF00BF4E
:101C8000032D00D804E040F2735109A0FFF714FDC2
:101C900000BF04F1680000EB851000684FF6FF718B
:101CA00001EA104070BD00000030054000340540DE
:101CB0002E2E2F2E2E2F2E2E2F2E2E2F2E2E2F2E3F
:101CC0002E2F647269766572732F686333325F6C8E
:101CD0006C5F6472697665722F7372632F68633309
:101CE000325F6C6C5F646D612E6300002DE9F04122
:101CF00006460D4614464FF0000800BF5B4886427A
:101D000002D05B48864200D104E04FF46B7159A0C9
:101D1000FFF7D2FC00BF00BF032D00D804E040F263
:101D2000AD3154A0FFF7C8FC00BF14B96FF0020832
:101D300098E000BFE06878B1E068B0F5807F03D13B
:101D4000207900F0010038B1E068B0F5007F04D1DF
:101D5000207900F0030000B904E040F2B23145A060
:101D6000FFF7AAFC00BF00BFE06878B1E068B0F5FB
:101D7000807F03D1207A00F0010038B1E068B0F52F
:101D8000007F04D1207A00F0030000B904E040F2A3
:101D9000B33138A0FFF790FC00BF00BFA06928B1A5
:101DA000A069012802D0A069022800D104E04FF404
:101DB0006D7130A0FFF780FC00BF00BFE06928B163
:101DC000E069042802D0E069082800D104E040F26C
:101DD000B53128A0FFF770FC00BF00BF2069B0F547
:101DE000806F00D804E040F2B63122A0FFF764FC17
:101DF00000BF00BF2068B0F5805F01D0206800B947
:101E000004E040F2B7311BA0FFF756FC00BF06F11B
:101E1000400000EB85106168016006F1440000EBB2
:101E20008510A1680160208AC0F30900A18A40EAF8
:101E3000014106F1480000EB8510016006F15C00ED
:101E400000EB8517E16820680843A1690843E16950
:101E5000084341F20F310840396841F20F32914393
:101E6000084338604046BDE8F0810000003005407E
:101E7000003405402E2E2F2E2E2F2E2E2F2E2E2FBD
:101E80002E2E2F2E2E2F647269766572732F686343
:101E900033325F6C6C5F6472697665722F73726344
:101EA0002F686333325F6C6C5F646D612E6300007A
:101EB00010B54FF480210248FFF76EFD10BD000001
:101EC000003005402DE9F04106460D4614464FF01E
:101ED000000800BF2D48864202D02D48864200D11E
:101EE00004E040F26E412BA0FFF7E6FB00BF00BF0D
:101EF000032D00D804E040F26F4126A0FFF7DCFB81
:101F000000BF14B96FF002083DE000BF2068B0F5D3
:101F1000806F01D0206800B904E040F274411DA038
:101F2000FFF7CAFB00BF00BF6068B0F5006F01D0CB
:101F3000606800B904E040F2754116A0FFF7BCFBF1
:101F400000BF00BF207A00F0030000B904E040F2B7
:101F5000764110A0FFF7B0FB00BF06F15C0000EB7C
:101F600085172088A188084300F44060396821F46F
:101F7000406108433860A06820F0030106F1580072
:101F800000EB851001604046BDE8F081003005405F
:101F9000003405402E2E2F2E2E2F2E2E2F2E2E2F9C
:101FA0002E2E2F2E2E2F647269766572732F686322
:101FB00033325F6C6C5F6472697665722F73726323
:101FC0002F686333325F6C6C5F646D612E63000059
:101FD0000146002009B9C01E03E000220A604A60E1
:101FE0008A60704770B504460D4600BF11488442B0
:101FF00002D01148844200D104E040F2B5410FA064
:10200000FFF75AFB00BF00BF0DB1012D00D104E066
:1020100040F2B64109A0FFF74FFB00BF012D04D1EC
:10202000E06A40F00100E06203E0E06A20F00100B5
:10203000E06270BD00300540003405402E2E2F2E8A
:102040002E2F2E2E2F2E2E2F2E2E2F2E2E2F647231
:1020500069766572732F686333325F6C6C5F64728C
:10206000697665722F7372632F686333325F6C6CAD
:102070005F646D612E63000070B504460E46154620
:1020800000BF1748844202D01648844200D104E0C1
:1020900040F2C94114A0FFF70FFB00BF00BF032EA1
:1020A00000D804E040F2CA410FA0FFF705FB00BFD3
:1020B00000BF0DB1012D00D104E040F2CB410AA0D8
:1020C000FFF7FAFA00BF300240EA450040F602711D
:1020D0000840E16A40F6027291430843E06270BD35
:1020E00000300540003405402E2E2F2E2E2F2E2E90
:1020F0002F2E2E2F2E2E2F2E2E2F64726976657284
:10210000732F686333325F6C6C5F647269766572DB
:102110002F7372632F686333325F6C6C5F646D6121
:102120002E6300002DE9F04106460D4614464FF09F
:10213000000800BF2F48864202D02F48864200D1B7
:1021400004E04FF47B712DA0FFF7B6FA00BF00BF8B
:10215000032D00D804E040F2ED3128A0FFF7ACFADF
:1021600000BF14B96FF0020841E000BF206840B121
:102170002068102805D02068202802D02068302848
:1021800000D104E040F2F2311CA0FFF795FA00BF45
:1021900000BFA068B0F5806F00D804E040F2F331D2
:1021A00016A0FFF789FA00BF00BF6068B0F5806F26
:1021B00000D804E04FF47D7110A0FFF77DFA00BF56
:1021C00006F15C0000EB8517386820F030002178BC
:1021D00001F03001084338602189606840EA01401D
:1021E00020F0FC2106F14C0000EB85100160404618
:1021F000BDE8F08100300540003405402E2E2F2E22
:102200002E2F2E2E2F2E2E2F2E2E2F2E2E2F64726F
:1022100069766572732F686333325F6C6C5F6472CA
:10222000697665722F7372632F686333325F6C6CEB
:102230005F646D612E6300002DE9F04105460C4698
:102240001646002700BF1A48854202D01948854229
:1022500000D104E040F2222117A0FFF72DFA00BFC1
:1022600000BF032C00D804E040F2232112A0FFF7A6
:1022700023FA00BF05F1440000EB841006600DE076
:10228000781C87B2B7F5805F03D96FF00700BDE80F
:10229000F08105F1440000EB8410066005F1640054
:1022A00000EB84100068B042EAD10020EFE70000A4
:1022B00000300540003405402E2E2F2E2E2F2E2EBE
:1022C0002F2E2E2F2E2E2F2E2E2F647269766572B2
:1022D000732F686333325F6C6C5F6472697665720A
:1022E0002F7372632F686333325F6C6C5F646D6150
:1022F0002E6300002DE9F04105460C4616460027E6
:1023000000BF1A48854202D01948854200D104E036
:1023100040F2052117A0FFF7CFF900BF00BF032C43
:1023200000D804E040F2062112A0FFF7C5F900BF73
:1023300005F1400000EB841006600DE0781C87B2C8
:10234000B7F5805F03D96FF00700BDE8F08105F1B4
:10235000400000EB8410066005F1600000EB841083
:102360000068B042EAD10020EFE7000000300540ED
:10237000003405402E2E2F2E2E2F2E2E2F2E2E2FB8
:102380002E2E2F2E2E2F647269766572732F68633E
:1023900033325F6C6C5F6472697665722F7372633F
:1023A0002F686333325F6C6C5F646D612E63000075
:1023B0002DE9F04705460C4617464FF0000800BFD0
:1023C0001C48854202D01C48854200D104E04FF4ED
:1023D00010711AA0FFF770F900BF00BF032C00D8DE
:1023E00004E040F2412115A0FFF766F900BF05F1B6
:1023F000480000EB8416306867F31F40306005F139
:10240000680000EB84190EE008F101001FFA80F863
:10241000B8F5805F03D96FF00700BDE8F08730683A
:1024200067F31F403060D9F80000B7EB104FEBD1D5
:102430000020F2E700300540003405402E2E2F2EFC
:102440002E2F2E2E2F2E2E2F2E2E2F2E2E2F64722D
:1024500069766572732F686333325F6C6C5F647288
:10246000697665722F7372632F686333325F6C6CA9
:102470005F646D612E6300000146002009B9C01E33
:102480000AE000220A604A608A60CA6001220A618A
:1024900000224A618A61CA617047000070B5044633
:1024A0000D46164600BF1748844202D016488442A3
:1024B00000D104E040F2411114A0FFF7FDF800BF85
:1024C00000BF2DB145F00F10B0F10F1F00D104E097
:1024D0004FF4A1710DA0FFF7EFF800BF00BF0EB1E0
:1024E000012E00D104E040F2431108A0FFF7E4F808
:1024F00000BF1EB920692843206102E02069A8437B
:10250000206170BD00300540003405402E2E2F2E76
:102510002E2F2E2E2F2E2E2F2E2E2F2E2E2F64725C
:1025200069766572732F686333325F6C6C5F6472B7
:10253000697665722F7372632F686333325F6C6CD8
:102540005F646D612E6300000EB50121042000F070
:102550008DF9684602F0DEFD00208DF80000602055
:102560008DF8010000218DF8021002218DF8031072
:102570004FF6FF700290074802F04CFB6946054891
:1025800002F00EFC0021034802F0E2FC014802F0D8
:1025900073FD0EBD005001401CB52A20ADF80000AF
:1025A0002620ADF802001D480190684600F006FEA6
:1025B0004FF480211A48FFF7EFF92620002807DBA7
:1025C00000F01F0201219140164A430942F82310EE
:1025D00000BF26200321002804DB0A07130E124A3D
:1025E000135406E00A07140E104A00F00F031B1FD5
:1025F000D45400BF262000280DDB00BF00BF00F030
:102600001F02012191404209920002F1E022C2F82A
:10261000001100BF00BF00BF1CBD0000B11E0000C4
:102620000030054080E200E000E400E018ED00E04A
:1026300070B50446002500BF1D480068012800D180
:1026400004E040F24F111BA0FFF736F800BF00BFB7
:10265000F02C00D804E04FF4A87116A0FFF72CF876
:1026600000BF13480830006820F0F00004F0F001CB
:1026700008430F490831086010E06D1C1C48006ACF
:10268000C0F302611B480068C84044F62061B0FBFB
:10269000F1F0A84202D26FF0070070BD0448083084
:1026A000006800F0F000A042E7D10020F5E700004C
:1026B000000401402E2E2F2E2E2F2E2E2F2E2E2FA9
:1026C0002E2E2F2E2E2F647269766572732F6863FB
:1026D00033325F6C6C5F6472697665722F737263FC
:1026E0002F686333325F6C6C5F65666D2E6300002C
:1026F000004005400080FF1F10B5044600BF3CB1FC
:102700004FF6FF7020434FF6FF71884200D104E07E
:1027100040F20F210348FEF7CFFF00BF0248846557
:1027200010BD0000E46E00000010054070B50446C6
:102730000D4600BF2CB1174820431649884200D1EE
:1027400003E0712114A0FEF7B7FF00BF00BF0DB179
:10275000012D00D103E072210FA0FEF7ADFF00BFF5
:1027600000BF1C48006900F0010000B103E07321C4
:1027700009A0FEF7A1FF00BF012D05D11548006893
:10278000A0431449086004E012480068204311493E
:10279000086070BD11C5F38F2E2E2F2E2E2F2E2EDA
:1027A0002F2E2E2F2E2E2F2E2E2F647269766572CD
:1027B000732F686333325F6C6C5F64726976657225
:1027C0002F7372632F686333325F6C6C5F6663676D
:1027D0002E6300000080044070B504460D4600BF23
:1027E0002CB1114820431049884200D103E08421D4
:1027F0000EA0FEF761FF00BF00BF0DB1012D00D19B
:1028000003E0852109A0FEF757FF00BF012D05D188
:1028100015484068A0431449486004E012484068E5
:1028200020431149486070BD79FD0F0F2E2E2F2EC9
:102830002E2F2E2E2F2E2E2F2E2E2F2E2E2F647239
:1028400069766572732F686333325F6C6C5F647294
:10285000697665722F7372632F686333325F6C6CB5
:102860005F6663672E6300000080044070B5044615
:102870000D4600BF2CB1114820431049884200D1B9
:1028800003E096210EA0FEF717FF00BF00BF0DB1B9
:10289000012D00D103E0972109A0FEF70DFF00BF35
:1028A000012D05D115488068A0431449886004E0D3
:1028B0001248806820431149886070BDFF87070077
:1028C0002E2E2F2E2E2F2E2E2F2E2E2F2E2E2F2E23
:1028D0002E2F647269766572732F686333325F6C72
:1028E0006C5F6472697665722F7372632F686333ED
:1028F000325F6C6C5F6663672E630000008004408B
:1029000070B504460D4600BF3CB141F203102043B0
:1029100041F20311884200D103E0A8210DA0FEF787
:10292000CBFE00BF00BF0DB1012D00D103E0A921F6
:1029300008A0FEF7C1FE00BF012D05D11448C068F4
:10294000A0431349C86004E01148C06820431049FF
:10295000C86070BD2E2E2F2E2E2F2E2E2F2E2E2FF6
:102960002E2E2F2E2E2F647269766572732F686358
:1029700033325F6C6C5F6472697665722F73726359
:102980002F686333325F6C6C5F6663672E63000091
:10299000008004402DE9F04104460D46904600BFFA
:1029A0002548008800F0010000B104E040F28121D8
:1029B00022A0FEF781FE00BF00BF4CB1012C07D062
:1029C000022C05D0032C03D0042C01D0052C00D1FF
:1029D00004E040F2822119A0FEF76EFE00BF00BFA6
:1029E00015B1A8B200B104E040F2832113A0FEF7B4
:1029F00063FE00BF002719E005F0010088B10E4812
:102A0000001D00EB841000EB8706B8F1010F04D124
:102A1000308840F40040308003E03088C0F30E007E
:102A200030806D1005B903E0781CC7B2102FE3D3D6
:102A300000BFBDE8F0810000FC3B05402E2E2F2E8C
:102A40002E2F2E2E2F2E2E2F2E2E2F2E2E2F647227
:102A500069766572732F686333325F6C6C5F647282
:102A6000697665722F7372632F686333325F6C6CA3
:102A70005F6770696F2E63002DE9F05F05460E46B3
:102A800014464FF0000B14B96FF0020BD9E000BFF1
:102A90006D48008800F0010000B104E04FF480713F
:102AA0006AA0FEF709FE00BF00BF4DB1012D07D09F
:102AB000022D05D0032D03D0042D01D0052D00D10A
:102AC00004E040F2011161A0FEF7F6FD00BF00BF77
:102AD00016B1B0B200B104E04FF481715BA0FEF713
:102AE000EBFD00BF00BF208810B12088012800D175
:102AF00004E040F2031155A0FEF7DEFD00BF00BF69
:102B0000608810B16088022800D104E04FF482711F
:102B10004EA0FEF7D1FD00BF00BFA08810B1A08875
:102B2000042800D104E040F2051148A0FEF7C4FDDE
:102B300000BF00BFE08828B1E088102802D0E088FC
:102B4000202800D104E04FF4837140A0FEF7B4FDCB
:102B500000BF00BF208918B12089B0F5804F00D197
:102B600004E040F2071139A0FEF7A6FD00BF00BF48
:102B7000608910B16089402800D104E04FF484716D
:102B800032A0FEF799FD00BF00BFA08918B1A0894F
:102B9000B0F5007F00D104E040F209112BA0FEF750
:102BA0008BFD00BF00BFE08918B1E089B0F5805F00
:102BB00000D104E04FF4857124A0FEF77DFD00BF35
:102BC00000BF208A18B1208AB0F5004F00D104E080
:102BD00040F20B111DA0FEF76FFD00BF00272DE096
:102BE00006F0010028B3208861880843A1880843C3
:102BF000E188084361890843A1890843E1890843C2
:102C0000218940EA010A45F27728208A40EA0A0A27
:102C100048F400480C48001D00EB851000EB8709C4
:102C2000B9F8000020EA08000AEA08010843A9F8F8
:102C30000000761006B903E0781CC7B2102FCFD37E
:102C400000BF5846BDE8F09FFC3B05402E2E2F2EBE
:102C50002E2F2E2E2F2E2E2F2E2E2F2E2E2F647215
:102C600069766572732F686333325F6C6C5F647270
:102C7000697665722F7372632F686333325F6C6C91
:102C80005F6770696F2E630070B504460D4600BF24
:102C90004CB1012C07D0022C05D0032C03D0042CFE
:102CA00001D0052C00D104E04FF4FF710CA0FEF719
:102CB00003FD00BF00BF15B1A8B200B104E040F2AF
:102CC000FF1107A0FEF7F8FC00BF144901EB041048
:102CD000B0F80008284008B1012070BD0020FCE7D2
:102CE0002E2E2F2E2E2F2E2E2F2E2E2F2E2E2F2EFF
:102CF0002E2F647269766572732F686333325F6C4E
:102D00006C5F6472697665722F7372632F686333C8
:102D1000325F6C6C5F6770696F2E63000030054036
:102D200070B504460D4600BF4CB1012C07D0022CF3
:102D300005D0032C03D0042C01D0052C00D104E0D5
:102D400040F24A210BA0FEF7B7FC00BF00BF15B14F
:102D5000A8B200B104E040F24B2106A0FEF7ACFCA3
:102D600000BF1348102101FB04063088284330803F
:102D700070BD00002E2E2F2E2E2F2E2E2F2E2E2FFA
:102D80002E2E2F2E2E2F647269766572732F686334
:102D900033325F6C6C5F6472697665722F73726335
:102DA0002F686333325F6C6C5F6770696F2E6300EE
:102DB0000A38054070B504460D4600BF24B144F002
:102DC0001F001F2800D104E04FF4B27118A0FEF7D5
:102DD00073FC00BF00BF0DB1012D00D104E040F233
:102DE000651113A0FEF768FC00BF00BF1F480088F4
:102DF00000F0010000B104E04FF4B3710CA0FEF745
:102E00005BFC00BF012D09D118480838008804F088
:102E10001F01084315490839088008E0134808389D
:102E2000008804F01F01884310490839088070BDEC
:102E30002E2E2F2E2E2F2E2E2F2E2E2F2E2E2F2EAD
:102E40002E2F647269766572732F686333325F6CFC
:102E50006C5F6472697665722F7372632F68633377
:102E6000325F6C6C5F6770696F2E6300FC3B0540DE
:102E70002DE9F04104460D46164600BF4CB1012C29
:102E800007D0022C05D0032C03D0042C01D0052C34
:102E900000D104E04FF4BE7124A0FEF70DFC00BF8A
:102EA00000BF15B1A8B200B104E040F27D111FA02F
:102EB000FEF702FC00BF00BF0F2E03D9202E02D365
:102EC0003B2E00D804E04FF4BF7118A0FEF7F4FBCE
:102ED00000BF00BF2448008800F0010000B104E0FA
:102EE00040F27F1111A0FEF7E7FB00BF002717E0BB
:102EF00005F0010078B11C48801D00EB841000EB48
:102F00008708B8F800004FF6C071084006F03F018E
:102F10000843A8F800006D1005B903E0781CC7B29B
:102F2000102FE5D300BFBDE8F08100002E2E2F2E1C
:102F30002E2F2E2E2F2E2E2F2E2E2F2E2E2F647232
:102F400069766572732F686333325F6C6C5F64728D
:102F5000697665722F7372632F686333325F6C6CAE
:102F60005F6770696F2E6300FC3B054070B50446D7
:102F70000D4600BF4CB1012C07D0022C05D0032C0C
:102F800003D0042C01D0052C00D104E04FF40E71C5
:102F90000BA0FEF791FB00BF00BF15B1A8B200B1B6
:102FA00004E040F2392106A0FEF786FB00BF13487B
:102FB000102101FB040630882843308070BD0000DA
:102FC0002E2E2F2E2E2F2E2E2F2E2E2F2E2E2F2E1C
:102FD0002E2F647269766572732F686333325F6C6B
:102FE0006C5F6472697665722F7372632F686333E6
:102FF000325F6C6C5F6770696F2E63000838054044
:103000000146002009B9C01E09E000220A804A805A
:10301000CA800A820A814A818A81CA818A8070476D
:1030200070B504460D4600BF4CB1012C07D0022CF0
:1030300005D0032C03D0042C01D0052C00D104E0D2
:1030400040F26D210BA0FEF737FB00BF00BF15B1AA
:10305000A8B200B104E040F26E2106A0FEF72CFBFE
:1030600000BF1348102101FB04063088284330803C
:1030700070BD00002E2E2F2E2E2F2E2E2F2E2E2FF7
:103080002E2E2F2E2E2F647269766572732F686331
:1030900033325F6C6C5F6472697665722F73726332
:1030A0002F686333325F6C6C5F6770696F2E6300EB
:1030B0000C380540F0B53E4E367806F00706062E71
:1030C00043D2DFE806F003070A0E1115394E3668C1
:1030D00006603BE0384E066038E04FF4004606607C
:1030E00034E0354E066031E04FF4004606602DE0D6
:1030F0002F4EDA363668330F2D4E263ED6F8006155
:10310000C6F307222A4EDA36366806F01F04284E28
:10311000263ED6F80061C6F3C01656B9661C264F87
:10312000B7FBF6F6571C7E435F1CB6FBF7F606604E
:103130000AE0204E3568661CB5FBF6F6571C7E4348
:103140005F1CB6FBF7F6066000E000BF00BF184941
:10315000891F174E263E366A0E6006680F68C7F351
:103160000267FE4046600F78C7F302170668FE400C
:10317000C66006680F68C7F30247FE4086610F8885
:10318000C7F302370668FE40466106680F68C7F35A
:103190000257FE40C6610F7807F007070668FE4039
:1031A00086600F88C7F302270668FE400661F0BDFF
:1031B000264005400480FF1F00127A0070B50446C7
:1031C00000260CB9F61E4BE000BF2088B0F5007F4A
:1031D00000DA03E0CD212348FEF76EFA00BF208815
:1031E000400900EB4000202101EB4000B4F902103F
:1031F00088420AD82088400900EB4000252101EBD5
:103200004000B4F90210884206D2B4F90200202826
:1032100002D36FF0020623E060881349042212FBF8
:1032200000152868C0F3080040F2FF11884208D159
:1032300020882860B4F902100C4A606842F8210026
:103240000EE020882968C1F30801884206D1B4F94C
:103250000210064A606842F8210001E06FF00106A2
:10326000304670BDE46E00005C100540288DFF1FE5
:1032700010B5034908688047BFF34F8F10BD0000A9
:10328000288DFF1F10B5034948688047BFF34F8F53
:1032900010BD0000288DFF1F10B5034988688047C6
:1032A000BFF34F8F10BD0000288DFF1F10B50349DD
:1032B000C8688047BFF34F8F10BD0000288DFF1FE7
:1032C00010B5034908698047BFF34F8F10BD000058
:1032D000288DFF1F10B5034948698047BFF34F8F02
:1032E00010BD0000288DFF1F10B503498869804775
:1032F000BFF34F8F10BD0000288DFF1F10B503498D
:10330000C8698047BFF34F8F10BD0000288DFF1F95
:1033100010B50349086A8047BFF34F8F10BD000006
:10332000288DFF1F10B50349486A8047BFF34F8FB0
:1033300010BD0000288DFF1F10B50349886A804723
:10334000BFF34F8F10BD0000288DFF1F10B503493C
:10335000C86A8047BFF34F8F10BD0000288DFF1F44
:1033600010B50349086B8047BFF34F8F10BD0000B5
:10337000288DFF1F10B50349486B8047BFF34F8F5F
:1033800010BD0000288DFF1F10B50349886B8047D2
:10339000BFF34F8F10BD0000288DFF1F10B50349EC
:1033A000C86B8047BFF34F8F10BD0000288DFF1FF3
:1033B00010B50349086C8047BFF34F8F10BD000064
:1033C000288DFF1F10B50349486C8047BFF34F8F0E
:1033D00010BD0000288DFF1F10B50349886C804781
:1033E000BFF34F8F10BD0000288DFF1F10B503499C
:1033F000C86C8047BFF34F8F10BD0000288DFF1FA2
:1034000010B50349086D8047BFF34F8F10BD000012
:10341000288DFF1F10B50349486D8047BFF34F8FBC
:1034200010BD0000288DFF1F10B50349886D80472F
:10343000BFF34F8F10BD0000288DFF1F10B503494B
:10344000C86D8047BFF34F8F10BD0000288DFF1F50
:1034500010B50349086E8047BFF34F8F10BD0000C1
:10346000288DFF1F10B50349486E8047BFF34F8F6B
:1034700010BD0000288DFF1F10B50349886E8047DE
:10348000BFF34F8F10BD0000288DFF1F10B50349FB
:10349000C86E8047BFF34F8F10BD0000288DFF1FFF
:1034A00010B50349086F8047BFF34F8F10BD000070
:1034B000288DFF1F10B50349486F8047BFF34F8F1A
:1034C00010BD0000288DFF1F10B50349886F80478D
:1034D000BFF34F8F10BD0000288DFF1F10B50349AB
:1034E000C86F8047BFF34F8F10BD0000288DFF1FAE
:1034F00010B50349D1F880008047BFF34F8F10BD4E
:10350000288DFF1F10B50349D1F884008047BFF311
:103510004F8F10BD288DFF1F10B50349D1F88800CB
:103520008047BFF34F8F10BD288DFF1F10B5034993
:10353000D1F88C008047BFF34F8F10BD288DFF1F3F
:1035400010B50349D1F890008047BFF34F8F10BDED
:10355000288DFF1F10B50349D1F894008047BFF3B1
:103560004F8F10BD288DFF1F10B50349D1F898006B
:103570008047BFF34F8F10BD288DFF1F10B5034943
:10358000D1F89C008047BFF34F8F10BD288DFF1FDF
:1035900010B50349D1F8A0008047BFF34F8F10BD8D
:1035A000288DFF1F10B50349D1F8A4008047BFF351
:1035B0004F8F10BD288DFF1F10B50349D1F8A8000B
:1035C0008047BFF34F8F10BD288DFF1F10B50349F3
:1035D000D1F8AC008047BFF34F8F10BD288DFF1F7F
:1035E00010B50349D1F8B0008047BFF34F8F10BD2D
:1035F000288DFF1F10B50349D1F8B4008047BFF3F1
:103600004F8F10BD288DFF1F10B50349D1F8B800AA
:103610008047BFF34F8F10BD288DFF1F10B50349A2
:10362000D1F8BC008047BFF34F8F10BD288DFF1F1E
:1036300010B50349D1F8C0008047BFF34F8F10BDCC
:10364000288DFF1F10B50349D1F8C4008047BFF390
:103650004F8F10BD288DFF1F10B50349D1F8C8004A
:103660008047BFF34F8F10BD288DFF1F10B5034952
:10367000D1F8CC008047BFF34F8F10BD288DFF1FBE
:1036800010B50349D1F8D0008047BFF34F8F10BD6C
:10369000288DFF1F10B50349D1F8D4008047BFF330
:1036A0004F8F10BD288DFF1F10B50349D1F8D800EA
:1036B0008047BFF34F8F10BD288DFF1F10B5034902
:1036C000D1F8DC008047BFF34F8F10BD288DFF1F5E
:1036D00010B50349D1F8E0008047BFF34F8F10BD0C
:1036E000288DFF1F10B50349D1F8E4008047BFF3D0
:1036F0004F8F10BD288DFF1F10B50349D1F8E8008A
:103700008047BFF34F8F10BD288DFF1F10B50349B1
:10371000D1F8EC008047BFF34F8F10BD288DFF1FFD
:1037200010B50349D1F8F0008047BFF34F8F10BDAB
:10373000288DFF1F10B50349D1F8F4008047BFF36F
:103740004F8F10BD288DFF1F10B50349D1F8F80029
:103750008047BFF34F8F10BD288DFF1F10B5034961
:10376000D1F8FC008047BFF34F8F10BD288DFF1F9D
:1037700010B50349D1F800018047BFF34F8F10BD4A
:10378000288DFF1F10B50349D1F804018047BFF30E
:103790004F8F10BD288DFF1F10B50349D1F80801C8
:1037A0008047BFF34F8F10BD288DFF1F10B5034911
:1037B000D1F80C018047BFF34F8F10BD288DFF1F3C
:1037C00010B50349D1F810018047BFF34F8F10BDEA
:1037D000288DFF1F10B50349D1F814018047BFF3AE
:1037E0004F8F10BD288DFF1F10B50349D1F8180168
:1037F0008047BFF34F8F10BD288DFF1F10B50349C1
:10380000D1F81C018047BFF34F8F10BD288DFF1FDB
:1038100010B50349D1F820018047BFF34F8F10BD89
:10382000288DFF1F10B50349D1F824018047BFF34D
:103830004F8F10BD288DFF1F10B50349D1F8280107
:103840008047BFF34F8F10BD288DFF1F10B5034970
:10385000D1F82C018047BFF34F8F10BD288DFF1F7B
:1038600010B50349D1F830018047BFF34F8F10BD29
:10387000288DFF1F10B50349D1F834018047BFF3ED
:103880004F8F10BD288DFF1F10B50349D1F83801A7
:103890008047BFF34F8F10BD288DFF1F10B5034920
:1038A000D1F83C018047BFF34F8F10BD288DFF1F1B
:1038B00010B50349D1F840018047BFF34F8F10BDC9
:1038C000288DFF1F10B50349D1F844018047BFF38D
:1038D0004F8F10BD288DFF1F10B50349D1F8480147
:1038E0008047BFF34F8F10BD288DFF1F10B50349D0
:1038F000D1F84C018047BFF34F8F10BD288DFF1FBB
:1039000010B50349D1F850018047BFF34F8F10BD68
:10391000288DFF1F10B50349D1F854018047BFF32C
:103920004F8F10BD288DFF1F10B50349D1F85801E6
:103930008047BFF34F8F10BD288DFF1F10B503497F
:10394000D1F85C018047BFF34F8F10BD288DFF1F5A
:1039500010B50349D1F860018047BFF34F8F10BD08
:10396000288DFF1F10B50349D1F864018047BFF3CC
:103970004F8F10BD288DFF1F10B50349D1F8680186
:103980008047BFF34F8F10BD288DFF1F10B503492F
:10399000D1F86C018047BFF34F8F10BD288DFF1FFA
:1039A00010B50349D1F870018047BFF34F8F10BDA8
:1039B000288DFF1F10B50349D1F874018047BFF36C
:1039C0004F8F10BD288DFF1F10B50349D1F8780126
:1039D0008047BFF34F8F10BD288DFF1F10B50349DF
:1039E000D1F87C018047BFF34F8F10BD288DFF1F9A
:1039F00010B50349D1F880018047BFF34F8F10BD48
:103A0000288DFF1F10B50349D1F884018047BFF30B
:103A10004F8F10BD288DFF1F10B50349D1F88801C5
:103A20008047BFF34F8F10BD288DFF1F10B503498E
:103A3000D1F88C018047BFF34F8F10BD288DFF1F39
:103A400010B50349D1F890018047BFF34F8F10BDE7
:103A5000288DFF1F10B50349D1F894018047BFF3AB
:103A60004F8F10BD288DFF1F10B50349D1F8980165
:103A70008047BFF34F8F10BD288DFF1F10B503493E
:103A8000D1F89C018047BFF34F8F10BD288DFF1FD9
:103A900010B50349D1F8A0018047BFF34F8F10BD87
:103AA000288DFF1F10B50349D1F8A4018047BFF34B
:103AB0004F8F10BD288DFF1F10B50349D1F8A80105
:103AC0008047BFF34F8F10BD288DFF1F10B50349EE
:103AD000D1F8AC018047BFF34F8F10BD288DFF1F79
:103AE00010B50349D1F8B0018047BFF34F8F10BD27
:103AF000288DFF1F10B50349D1F8B4018047BFF3EB
:103B00004F8F10BD288DFF1F10B50349D1F8B801A4
:103B10008047BFF34F8F10BD288DFF1F10B503499D
:103B2000D1F8BC018047BFF34F8F10BD288DFF1F18
:103B300010B50349D1F8C0018047BFF34F8F10BDC6
:103B4000288DFF1F10B50349D1F8C4018047BFF38A
:103B50004F8F10BD288DFF1F10B50349D1F8C80144
:103B60008047BFF34F8F10BD288DFF1F10B503494D
:103B7000D1F8CC018047BFF34F8F10BD288DFF1FB8
:103B800010B50349D1F8D0018047BFF34F8F10BD66
:103B9000288DFF1F10B50349D1F8D4018047BFF32A
:103BA0004F8F10BD288DFF1F10B50349D1F8D801E4
:103BB0008047BFF34F8F10BD288DFF1F10B50349FD
:103BC000D1F8DC018047BFF34F8F10BD288DFF1F58
:103BD00010B50349D1F8E0018047BFF34F8F10BD06
:103BE000288DFF1F10B50349D1F8E4018047BFF3CA
:103BF0004F8F10BD288DFF1F10B50349D1F8E80184
:103C00008047BFF34F8F10BD288DFF1F10B50349AC
:103C1000D1F8EC018047BFF34F8F10BD288DFF1FF7
:103C200010B50349D1F8F0018047BFF34F8F10BDA5
:103C3000288DFF1F10B50349D1F8F4018047BFF369
:103C40004F8F10BD288DFF1F10B50349D1F8F80123
:103C50008047BFF34F8F10BD288DFF1F10B503495C
:103C6000D1F8FC018047BFF34F8F10BD288DFF1F97
:103C700000B585B06846FFF7C3F90020ADF8000035
:103C80000220ADF802006A4610210020FEF7F4FE83
:103C90006A4601210020FEF7EFFE6A46022100205D
:103CA000FEF7EAFE05B000BD10B5044604F00100C1
:103CB00048B100BF40F223101A49086043F21020B7
:103CC000086000BF00BF04F0020028B100BF164822
:103CD0001649086100BF00BF04F0040030B100BF06
:103CE0004AF201501249088000BF00BF04F01000E2
:103CF00018B14AF2085000F0DFF804F0400018B1A3
:103D00004AF2035000F0D8F804F0800040B100BF40
:103D100077200849086007490831086000BF00BFE4
:103D200010BD0000000401400100A5A50080044072
:103D3000FC3B05400408054010B5044604F00100B2
:103D400028B100BF00201949086000BF00BF04F07F
:103D5000020028B100BF16481649086100BF00BF25
:103D600004F0040030B100BF4FF425401249088030
:103D700000BF00BF04F0100018B14AF2085000F074
:103D80008DF804F0400018B14AF2035000F086F8B4
:103D900004F0800040B100BF762008490860074960
:103DA0000831086000BF00BF10BD000000040140E2
:103DB0000000A5A500800440FC3B05400408054028
:103DC0001CB56846FDF7EEF900200190019820F03F
:103DD0001F0001903121019861F31020019001989A
:103DE00020F0704000F180500190019820F0706048
:103DF00000F180700190019820F4700000F58010AF
:103E0000019000208DF80000019820F080000190C2
:103E10006846FDF76DF81CBD10B500BF0F4800885F
:103E200000F00200022800D104E040F2AD410CA0F5
:103E3000FDF742FC00BF0948001D007800F0C000FB
:103E400040F00F000549091D087010200349113189
:103E500008701E20FDF778FC002010BDFE430540D1
:103E60002E2E2F2E2E2F2E2E2F2E2E2F2E2E2F2E6D
:103E70002E2F647269766572732F686333325F6CBC
:103E80006C5F6472697665722F7372632F68633337
:103E9000325F6C6C5F7077632E63000004490988A1
:103EA000814341F42541034AA2F8FE137047000004
:103EB000FE43054000400540034909880143034A89
:103EC000A2F8FE1370470000FE4305400040054085
:103ED00010B50120074908704FF4FA7006490880B0
:103EE00000220121054801F0F3FA01210448FDF701
:103EF00053FD10BD1480FF1F1680FF1F00140240E9
:103F00000030054010B50120074908704FF4FA70E1
:103F10000649088000220121054801F0D9FA022152
:103F20000448FDF739FD10BD1A80FF1F1680FF1FE2
:103F300000D40140003005402DE9F04704460F460B
:103F400090464FF0000900BF24B144F00F000F2845
:103F500000D103E0C72126A0FDF7AEFB00BF00BFE4
:103F6000072F00D803E0C82121A0FDF7A5FB00BF63
:103F700000BFB8F1070F00D803E0C9211CA0FDF76E
:103F80009BFB00BF00BF29480068772800D103E0F1
:103F9000CA2117A0FDF790FB00BF24E004F0010048
:103FA000E0B14FEAC960050E281DC6B207FA06F057
:103FB00008FA05F108430721B1400722AA4011433E
:103FC00008400721B1400722AA401143174A121F97
:103FD00012688A4310431549091F0860640809F1F3
:103FE000010000F0FF09002CD8D1BDE8F0870000E7
:103FF0002E2E2F2E2E2F2E2E2F2E2E2F2E2E2F2EDC
:104000002E2F647269766572732F686333325F6C2A
:104010006C5F6472697665722F7372632F686333A5
:10402000325F6C6C5F7372616D2E63000408054033
:104030007FB505460C460026B84800680390B7488F
:1040400040680290B54880680190B448C06800900C
:1040500000BF04F0E060E8B104F0E060B0F1807F00
:1040600018D004F0E060B0F1007F13D004F0E060FD
:10407000B0F1407F0ED004F0E060B0F1806F09D065
:1040800004F0E060B0F1A06F04D004F0E060B0F1A3
:10409000C06F00D104E040F2A121A1A0FDF70CFB0C
:1040A00000BF00BF04F07000B8B104F07000102829
:1040B00013D004F0700020280FD004F070003028D6
:1040C0000BD004F07000402807D004F07000502896
:1040D00003D004F07000602800D104E040F2A22177
:1040E0008FA0FDF7E9FA00BF00BF04F4E020E8B1BB
:1040F00004F4E020B0F5803F18D004F4E020B0F5DF
:10410000003F13D004F4E020B0F5403F0ED004F49B
:10411000E020B0F5802F09D004F4E020B0F5A02F06
:1041200004D004F4E020B0F5C02F00D104E040F248
:10413000A3217BA0FDF7C0FA00BF00BF04F4E0009C
:10414000E8B104F4E000B0F5801F18D004F4E000FA
:10415000B0F5001F13D004F4E000B0F5401F0ED0FE
:1041600004F4E000B0F5800F09D004F4E000B0F5ED
:10417000A00F04D004F4E000B0F5C00F00D104E0BB
:104180004FF4297166A0FDF797FA00BF00BF04F055
:104190000700B8B104F00700012813D004F00700AD
:1041A00002280FD004F0070003280BD004F007000A
:1041B000042807D004F00700052803D004F0070006
:1041C000062800D104E040F2A52155A0FDF774FABD
:1041D00000BF00BF04F4E060E8B104F4E060B0F5B3
:1041E000807F18D004F4E060B0F5007F13D004F4B1
:1041F000E060B0F5407F0ED004F4E060B0F5806F71
:1042000009D004F4E060B0F5A06F04D004F4E060DD
:10421000B0F5C06F00D104E040F2A62140A0FDF748
:104220004BFA00BF00BF04F4E040E8B104F4E04002
:10423000B0F5805F18D004F4E040B0F5005F13D013
:1042400004F4E040B0F5405F0ED004F4E040B0F577
:10425000804F09D004F4E040B0F5A04F04D004F43E
:10426000E040B0F5C04F00D104E040F2A7212CA0FF
:10427000FDF722FA00BF00BF3848284000B104E033
:104280004FF42A7126A0FDF717FA00BF00BF34488B
:10429000008800F0010000B104E040F2A92120A054
:1042A000FDF70AFA00BF2F48007800F00700052844
:1042B00017D1012600BF1948006900F0010000B1C4
:1042C00004E04FF42C7116A0FDF7F6F900BF264864
:1042D00012490860C01248608860C8601E20FDF75F
:1042E00033FA20482638006AA84304EA0501084347
:1042F0001C49263908621E20FDF726FA012E0BD133
:104300000649039808600298486001988860009800
:10431000C8601E20FDF718FA7FBD00000080044031
:104320002E2E2F2E2E2F2E2E2F2E2E2F2E2E2F2EA8
:104330002E2F647269766572732F686333325F6CF7
:104340006C5F6472697665722F7372632F68633372
:10435000325F6C6C5F636C6B2E630000777777075E
:10436000FE43054026400540EEFAFFFF7FB50446B8
:1043700000253048006803902E48406802902D4880
:10438000806801902B48C068009000BF4CB1012CA0
:1043900007D0022C05D0032C03D0042C01D0052C0F
:1043A00000D104E040F2372123A0FDF785F900BFDA
:1043B00000BF3048008800F0010000B104E04FF475
:1043C0000E711DA0FDF778F900BF2B48007800F0B2
:1043D0000700052801D0052C17D1012500BF15487D
:1043E000006900F0010000B104E04FF4107112A068
:1043F000FDF762F900BF21480E490860C01248600D
:104400008860C8601E20FDF79FF91B4804701E20BD
:10441000FDF79AF9012D0BD106490398086002981F
:104420004860019888600098C8601E20FDF78CF9EC
:104430007FBD0000008004402E2E2F2E2E2F2E2E0A
:104440002F2E2E2F2E2E2F2E2E2F64726976657210
:10445000732F686333325F6C6C5F64726976657268
:104460002F7372632F686333325F6C6C5F636C6BA6
:104470002E630000FE43054026400540EEFAFFFF94
:104480002DE9F34F2DED088B8BB08A468A4B0FCB6D
:1044900003AC0FC44FF0FF30029000BF8749139860
:1044A00088420BD086491398884207D085491398D3
:1044B000884203D084491398884200D104E040F236
:1044C000F31182A0FDF7F8F800BFDAF80040DAF83F
:1044D0000470002C7DD0002FFCD01398406900F4AC
:1044E000600500BF5DB1B5F5001F08D0B5F5C00F80
:1044F00005D0B5F5200F02D0B5F5400F00D104E08E
:1045000040F2F91171A0FDF7D7F800BF680D03A9BB
:1045100031F8105007FB05F04000B4FBF0F0461EE8
:10452000FF2E7ED8CAF8086007FB05F04000B4FBF8
:10453000F0F100FB11400790079830B99FED730A26
:104540008AED040A002002906BE00220A0FB051215
:1045500000204FF0010C16EB0C0C40EB0003A1FB0C
:104560000C0E02FB0CE201FB03220021A0FB0783DF
:1045700002FB073200FB01294FF480710022A8FBE7
:1045800001C309FB013108FB021052084FEA340352
:104590001CEB0301504122460023CDE900100846E0
:1045A0000199FBF7A9FE8021B0EB010BBBF17F0F56
:1045B00037D8CAF80CB049004FF0000C4246A2FBB5
:1045C000010E09FB01E108FB0C1980460020802246
:1045D00000E06BE01BEB020240EB00030021A2FBBA
:1045E000040C03FB04C302FB0131CDE90801404682
:1045F0004946FBF7E5FE41EC1A0BDDE90801FBF744
:10460000DFFE53EC1A2BFBF70BFFFBF778FF00EEF6
:10461000100AF7EE000A30EE608A8AED048A002064
:1046200002900298B0F1FF3F40D104EB84004100BA
:1046300007FB05F04000B1FBF0F0401D0A21B0FB84
:10464000F1F0461EFF2E31D8CAF808600220A0FB08
:10465000051200204FF0010C16EB0C0C40411346E4
:10466000A1FB0C2E03FB0CE301FB00310023A2FB9A
:10467000078C01FB07C102FB031940464946FBF7C3
:104680009FFE41EC1A0B2046FBF78DFE53EC1A2BD4
:10469000FBF7C6FEFBF733FF00EE100AF7EE000A49
:1046A00030EE608A8AED048A0020029002980BB0F6
:1046B000BDEC088BBDE8FC8FB06E000000D001405F
:1046C00000D4014000100240001402402E2E2F2E74
:1046D0002E2F2E2E2F2E2E2F2E2E2F2E2E2F64727B
:1046E00069766572732F686333325F6C6C5F6472D6
:1046F000697665722F7372632F686333325F6C6CF7
:104700005F75736172742E6300000000000000008A
:1047100001480068704700006480FF1F10B500F07A
:1047200003F8BFF34F8F10BD0348006803490968C1
:1047300008440149086070476480FF1F6080FF1FC4
:10474000F0B501464FF0FF34A9B3B1F57A7F32D806
:104750004FF47A70B0FBF1F0184A10601848006A04
:10476000C0F3026317480068D840B0FBF1F2501E56
:10477000B0F1807F01D301201BE0501E4FF0E023F9
:10478000586158170F23002804DB1D072E0E0E4D0D
:104790002E5406E01D072F0E0C4D00F00F06361F9D
:1047A000AF5500BF00204FF0E0239861072018614B
:1047B000002000B900242046F0BD00006080FF1FEB
:1047C000004005400080FF1F00E400E018ED00E01D
:1047D00070B52B4D2D6805F001051DB1294D2A4EF0
:1047E000356002E0294D284E3560294D2D7805F0C1
:1047F0000700062840D2DFE800F003080C11151A64
:10480000214D2D68234E356037E0234D214E356014
:1048100033E04FF400451F4E35602EE01E4D1D4E17
:1048200035602AE04FF400451A4E356025E0184DFA
:10483000DA352D68C5F30822154D263DD5F800510F
:104840002B0F134DDA352D6805F01F04104D263D52
:10485000D5F8005105F080050DB90F4901E00A4D6A
:104860002968651CB1FBF5F5561C75435E1CB5FB4C
:10487000F6F5084E356000E000BF00BF70BD0000D7
:10488000840601400024F4000480FF1F002D310144
:10489000264005400080FF1F00127A0000B5064840
:1048A000006840F4700004490860FFF791FF0020A1
:1048B00001498039086000BD88ED00E02DE9FF4125
:1048C000064601210220FDF7D1FF4FF480700090D1
:1048D0003020019000200290019808B9072410E0D0
:1048E0000198102801D105240BE00198202805D05B
:1048F0000198302802D00198402801D1032400E01B
:104900000224019801090120884085B27019401ED7
:10491000B0FBF5F0001B87B2ADF80C706A460121C0
:10492000074800F0C7F801221146054800F066F874
:1049300001221146024800F005F8BDE8FF810000A1
:104940000044024070B504460D46164600BF1A48A2
:10495000844202D01948844200D104E040F216217A
:1049600017A0FCF7A9FE00BF00BF0DB1012D00D1BB
:1049700004E040F2172112A0FCF79EFE00BF00BF2A
:104980000EB1012E00D104E04FF406710CA0FCF72B
:1049900093FE00BF012E06D120692A01B103914088
:1049A0000843206106E020692A014FF480419140CC
:1049B0008843206170BD0000004002400044024076
:1049C0002E2E2F2E2E2F2E2E2F2E2E2F2E2E2F2E02
:1049D0002E2F647269766572732F686333325F6C51
:1049E0006C5F6472697665722F7372632F686333CC
:1049F000325F6C6C5F746D72302E630070B504466C
:104A00000D46164600BF1A48844202D01948844217
:104A100000D104E04FF4F27117A0FCF74DFE00BF87
:104A200000BF0DB1012D00D104E040F2E51112A04C
:104A3000FCF742FE00BF00BF0EB1012E00D104E022
:104A40004FF4F3710CA0FCF737FE00BF012E06D126
:104A500020692A01310391400843206106E0206962
:104A60002A014FF4805191408843206170BD0000BD
:104A700000400240004402402E2E2F2E2E2F2E2EBC
:104A80002F2E2E2F2E2E2F2E2E2F647269766572CA
:104A9000732F686333325F6C6C5F64726976657222
:104AA0002F7372632F686333325F6C6C5F746D7247
:104AB000302E63002DE9F04706460D4614464FF0B0
:104AC000000914B96FF002097FE000BF4048864238
:104AD00002D04048864200D103E0C3213EA0FCF74B
:104AE000EBFD00BF00BF0DB1012D00D103E0C421DB
:104AF00039A0FCF7E1FD00BF00BF206858B1206875
:104B0000B0F5007F07D02068B0F5807F03D0206823
:104B1000B0F5A06F00D103E0C5212FA0FCF7CCFDBC
:104B200000BF00BF6068E8B1606810281AD06068F4
:104B3000202817D06068302814D06068402811D031
:104B4000606850280ED0606860280BD060687028BC
:104B500008D06068802805D06068902802D060681E
:104B6000A02800D103E0C6211BA0FCF7A5FD00BFD3
:104B700000BFA06820B148F20201A068884200D1BD
:104B800003E0C72114A0FCF797FD00BF06EB8507E3
:104B90000020386006F1080000EB8508A089C8F8FD
:104BA000000030692A0148F2F27191408843D4E94B
:104BB00000121143A26811432A0191402B0148F2CF
:104BC000F2729A401140084330614846BDE8F087D0
:104BD00000400240004402402E2E2F2E2E2F2E2E5B
:104BE0002F2E2E2F2E2E2F2E2E2F64726976657269
:104BF000732F686333325F6C6C5F647269766572C1
:104C00002F7372632F686333325F6C6C5F746D72E5
:104C1000302E63002DE9F04704464FF0080900BF2D
:104C2000264884420ED0264884420BD02548844230
:104C300008D02548844205D02448844202D0244824
:104C4000844200D104E04FF4427122A0FCF734FD0D
:104C500000BF022084F88000002084F881002080BA
:104C60004FF6FF70A08004F5807704F5A07800254A
:104C70000EE004F1400000EB85064FF6FF70308037
:104C80000020690027F81100690028F811006D1C48
:104C90004D45EED300208434A0812082A082208361
:104CA0002080A0802081A087A4F84400A4F84C00B4
:104CB000A4F85400843CBDE8F08700000050014097
:104CC0000054014000580140005C01400060014078
:104CD000006401402E2E5C2E2E5C2E2E5C2E2E5C4F
:104CE0002E2E5C2E2E5C647269766572735C68632E
:104CF00033325F6C6C5F6472697665725C73726389
:104D00005C686333325F6C6C5F746D72612E63003C
:104D100010B5044600BF0D4884420ED00C488442B2
:104D20000BD00C48844208D00B48844205D00B4875
:104D3000844202D00A48844200D104E040F2733138
:104D400008A0FCF7B9FC00BF208810BD005001404E
:104D50000054014000580140005C014000600140E7
:104D6000006401402E2E5C2E2E5C2E2E5C2E2E5CBE
:104D70002E2E5C2E2E5C647269766572735C68639D
:104D800033325F6C6C5F6472697665725C737263F8
:104D90005C686333325F6C6C5F746D72612E6300AC
:104DA00070B505460C466FF0020600BF53488542B9
:104DB0000ED0534885420BD05248854208D0524805
:104DC000854205D05148854202D05148854200D1E4
:104DD00004E04FF48B714FA0FCF76EFC00BF002C79
:104DE00077D000BF207810B12078012800D104E0EE
:104DF0004FF48C7147A0FCF75FFC00BF20780028BF
:104E000049D100BFA07810B1A078042800D104E0F7
:104E100040F21B113FA0FCF74FFC00BF00BFE07841
:104E200010B1E078022800D104E04FF48E7139A06F
:104E3000FCF742FC00BF00BF6078E8B16078102842
:104E40001AD06078202817D06078302814D0607885
:104E5000402811D0607850280ED0607860280BD0A0
:104E60006078702808D06078802805D06078902815
:104E700002D06078A02800D104E040F21D1125A0E6
:104E8000FCF71AFC00BFA078E1780843617808437A
:104E900085F880002AE000BFA08828B1A08841F6EC
:104EA000FF710843884201D0A08800B904E040F2B5
:104EB000231118A0FCF700FC00BF00BFE08828B158
:104EC000E08841F6FF710843884201D0E08808B9C4
:104ED00005E010E040F225110EA0FCF7EDFB00BF4D
:104EE000A088A5F88800E088A5F88C002846A1686D
:104EF00000F078F80026304670BD000000500140F8
:104F00000054014000580140005C01400060014035
:104F1000006401402E2E5C2E2E5C2E2E5C2E2E5C0C
:104F20002E2E5C2E2E5C647269766572735C6863EB
:104F300033325F6C6C5F6472697665725C73726346
:104F40005C686333325F6C6C5F746D72612E6300FA
:104F500070B504460D4600BF0D4884420ED00D4882
:104F600084420BD00C48844208D00C48844205D0BF
:104F70000B48844202D00B48844200D104E04FF435
:104F8000597109A0FCF798FB00BF258070BD000097
:104F9000005001400054014000580140005C0140B5
:104FA00000600140006401402E2E5C2E2E5C2E2EEF
:104FB0005C2E2E5C2E2E5C2E2E5C647269766572E1
:104FC000735C686333325F6C6C5F647269766572C0
:104FD0005C7372635C686333325F6C6C5F746D72B8
:104FE000612E630070B504460D4600BF0D48844233
:104FF0000ED00D4884420BD00C48844208D00C4897
:10500000844205D00B48844202D00B48844200D130
:1050100004E04FF4517109A0FCF74EFB00BFA580DE
:1050200070BD000000500140005401400058014094
:10503000005C014000600140006401402E2E5C2EA7
:105040002E5C2E2E5C2E2E5C2E2E5C2E2E5C647220
:1050500069766572735C686333325F6C6C5F64722F
:10506000697665725C7372635C686333325F6C6C23
:105070005F746D72612E630010B5044600BF104866
:1050800084420ED00F4884420BD00F48844208D08F
:105090000E48844205D00E48844202D00D48844216
:1050A00000D104E040F256410BA0FCF705FB00BF25
:1050B00094F8800040F0010084F8800010BD0000EA
:1050C000005001400054014000580140005C014084
:1050D00000600140006401402E2E5C2E2E5C2E2EBE
:1050E0005C2E2E5C2E2E5C2E2E5C647269766572B0
:1050F000735C686333325F6C6C5F6472697665728F
:105100005C7372635C686333325F6C6C5F746D7286
:10511000612E630001466FF0020061B100220A7047
:105120004A7000238B700223CB708A800023CB80CF
:10513000020C8A600020704710B50122402104480B
:1051400000F0C6F901210348FCF726FC10BD000061
:10515000001402400034054010B5012240210448EB
:1051600000F0B6F902210348FCF716FC10BD000060
:1051700000D40140003405402DE9F34F2DED088B9C
:1051800089B08A4601200290801E019000BF8B49A1
:10519000119888420BD08A491198884207D08949D2
:1051A0001198884203D088491198884200D104E0C0
:1051B0004FF4A77185A0FCF77FFA00BFDAF8004032
:1051C000DAF80480002C7CD0B8F1000FFBD01198E5
:1051D000C068C0F3C0394FEAC800C9F102014843B2
:1051E000B4FBF0F0471EFF2F13D8CAF808704FEA3F
:1051F000C800C9F102014843B4FBF0F100FB1140C3
:105200000390039830B99FED810A8AED040A0020CB
:1052100001907AE00022D9F1020362EB02004FF024
:10522000080CA3FB0C1E00FB0CE003FB0202002099
:105230004FF0010C17EB0C0C40410B46A3FB0C1E6E
:1052400002FB0CE203FB00200022A1FB083C00FB58
:1052500008C001FB0200CDE90630DDE906210802A5
:1052600040EA12601102CDE90610002040084FEA22
:105270003403DDE906125D1840EB02060020D5F18B
:10528000FF31B04108D22246002328463146FBF7C1
:1052900033F8A0F1800B03E0B5FBF4F0A0F1800B34
:1052A000BBF17F0F2FD8CAF80CB0DDE906560020FD
:1052B00080221BEB020240EB00030021A2FB040C46
:1052C00000E062E003FB04C302FB0131CDE904010D
:1052D00028463146FBF774F841EC1A0BDDE904016E
:1052E000FBF76EF853EC1A2BFBF79AF8FBF707F96C
:1052F00000EE100AF7EE000A30EE608A8AED048AAA
:105300000020019001E0002002900298E8BB4FEAE3
:10531000C800C9F10201484304EB84014900B1FB14
:10532000F0F0401D0A21B0FBF1F0471EFF2F3FD8DF
:10533000CAF80870002108460B46D9F1020C60EB50
:10534000030008230022ACFB031E00FB03E00CFB60
:10535000020200204FF0010C17EB0C0C40410B46F1
:10536000A3FB0C1E02FB0CE203FB00220023A1FBAB
:10537000085C02FB08C201FB032628463146FBF706
:105380001FF841EC1A0B204600E011E0FBF70BF888
:1053900053EC1A2BFBF744F8FBF7B1F800EE100AB8
:1053A000F7EE000A30EE608A8AED048A0020019050
:1053B000019809B0BDEC088BBDE8FC8F00D001401E
:1053C00000D4014000100240001402402E2E2F2E67
:1053D0002E2F2E2E2F2E2E2F2E2E2F2E2E2F64726E
:1053E00069766572732F686333325F6C6C5F6472C9
:1053F000697665722F7372632F686333325F6C6CEA
:105400005F75736172742E6300000000000000007D
:1054100070B504460D4600BF1848844208D01848AD
:10542000844205D01748844202D01748844200D1F4
:1054300004E04FF4806115A0FCF73EF900BF00BF07
:105440002DB1224828432149884200D104E040F28E
:1054500001410EA0FCF730F900BF05F00B0028B1A8
:10546000E06805F00B0140EA0140E06005F480705F
:1054700018B1E06840F48010E06070BD00D00140D9
:1054800000D4014000100240001402402E2E2F2EA6
:105490002E2F2E2E2F2E2E2F2E2E2F2E2E2F6472AD
:1054A00069766572732F686333325F6C6C5F647208
:1054B000697665722F7372632F686333325F6C6C29
:1054C0005F75736172742E6300000000EB010100D0
:1054D0002DE9F04104460D46164600BF1B488442A4
:1054E00008D01B48844205D01A48844202D01A488A
:1054F000844200D104E040F2BB3118A0FCF7DCF894
:1055000000BF00BF0EB1012E00D104E04FF46F7157
:1055100012A0FCF7D1F800BF00BF25B145F0EF00A5
:10552000EF2800D104E040F2BD310CA0FCF7C4F834
:1055300000BFAFB247B1012E03D1E0683843E0604D
:1055400002E0E068B843E060BDE8F08100D00140CF
:1055500000D4014000100240001402402E2E2F2ED5
:105560002E2F2E2E2F2E2E2F2E2E2F2E2E2F6472DC
:1055700069766572732F686333325F6C6C5F647237
:10558000697665722F7372632F686333325F6C6C58
:105590005F75736172742E63000000000146044A57
:1055A000126AC2F30213034A126822FA03F0704728
:1055B000004005400080FF1F70B504460D4600BF47
:1055C0001348844208D01348844205D012488442CC
:1055D00002D01248844200D104E040F2EF3110A022
:1055E000FCF76AF800BF00BF2DB11D4828431C49D5
:1055F000884200D104E04FF47C7109A0FCF75CF80C
:1056000000BF2068284008B1012070BD0020FCE7E1
:1056100000D0014000D401400010024000140240BC
:105620002E2E2F2E2E2F2E2E2F2E2E2F2E2E2F2E95
:105630002E2F647269766572732F686333325F6CE4
:105640006C5F6472697665722F7372632F6863335F
:10565000325F6C6C5F75736172742E6300000000C2
:10566000EB0101002DE9F041044600BF10488442DF
:1056700008D01048844205D00F48844202D00F4819
:10568000844200D104E040F249210DA0FCF714F857
:1056900000BF2046FFF782FF0746A0698007410F41
:1056A000012000FA01F5B7FBF5F63046BDE8F081C0
:1056B00000D0014000D4014000100240001402401C
:1056C0002E2E2F2E2E2F2E2E2F2E2E2F2E2E2F2EF5
:1056D0002E2F647269766572732F686333325F6C44
:1056E0006C5F6472697665722F7372632F686333BF
:1056F000325F6C6C5F75736172742E630000000022
:1057000010B5044600BF0A48844208D009488442C4
:1057100005D00948844202D00848844200D104E000
:1057200040F2725106A0FBF7C7FF00BFE08810BD32
:1057300000D0014000D4014000100240001402409B
:105740002E2E2F2E2E2F2E2E2F2E2E2F2E2E2F2E74
:105750002E2F647269766572732F686333325F6CC3
:105760006C5F6472697665722F7372632F6863333E
:10577000325F6C6C5F75736172742E6300000000A1
:1057800010B50448FFF7BCFF0B210248FFF740FEAD
:1057900010BD00000014024010B50448FFF7B0FF30
:1057A0000B210248FFF734FE10BD000000D4014079
:1057B00010B50F480078012810D001200C4908705E
:1057C00000210C48FCF74AFAC0F5FA700A49088033
:1057D00000BF01200949086000BF00BF012108483F
:1057E00000F0D4F84FF480710648FFF711FE10BDA9
:1057F0001480FF1F003005401680FF1F000021426B
:10580000004402400014024010B50C480078012802
:105810000AD001200949087001210948FCF71EFA45
:10582000C0F5FA70074908800121074800F0CEF85A
:105830004FF480710548FFF7EBFD10BD1A80FF1F84
:10584000003005401680FF1F0040024000D4014098
:105850002DE9F04186B004460E46174600BF06B15A
:1058600004E040F2A95134A0FBF726FF00BF00BFBF
:105870004148844208D04148844205D0404884428F
:1058800002D04048844200D104E040F2AA512AA04C
:10589000FBF712FF00BF00BFE06800F00C0000B98A
:1058A00004E040F2AB5124A0FBF706FF00BF204606
:1058B000FFF7D8FE019002969FED330A8DED050AA1
:1058C000FF200490E06800F08078B8F1000F0FD15D
:1058D000606900F0200028B901A92046FFF74CFCC0
:1058E00005460AE001A92046FEF7CAFD054604E088
:1058F00001A92046FBF7CEFD05469DB9DDE9031061
:1059000040EA01204FF67F710840A1684FF67F7290
:1059100091430843A0600498FF2803D0E06840F05A
:105920000050E0601FB19DED050A87ED000A284692
:1059300006B0BDE8F08100002E2E2F2E2E2F2E2E29
:105940002F2E2E2F2E2E2F2E2E2F647269766572FB
:10595000732F686333325F6C6C5F64726976657253
:105960002F7372632F686333325F6C6C5F75736182
:1059700072742E630000000000D0014000D401408A
:1059800000100240001402400000000070B50B46F9
:105990001A014FF4407505FA02F14FF4007505FA4B
:1059A00002F405698D4304EA01063543056140F2BE
:1059B000013505FA02F14FF4807505FA02F4056924
:1059C0008D4304EA01063543056170BD70B50B4691
:1059D0001A014FF4407505FA02F14FF4007505FA0B
:1059E00002F405698D4304EA01063543056140F27E
:1059F000013505FA02F14FF4807505FA02F40569E4
:105A00008D4304EA01063543056170BD10B50022DF
:105A100048210248FFF75CFD10BD00000014024061
:105A200010B5002248210248FFF752FD10BD0000CA
:105A300000D401402DE9F04705460C4690466FF032
:105A4000020A002C73D000BF6748854208D067481F
:105A5000854205D06648854202D06648854200D11D
:105A600004E040F22D3164A0FBF726FE00BF00BF2A
:105A70002068B0F5805F01D0206800B904E040F2F2
:105A80002E315DA0FBF718FE00BF00BFA068B0F587
:105A9000006F01D0A06800B904E040F22F3156A099
:105AA000FBF70AFE00BF00BFA069B0F5C06F05D0CC
:105AB000A069B0F5806F01D0A06900B904E04FF48F
:105AC0004C714DA0FBF7F8FD00BF00BF206918B175
:105AD0002069B0F5805F00D104E040F2313146A08A
