:020000040000FA
:1000000030A8FF1F95020000CD020000CF020000C3
:10001000D1020000D3020000D50200000000000061
:10002000000000000000000000000000D7020000F7
:10003000D902000000000000DB020000DD02000029
:10004000492900005D290000712900008529000070
:1000500099290000AD290000C1290000D529000020
:10006000E9290000FD290000112A0000252A0000CE
:10007000392A00004D2A0000612A0000752A00007C
:10008000892A00009D2A0000B12A0000C52A00002C
:10009000D92A0000ED2A0000012B0000152B0000DA
:1000A000292B00003D2B0000512B0000652B000088
:1000B000792B00008D2B0000A12B0000B52B000038
:1000C000C92B0000DD2B0000F12B0000052C0000E7
:1000D000192C00002D2C0000412C0000552C000094
:1000E000692C00007D2C0000912C0000A52C000044
:1000F000B92C0000CD2C0000E12C0000F52C0000F4
:10010000092D00001D2D0000312D0000452D00009F
:10011000592D00006D2D0000812D0000952D00004F
:10012000A92D0000BD2D0000D12D0000E52D0000FF
:10013000F92D00000D2E0000212E0000352E0000AC
:10014000492E00005D2E0000712E0000852E00005B
:10015000992E0000AD2E0000C12E0000D52E00000B
:10016000E92E0000FD2E0000112F0000252F0000B9
:10017000392F00004D2F0000612F0000752F000067
:10018000892F00009D2F0000B12F0000C52F000017
:10019000D92F0000ED2F00000130000015300000C5
:1001A000293000003D300000513000006530000073
:1001B000793000008D300000A1300000B530000023
:1001C000C9300000DD300000F130000005310000D2
:1001D000193100002D31000041310000553100007F
:1001E000693100007D31000091310000A53100002F
:1001F000B9310000CD310000E1310000F5310000DF
:10020000093200001D32000031320000453200008A
:10021000593200006D32000081320000953200003A
:10022000A9320000BD320000D1320000E5320000EA
:10023000F93200000D330000213300003533000097
:10024000DF020000DF020000DF020000DF0200002A
:10025000DF020000DF020000DF020000DF0200001A
:10026000DF020000DF020000DF020000DF0200000A
:10027000DF020000DF020000DF020000DF020000FA
:10028000DFF80CD000F0E0F9004800472D4D0000E9
:1002900030A8FF1F12484FF01F01016011484FF0B6
:1002A0007701016010484FF0770101600F484FF46B
:1002B000885101600B484FF0760101600A484FF009
:1002C000760101600A4880470A480047FEE7FEE7DA
:1002D000FEE7FEE7FEE7FEE7FEE7FEE7FEE7FEE7F6
:1002E00010080540040805400C08054000080540BA
:1002F000F13D0000810200002DE9F05F054600207D
:1003000092469B4688460646814640241BE0284686
:1003100041464746224600F0F2F853465A46C01A74
:10032000914110D311461846224600F04BF82D1A81
:1003300067EB01084F4622460120002100F042F8F9
:1003400017EB00094E41201EA4F10104DFDC4846F2
:1003500031462A464346BDE8F09F0EB540F2334190
:1003600002910021CDE900110A460B4600F01DF96B
:1003700003B000BD0EB540F2334202920022CDE937
:100380000022134600F011F903B000BD01F0004354
:1003900030B421F0004150EA010206D00A0DA2F566
:1003A0006072C1F31301002A02DC30BC00207047E8
:1003B000440F44EAC104C100E01830BC00EBC25055
:1003C00000F0ADB8202A04DB203A00FA02F1002048
:1003D00070479140C2F1200320FA03F31943904083
:1003E000704770B504460D462946204603F02AF9A9
:1003F00003F098FC70BD00BFFEE7704700000000EE
:10040000BFFFDFFFFFFEFFFFFFFFFFFFFFFFFFFF5D
:10041000FFFFFFFFFFFFFFFFFFFFFFFFFFFFFFFFEC
:100420002DE9F04D81EA030404F0004B21F0004572
:1004300014464FF0000A23F0004150EA050220D094
:1004400054EA01021DD0C5F30A570246C5F313034F
:10045000C1F31300C1F30A5640F4801543F480132E
:10046000A7EB0608101BD64608F2FD3873EB050013
:1004700002D308F1010801E092185B41B8F1000FC6
:1004800003DA00200146BDE8F08D00204FF4801112
:10049000064684460EE0171B73EB050705D3121BB7
:1004A00063EB050306434CEA010C49084FEA3000B0
:1004B00092185B4150EA0107EDD152EA030012D0D5
:1004C00082EA040083EA0501084305D0101BAB4112
:1004D00006D20122002306E000224FF0004302E092
:1004E0006FF0010253101AEB06004CEB085110EBB1
:1004F0000A0041EB0B01BDE8F04D00F047B8202A9F
:1005000004DB203A21FA02F00021704721FA02F3BD
:10051000D040C2F12002914008431946704700299B
:10052000A8BF7047401C490008BF20F00100704779
:1005300010B4B0FA80FC00FA0CF050EA010404BFD9
:1005400010BC704749B1CCF1200421FA04F411FA2F
:100550000CF118BF012121430843A3EB0C01CB1D73
:100560004FEA00614FEA102042BF002010BC7047E4
:1005700000EBC35010440029A4BF10BC7047401CBE
:10058000490008BF20F0010010BC704710B5141ED0
:1005900073F1000408DA401C41F1000192185B413C
:1005A0001A4301D120F0010010BD2DE9F04D924613
:1005B0009B4611B1B1FA81F202E0B0FA80F220322A
:1005C0009046FFF7FFFE04460F4640EA0A0041EA64
:1005D0000B0153465A46084313D0114653EA010013
:1005E00019D0C8F140025046FFF789FF05460E4674
:1005F000504659464246FFF7E5FE084305D0012024
:1006000004E020463946BDE8F08D0020054346EA67
:10061000E0762C4337430A986305E40AA0EB080010
:100620000022FD0A44EA47540A3002D50020014660
:10063000E9E7010510196941DDE90845001969413B
:10064000BDE8F04DA2E70000064C074D06E0E0686B
:1006500040F0010394E8070098471034AC42F6D309
:10066000FFF712FE544F0000744F000070B50446AF
:100670000D4600BF0A48844207D3094868308442C7
:1006800003D804F0030000B903E08F2105A0FFF7B1
:10069000B2FE00BF206865F30800206070BD000056
:1006A000040801402E2E2F2E2E2F2E2E2F2E2E2FD1
:1006B0002E2E2F2E2E2F647269766572732F68632B
:1006C00033325F6C6C5F6472697665722F7372632C
:1006D0002F686333325F6C6C5F616F732E63000051
:1006E0001FB501220321052001F0E8FD02A800F05A
:1006F0008DFC684600F02CFB2F493048FFF771FE57
:1007000000208DF80A0030208DF8090000208DF8B7
:10071000080005208DF80C0002A800F0CDFB002099
:100720000190019820F01F0001903121019861F3A0
:1007300010200190019820F0704000F1805001904D
:10074000019820F0706000F180700190019820F411
:10075000700000F58010019000208DF800000198D5
:1007600020F080000190684600F098F900BF20203A
:1007700000F0F0F80128FAD100221146042002F01E
:10078000E5FE012211460B2002F0E0FE502001F0B0
:100790000FFC4FF4404002F01FF802F061FE05200C
:1007A00000F0FFFA012001F0C5FB002001F0C2FBC0
:1007B000012001F081FB1FBD102211007777770720
:1007C00010B50848006840F400600649086000BFA2
:1007D0000221012001F0ECFE0028F9D0022001F0F6
:1007E0004BFC10BD1880FF1F10B500BF10480068FB
:1007F00000F0070004460F49486801F057FC012843
:1008000014D100BF0B4A5188107801F0D1FE38B9DD
:100810000120A04008490968084307490860F1E73A
:100820000449486801F028FC00BF00BF10BD00006B
:10083000080C0540D04E00001880FF1F10B500BF07
:100840001048006800F0070004460F49486901F0AD
:100850002DFC012814D100BF0B4A518A107C01F0F5
:10086000A7FE38B91020A040084909680843074985
:100870000860F1E70449486901F0FEFB00BF00BFD2
:1008800010BD0000080C0540D04E00001880FF1F6E
:1008900010B500BF1148006800F007000446104979
:1008A000486A01F003FC012816D100BF0C4A518CA4
:1008B00092F8200001F07CFE40B94FF48070A04017
:1008C00008490968084307490860EFE70449486A8E
:1008D00001F0D2FB00BF00BF10BD0000080C0540B6
:1008E000D04E00001880FF1F10B586B001A801F09F
:1008F000C1FF0220ADF8060000240BE0074A02EB1E
:1009000084025188054A12F8240001AA01F048FD2A
:10091000601CC4B2042CF1D306B010BDB44E00006C
:1009200070B5054600240FE045FA04F000F0010020
:1009300040B1074A02EB84025188054A12F82400AC
:1009400001F000FF601CC4B2042CEDD370BD0000A8
:10095000B44E000010B5044600BF24B144F0690055
:10096000692800D104E040F28B5106A0FFF743FD57
:1009700000BF13480078204008B1012010BD0020BE
:10098000FCE700002E2E2F2E2E2F2E2E2F2E2E2F58
:100990002E2E2F2E2E2F647269766572732F686348
:1009A00033325F6C6C5F6472697665722F73726349
:1009B0002F686333325F6C6C5F636C6B2E63000077
:1009C0003C40054070B50446002500BF0CB1012C29
:1009D00000D104E040F2E5411FA0FFF70CFD00BF8D
:1009E00000BF2C48008800F0010000B104E040F294
:1009F000E64119A0FFF7FFFC00BF64B92648007864
:100A000000F00700052801D1C54322E0012022495A
:100A1000091D08701DE02048DA300068C0F3C010DE
:100A200030B94FF48051082000F0C3F9054605E0C5
:100A30004FF48051012000F0BCF905464DB900206B
:100A40001549091D08704FF48051202000F0B1F9BC
:100A50000546284670BD00002E2E2F2E2E2F2E2E3E
:100A60002F2E2E2F2E2E2F2E2E2F6472697665722A
:100A7000732F686333325F6C6C5F64726976657282
:100A80002F7372632F686333325F6C6C5F636C6BC0
:100A90002E630000FE430540264005402DE9F0414D
:100AA000044614B96FF002061FE100BF2079C0F3BD
:100AB000C01018B12079C0F3C01000B104E04FF4A9
:100AC00097618BA0FFF797FC00BF00BF207900F073
:100AD0001F00401C182805D8207900F01F00401C7A
:100AE00000B104E040F2B94181A0FFF784FC00BFEF
:100AF00000BF6068C0F30820401CB0F5F07F06D846
:100B00006068C0F30820401C142800D304E040F2C1
:100B1000BA4177A0FFF76FFC00BF00BF01216068FA
:100B200001EB1070102805D8606801EB10700228E6
:100B300000D304E040F2BB416DA0FFF75CFC00BFB6
:100B40002079C0F3C01008B9784901E078480168FD
:100B5000207900F01F00401CB1FBF0F76068C0F383
:100B60000820401C00FB07F500BF7248874203D8ED
:100B70007148874200D304E04FF498615CA0FFF70E
:100B80003AFC00BF00BF6D48854203D84010854243
:100B900000D304E040F2C14155A0FFF72CFC00BF98
:100BA00000BF0121606801EB1070B5FBF0F06449F3
:100BB000884209D80121606801EB1070B5FBF0F0A4
:100BC0006049884200D304E040F2C24148A0FFF7E8
:100BD00012FC00BF00BF6068C0F30360401C102817
:100BE00006D86068C0F30360401C022800D304E00C
:100BF00040F2C3413EA0FFF7FEFB00BF00BF6068AC
:100C0000C0F30350401C102806D86068C0F303509E
:100C1000401C022800D304E040F2C44134A0FFF796
:100C2000EAFB00BF00BF6068C0F30350401CB5FB87
:100C3000F0F04349884209D86068C0F30350401C73
:100C4000B5FBF0F03F49884200D304E040F2C541D3
:100C500027A0FFF7D0FB00BF00BF6068C0F30360B0
:100C6000401CB5FBF0F03649884209D86068C0F3F3
:100C70000360401CB5FBF0F03249884200D304E029
:100C800040F2C6411AA0FFF7B6FB00BF00BF2078B4
:100C9000012801D0207800B904E04FF4996114A034
:100CA000FFF7A9FB00BF00BF2748008800F0010044
:100CB00000B104E040F2C9410DA0FFF79CFB00BF6A
:100CC0002079C1092148006861F3C7101F490860F5
:100CD00060680860207820B90120FFF773FE06469F
:100CE00003E00020FFF76EFE06463046BDE8F081C7
:100CF0002E2E2F2E2E2F2E2E2F2E2E2F2E2E2F2E0F
:100D00002E2F647269766572732F686333325F6C5D
:100D10006C5F6472697665722F7372632F686333D8
:100D2000325F6C6C5F636C6B2E63000000127A00A4
:100D30000480FF1F40787D0140420F0000389C1C5A
:100D400000C2EB0BC0E1E400FE430540004105405A
:100D50000146002009B9C01E22E000224A604A680C
:100D600022F080024A604A6822F01F024A60132380
:100D70004A6863F310224A604A6822F0704202F126
:100D800080524A604A6822F0706202F180724A60C2
:100D90004A6822F4700202F580124A6001220A7049
:100DA000704710B50446204602F0EAFD02F0BAFF93
:100DB00010BDF8B505460C46002000906FF0070600
:100DC00009E02846FFF7C6FD012801D1002605E00D
:100DD0000098401C00900098A042F2D900BF304615
:100DE000F8BD000070B50446002500BF0CB1012C11
:100DF00000D104E04FF467711EA0FFF7FCFA00BFBA
:100E000000BF2B48008800F0010000B104E040F270
:100E10009D3118A0FFF7EFFA00BFFCB92548007814
:100E200000F00700032802D16FF0050520E02148FB
:100E3000DA300068C0F3C01058B91E48001D0078B1
:100E400010B96FF0050513E001201A490C31087044
:100E50000EE0012017490C31087009E00020154907
:100E60000C3108704FF480510820FFF7A2FF0546AF
:100E7000284670BD2E2E2F2E2E2F2E2E2F2E2E2FAB
:100E80002E2E2F2E2E2F647269766572732F686353
:100E900033325F6C6C5F6472697665722F73726354
:100EA0002F686333325F6C6C5F636C6B2E63000082
:100EB000FE4305402640054070B5044614B96FF066
:100EC00002057FE000BF2078012801D0207800B91A
:100ED00004E04FF45F713CA0FFF78DFA00BF00BF44
:100EE000607840B16078102805D06078202802D062
:100EF0006078302800D104E040F27D3132A0FFF765
:100F00007AFA00BF00BFA07810B1A078402800D1C5
:100F100004E040F27E312CA0FFF76DFA00BF00BF65
:100F2000E078802801D0E07800B904E040F27F3119
:100F300025A0FFF760FA00BF00BF2079012817D075
:100F40002079022814D02079032811D02079042890
:100F50000ED0207905280BD02079062808D02079DA
:100F6000072805D02079082802D02079092800D147
:100F700004E04FF4607114A0FFF73DFA00BF00BF1A
:100F80002048008800F0010000B104E040F2813107
:100F90000DA0FFF730FA00BF20791B490870E078F8
:100FA00061780843A1780843164912310870207807
:100FB00020B90120FFF716FF054603E00020FFF7E8
:100FC00011FF0546284670BD2E2E2F2E2E2F2E2EB9
:100FD0002F2E2E2F2E2E2F2E2E2F647269766572B5
:100FE000732F686333325F6C6C5F6472697665720D
:100FF0002F7372632F686333325F6C6C5F636C6B4B
:101000002E630000FE430540A2400540014600203B
:1010100009B9C01E08E001220A7000228A704A70D5
:101020008022CA7005220A71704700002DE9F04F36
:101030002DED088B89B08346894601200490801EDF
:10104000039000BF6D48834508D06D48834505D0A7
:101050006C48834502D06C48834500D104E040F2DF
:10106000A5116AA0FFF7C7F900BFD9F80040D9F869
:101070000460002C7CD0002EFCD0B000B4FBF0F05B
:10108000451EFF2D77D8C9F80850B000B4FBF0F129
:1010900000FB11400590059830B99FED6C0A89ED71
:1010A000040A0020039066E000206A1C40EB000C5C
:1010B00004230021A2FB030E0CFB03E302FB01321D
:1010C000A0FB067302FB063200FB01284FF480717F
:1010D0000022A7FB01C308FB013107FB02105208E5
:1010E0004FEA34031CEB0301504122460023CDE9B3
:1010F000001008460199FFF7FFF88021B0EB010AC4
:10110000BAF17F0F35D8C9F80CA0490000203A4643
:10111000A2FB01CE08FB01E107FB00186746802116
:101120001AEB010240EB00030021A2FB040C03FBBD
:1011300004C302FB0131CDE9060138464146FFF701
:1011400019F941EC1A0BDDE90601FFF713F953EC2D
:101150001A2BFFF765F9FFF719F900EE100AF7EE01
:10116000000A30EE608A89ED048A0020039002E0D4
:101170003EE0002004900498D0BB04EB84004000C3
:10118000B100B0FBF1F0401D0A21B0FBF1F0451EAB
:10119000FF2D2DD8C9F8085000206B1C40410421B8
:1011A0004FF0000CA3FB012E00FB01E003FB0C0140
:1011B0006346A2FB067C01FB06C102FB031838460E
:1011C0004146FFF7D7F841EC1A0B2046FFF7C5F868
:1011D00053EC1A2BFFF724F9FFF7D8F800EE100AAA
:1011E000F7EE000A30EE608A89ED048A0020039051
:1011F000039809B0BDEC088BBDE8F08F00D001402A
:1012000000D4014000100240001402402E2E2F2E68
:101210002E2F2E2E2F2E2E2F2E2E2F2E2E2F64726F
:1012200069766572732F686333325F6C6C5F6472CA
:10123000697665722F7372632F686333325F6C6CEB
:101240005F75736172742E6300000000000000007F
:1012500008B50D49096AC1F302630C490968D94010
:1012600041F270731944491EB1FBF3F206E000929B
:1012700000BF00994B1E00930029FAD1011EA0F176
:101280000100F4D108BD0000004005400080FF1FB0
:1012900008B50C49096AC1F302630B490968D940D2
:1012A0000A4B1944491EB1FBF3F206E0009200BF5D
:1012B00000994B1E00930029FAD1011EA0F10100F4
:1012C000F4D108BD004005400080FF1F808D5B0009
:1012D0002DE9F04704460D469146002700BF6E48B1
:1012E000844202D06D48844200D104E040F27B1178
:1012F0006BA0FFF780F800BF00BF032D00D804E00B
:101300004FF4BE7166A0FFF776F800BF00BFB9F1D9
:10131000000F02D0B9F1010F00D104E040F27D11BD
:101320005FA0FFF768F800BF6C48007800287DD107
:1013300001206A490870E0690121A94020EA010AF8
:10134000BAF1000F73D0E06900F00100D8B1D5B157
:10135000A06C4FEA1048A06E060C0A2E13D8464522
:1013600011D20BE0781C87B2B7F5A04F06D9002048
:101370005A4908706FF00700BDE8F087E06900F097
:1013800001000028EED1E06900F0020002281ED121
:10139000012D1CD0D4F888004FEA1048D4F8A800DA
:1013A000060C0A2E13D8464511D200270AE0781CF5
:1013B00087B2B7F5A04F05D90020484908706FF0F3
:1013C0000700D9E7E06900F002000028EFD1E069EA
:1013D00000F0040004281ED1022D1CD00027D4F8F0
:1013E000C8004FEA1048D4F8E800060C0A2E12D8BC
:1013F000464510D20AE0781C87B2B7F5A04F05D950
:101400000020364908706FF00700B5E7E06900F08A
:1014100004000028EFD1E06900F00800082821D17D
:10142000032D1FD00027D4F8080101E030E019E0B7
:101430004FEA1048D4F82801060C0A2E12D8464567
:1014400010D20AE0781C87B2B7F5A04F05D900206A
:10145000224908706FF007008EE7E06900F008008D
:101460000028EFD1B9F1010F07D1E1690120A840AF
:1014700000F00F000143E16106E0E0690121A940AD
:101480000F228A431040E06100201449087073E77E
:101490004FF0FF3070E70000003005400034054099
:1014A0002E2E2F2E2E2F2E2E2F2E2E2F2E2E2F2E57
:1014B0002E2F647269766572732F686333325F6CA6
:1014C0006C5F6472697665722F7372632F68633321
:1014D000325F6C6C5F646D612E6300001480FF1FCF
:1014E00070B504460D4600BF0E48844202D00E4837
:1014F000844200D104E04FF4B2710CA0FEF77BFFF0
:1015000000BF00BF2DB145F00F10B0F10F1F00D18B
:1015100004E040F2651105A0FEF76DFF00BFA56174
:1015200070BD000000300540003405402E2E2F2EE7
:101530002E2F2E2E2F2E2E2F2E2E2F2E2E2F64724C
:1015400069766572732F686333325F6C6C5F6472A7
:10155000697665722F7372632F686333325F6C6CC8
:101560005F646D612E63000070B504460D4600BFD8
:101570000B48844202D00B48844200D103E0FB2197
:1015800009A0FEF738FF00BF00BF0DB1012D00D14B
:1015900003E0FC2104A0FEF72EFF00BF256070BD14
:1015A00000300540003405402E2E2F2E2E2F2E2EDB
:1015B0002F2E2E2F2E2E2F2E2E2F647269766572CF
:1015C000732F686333325F6C6C5F64726976657227
:1015D0002F7372632F686333325F6C6C5F646D616D
:1015E0002E63000010B58EB00121880300F07CFD51
:1015F0000121C80300F078FD0121480400F074FDCA
:1016000006A800F0F1FB4FF48050069001200A90EC
:101610004FF4FA700B90002009905D4808905D48E7
:10162000079000200C9004200D9006AA00215A4833
:1016300000F006F90446002C62D103A800F068FA15
:101640004FF480600390002004905448059003AA52
:101650000021514800F0D6F95049079808600898D1
:101660004860DDE90A0140EA01404C4988600846CB
:101670008861DDE90C01084309990843069908438C
:1016800003990843049908434449C8610122002191
:10169000414800F091FA01213F4800F043FA40F23E
:1016A0003F113F48FEF7E2FF2020ADF80400002084
:1016B000ADF806003B48029001A801F0EBF8BDF937
:1016C000060003F0F1FABDF906000F2103F00CFB50
:1016D000BDF9060003F0F6FA4FF48E713048203859
:1016E000FEF7C4FF01212C48FFF73EFF01221146FF
:1016F000294800F08BFB012200212748FFF7E8FD75
:1017000006A800F071FB4FF48050069001200A906B
:101710004FF4FA700B90002009901E48801E08902C
:101720001B48079001200C9000200D9006AA002174
:101730001D4800F085F8044634BB2420ADF80400B1
:101740000120ADF806001948029001A801F0A2F8A6
:10175000BDF9060003F0A8FABDF906000F2103F059
:10176000C3FABDF9060003F0ADFA40F21D110C48B2
:101770001038FEF77BFF01210B48FFF7F5FE012231
:101780001146094800F042FB20460EB010BD000093
:101790001C84FF1F06D40140003005401086FF1F47
:1017A000340801401935000000340540694100004B
:1017B00070B504460D4600BF1048844202D0104860
:1017C000844200D104E040F272510EA0FEF713FEF5
:1017D00000BF00BF032D00D804E040F2735109A000
:1017E000FEF709FE00BF04F1680000EB85100068F9
:1017F0004FF6FF7101EA104070BD00000030054057
:10180000003405402E2E2F2E2E2F2E2E2F2E2E2F33
:101810002E2E2F2E2E2F647269766572732F6863B9
:1018200033325F6C6C5F6472697665722F737263BA
:101830002F686333325F6C6C5F646D612E630000F0
:101840002DE9F04106460D4614464FF0000800BF52
:101850005B48864202D05B48864200D104E04FF4E8
:101860006B7159A0FEF7C7FD00BF00BF032D00D864
:1018700004E040F2AD3154A0FEF7BDFD00BF14B945
:101880006FF0020898E000BFE06878B1E068B0F55A
:10189000807F03D1207900F0010038B1E068B0F515
:1018A000007F04D1207900F0030000B904E040F289
:1018B000B23145A0FEF79FFD00BF00BFE06878B1E0
:1018C000E068B0F5807F03D1207A00F0010038B1E4
:1018D000E068B0F5007F04D1207A00F0030000B981
:1018E00004E040F2B33138A0FEF785FD00BF00BF31
:1018F000A06928B1A069012802D0A069022800D1FE
:1019000004E04FF46D7130A0FEF775FD00BF00BF1D
:10191000E06928B1E069042802D0E069082800D114
:1019200004E040F2B53128A0FEF765FD00BF00BF1E
:101930002069B0F5806F00D804E040F2B63122A0F3
:10194000FEF759FD00BF00BF2068B0F5805F01D0F1
:10195000206800B904E040F2B7311BA0FEF74BFD50
:1019600000BF06F1400000EB85106168016006F1E0
:10197000440000EB8510A1680160208AC0F30900D3
:10198000A18A40EA014106F1480000EB85100160A0
:1019900006F15C0000EB8517E16820680843A16947
:1019A0000843E169084341F20F310840396841F2C8
:1019B0000F329143084338604046BDE8F081000093
:1019C00000300540003405402E2E2F2E2E2F2E2EB7
:1019D0002F2E2E2F2E2E2F2E2E2F647269766572AB
:1019E000732F686333325F6C6C5F64726976657203
:1019F0002F7372632F686333325F6C6C5F646D6149
:101A00002E6300002DE9F04106460D4614464FF0C6
:101A1000000800BF2D48864202D02D48864200D1E2
:101A200004E040F26E412BA0FEF7E5FC00BF00BFD2
:101A3000032D00D804E040F26F4126A0FEF7DBFC46
:101A400000BF14B96FF002083DE000BF2068B0F598
:101A5000806F01D0206800B904E040F274411DA0FD
:101A6000FEF7C9FC00BF00BF6068B0F5006F01D091
:101A7000606800B904E040F2754116A0FEF7BBFCB7
:101A800000BF00BF207A00F0030000B904E040F27C
:101A9000764110A0FEF7AFFC00BF06F15C0000EB42
:101AA00085172088A188084300F44060396821F434
:101AB000406108433860A06820F0030106F1580037
:101AC00000EB851001604046BDE8F0810030054024
:101AD000003405402E2E2F2E2E2F2E2E2F2E2E2F61
:101AE0002E2E2F2E2E2F647269766572732F6863E7
:101AF00033325F6C6C5F6472697665722F737263E8
:101B00002F686333325F6C6C5F646D612E6300001D
:101B10000146002009B9C01E03E000220A604A60A5
:101B20008A60704770B504460D4600BF1148844274
:101B300002D01148844200D104E040F2B5410FA028
:101B4000FEF759FC00BF00BF0DB1012D00D104E02C
:101B500040F2B64109A0FEF74EFC00BF012D04D1B2
:101B6000E06A40F00100E06203E0E06A20F001007A
:101B7000E06270BD00300540003405402E2E2F2E4F
:101B80002E2F2E2E2F2E2E2F2E2E2F2E2E2F6472F6
:101B900069766572732F686333325F6C6C5F647251
:101BA000697665722F7372632F686333325F6C6C72
:101BB0005F646D612E63000070B504460E461546E5
:101BC00000BF1748844202D01648844200D104E086
:101BD00040F2C94114A0FEF70EFC00BF00BF032E67
:101BE00000D804E040F2CA410FA0FEF704FC00BF99
:101BF00000BF0DB1012D00D104E040F2CB410AA09D
:101C0000FEF7F9FB00BF300240EA450040F60271E2
:101C10000840E16A40F6027291430843E06270BDF9
:101C200000300540003405402E2E2F2E2E2F2E2E54
:101C30002F2E2E2F2E2E2F2E2E2F64726976657248
:101C4000732F686333325F6C6C5F647269766572A0
:101C50002F7372632F686333325F6C6C5F646D61E6
:101C60002E6300002DE9F04105460C46164600277C
:101C700000BF1A48854202D01948854200D104E0CD
:101C800040F2052117A0FEF7B6FB00BF00BF032CF2
:101C900000D804E040F2062112A0FEF7ACFB00BF22
:101CA00005F1400000EB841006600DE0781C87B25F
:101CB000B7F5805F03D96FF00700BDE8F08105F14B
:101CC000400000EB8410066005F1600000EB84101A
:101CD0000068B042EAD10020EFE700000030054084
:101CE000003405402E2E2F2E2E2F2E2E2F2E2E2F4F
:101CF0002E2E2F2E2E2F647269766572732F6863D5
:101D000033325F6C6C5F6472697665722F737263D5
:101D10002F686333325F6C6C5F646D612E6300000B
:101D20002DE9F04705460C4617464FF0000800BF66
:101D30001C48854202D01C48854200D104E04FF483
:101D400010711AA0FEF757FB00BF00BF032C00D88C
:101D500004E040F2412115A0FEF74DFB00BF05F164
:101D6000480000EB8416306867F31F40306005F1CF
:101D7000680000EB84190EE008F101001FFA80F8FA
:101D8000B8F5805F03D96FF00700BDE8F0873068D1
:101D900067F31F403060D9F80000B7EB104FEBD16C
:101DA0000020F2E700300540003405402E2E2F2E93
:101DB0002E2F2E2E2F2E2E2F2E2E2F2E2E2F6472C4
:101DC00069766572732F686333325F6C6C5F64721F
:101DD000697665722F7372632F686333325F6C6C40
:101DE0005F646D612E6300000146002009B9C01ECA
:101DF0000AE000220A604A608A60CA6001220A6121
:101E000000224A618A61CA617047000070B50446C9
:101E10000D46164600BF1748844202D01648844239
:101E200000D104E040F2411114A0FEF7E4FA00BF33
:101E300000BF2DB145F00F10B0F10F1F00D104E02D
:101E40004FF4A1710DA0FEF7D6FA00BF00BF0EB18E
:101E5000012E00D104E040F2431108A0FEF7CBFAB6
:101E600000BF1EB920692843206102E02069A84311
:101E7000206170BD00300540003405402E2E2F2E0D
:101E80002E2F2E2E2F2E2E2F2E2E2F2E2E2F6472F3
:101E900069766572732F686333325F6C6C5F64724E
:101EA000697665722F7372632F686333325F6C6C6F
:101EB0005F646D612E63000010B5044600BF0CB175
:101EC000012C00D104E040F2711109A0FEF793FA51
:101ED00000BF00BF15480068012800D104E04FF49E
:101EE000B97103A0FEF787FA00BF1148046010BD66
:101EF0002E2E2F2E2E2F2E2E2F2E2E2F2E2E2F2EFD
:101F00002E2F647269766572732F686333325F6C4B
:101F10006C5F6472697665722F7372632F686333C6
:101F2000325F6C6C5F65666D2E63000000040140DB
:101F30004081204210B5044600BF0CB1012C00D1F5
:101F400004E040F2631109A0FEF755FA00BF00BF9C
:101F500015480068012800D104E04FF4B27103A0D5
:101F6000FEF749FA00BF1148046010BD2E2E2F2E37
:101F70002E2F2E2E2F2E2E2F2E2E2F2E2E2F647202
:101F800069766572732F686333325F6C6C5F64725D
:101F9000697665722F7372632F686333325F6C6C7E
:101FA0005F65666D2E630000000401406081204281
:101FB00070B50446002500BF1D480068012800D107
:101FC00004E040F24F111BA0FEF715FA00BF00BF5E
:101FD000F02C00D804E04FF4A87116A0FEF70BFA1D
:101FE00000BF13480830006820F0F00004F0F00152
:101FF00008430F490831086010E06D1C1C48006A56
:10200000C0F302611B480068C84044F62061B0FB81
:10201000F1F0A84202D26FF0070070BD044808300A
:10202000006800F0F000A042E7D10020F5E70000D2
:10203000000401402E2E2F2E2E2F2E2E2F2E2E2F2F
:102040002E2E2F2E2E2F647269766572732F686381
:1020500033325F6C6C5F6472697665722F73726382
:102060002F686333325F6C6C5F65666D2E630000B2
:10207000004005400080FF1F10B5044600BF3CB182
:102080004FF6FF7020434FF6FF71884200D104E005
:1020900040F20F210348FEF7AEF900BF0248846505
:1020A00010BD0000104F00000010054010B50446A0
:1020B00000BF3CB14FF6FF7020434FF6FF718842DE
:1020C00000D104E04FF407710548FEF794F900BF12
:1020D0000448406D204008B1012010BD0020FCE7FD
:1020E000104F00000010054070B504460D4600BFBB
:1020F0002CB1174820431649884200D103E07121D2
:1021000014A0FEF778F900BF00BF0DB1012D00D17A
:1021100003E072210FA0FEF76EF900BF00BF1C485C
:10212000006900F0010000B103E0732109A0FEF78F
:1021300062F900BF012D05D115480068A04314497C
:10214000086004E01248006820431149086070BD2F
:1021500011C5F38F2E2E2F2E2E2F2E2E2F2E2E2FFB
:102160002E2E2F2E2E2F647269766572732F686360
:1021700033325F6C6C5F6472697665722F73726361
:102180002F686333325F6C6C5F6663672E63000099
:102190000080044070B504460D4600BF2CB11148C4
:1021A00020431049884200D103E084210EA0FEF7AD
:1021B00022F900BF00BF0DB1012D00D103E0852140
:1021C00009A0FEF718F900BF012D05D11548406898
:1021D000A0431449486004E0124840682043114974
:1021E000486070BD79FD0F0F2E2E2F2E2E2F2E2E14
:1021F0002F2E2E2F2E2E2F2E2E2F64726976657283
:10220000732F686333325F6C6C5F647269766572DA
:102210002F7372632F686333325F6C6C5F66636722
:102220002E6300000080044070B504460D4600BFD8
:102230002CB1114820431049884200D103E0962177
:102240000EA0FEF7D8F800BF00BF0DB1012D00D1E0
:1022500003E0972109A0FEF7CEF800BF012D05D1BC
:1022600015488068A0431449886004E012488068DB
:1022700020431149886070BDFF8707002E2E2F2E46
:102280002E2F2E2E2F2E2E2F2E2E2F2E2E2F6472EF
:1022900069766572732F686333325F6C6C5F64724A
:1022A000697665722F7372632F686333325F6C6C6B
:1022B0005F6663672E630000008004402DE9F041F3
:1022C00004460D46904600BF2548008800F00100F6
:1022D00000B104E040F2812122A0FEF78CF800BF9B
:1022E00000BF4CB1012C07D0022C05D0032C03D029
:1022F000042C01D0052C00D104E040F2822119A069
:10230000FEF779F800BF00BF15B1A8B200B104E034
:1023100040F2832113A0FEF76EF800BF002719E0FA
:1023200005F0010088B10E48001D00EB841000EBA1
:102330008706B8F1010F04D1308840F400403080A6
:1023400003E03088C0F30E0030806D1005B903E063
:10235000781CC7B2102FE3D300BFBDE8F0810000A6
:10236000FC3B05402E2E2F2E2E2F2E2E2F2E2E2FC5
:102370002E2E2F2E2E2F647269766572732F68634E
:1023800033325F6C6C5F6472697665722F7372634F
:102390002F686333325F6C6C5F6770696F2E630008
:1023A0002DE9F05F05460E4614464FF0000B14B9B8
:1023B0006FF0020BD9E000BF6D48008800F001000B
:1023C00000B104E04FF480716AA0FEF714F800BF7A
:1023D00000BF4DB1012D07D0022D05D0032D03D034
:1023E000042D01D0052D00D104E040F2011161A0BF
:1023F000FEF701F800BF00BF16B1B0B200B104E0B3
:102400004FF481715BA0FDF7F6FF00BF00BF20888D
:1024100010B12088012800D104E040F2031155A03A
:10242000FDF7E9FF00BF00BF608810B16088022897
:1024300000D104E04FF482714EA0FDF7DCFF00BF35
:1024400000BFA08810B1A088042800D104E040F2A9
:10245000051148A0FDF7CFFF00BF00BFE08828B1FD
:10246000E088102802D0E088202800D104E04FF452
:10247000837140A0FDF7BFFF00BF00BF208918B1E6
:102480002089B0F5804F00D104E040F2071139A057
:10249000FDF7B1FF00BF00BF608910B1608940281F
:1024A00000D104E04FF4847132A0FDF7A4FF00BF17
:1024B00000BFA08918B1A089B0F5007F00D104E069
:1024C00040F209112BA0FDF796FF00BF00BFE08985
:1024D00018B1E089B0F5805F00D104E04FF4857158
:1024E00024A0FDF788FF00BF00BF208A18B1208A12
:1024F000B0F5004F00D104E040F20B111DA0FDF734
:102500007AFF00BF00272DE006F0010028B32088E5
:1025100061880843A1880843E1880843618908432A
:10252000A1890843E1890843218940EA010A45F26B
:102530007728208A40EA0A0A48F400480C48001D1F
:1025400000EB851000EB8709B9F8000020EA0800CD
:102550000AEA08010843A9F80000761006B903E06A
:10256000781CC7B2102FCFD300BF5846BDE8F09FEC
:10257000FC3B05402E2E2F2E2E2F2E2E2F2E2E2FB3
:102580002E2E2F2E2E2F647269766572732F68633C
:1025900033325F6C6C5F6472697665722F7372633D
:1025A0002F686333325F6C6C5F6770696F2E6300F6
:1025B00070B504460D4600BF4CB1012C07D0022C6B
:1025C00005D0032C03D0042C01D0052C00D104E04D
:1025D0004FF4FF710CA0FDF70EFF00BF00BF15B157
:1025E000A8B200B104E040F2FF1107A0FDF703FF1D
:1025F00000BF144901EB0410B0F80008284008B1EE
:10260000012070BD0020FCE72E2E2F2E2E2F2E2E07
:102610002F2E2E2F2E2E2F2E2E2F6472697665725E
:10262000732F686333325F6C6C5F647269766572B6
:102630002F7372632F686333325F6C6C5F677069EE
:102640006F2E6300003005402DE9F04104460D4631
:10265000164600BF4CB1012C07D0022C05D0032C2C
:1026600003D0042C01D0052C00D104E04FF4BE713E
:1026700024A0FDF7C0FE00BF00BF15B1A8B200B195
:1026800004E040F27D111FA0FDF7B5FE00BF00BFC2
:102690000F2E03D9202E02D33B2E00D804E04FF496
:1026A000BF7118A0FDF7A7FE00BF00BF2448008837
:1026B00000F0010000B104E040F27F1111A0FDF72D
:1026C0009AFE00BF002717E005F0010078B11C4812
:1026D000801D00EB841000EB8708B8F800004FF66F
:1026E000C071084006F03F010843A8F800006D10D3
:1026F00005B903E0781CC7B2102FE5D300BFBDE8D1
:10270000F08100002E2E2F2E2E2F2E2E2F2E2E2F2C
:102710002E2E2F2E2E2F647269766572732F6863AA
:1027200033325F6C6C5F6472697665722F737263AB
:102730002F686333325F6C6C5F6770696F2E630064
:10274000FC3B054070B504460D4600BF4CB1012C62
:1027500007D0022C05D0032C03D0042C01D0052C6B
:1027600000D104E04FF40E710BA0FDF744FE00BF52
:1027700000BF15B1A8B200B104E040F2392106A0B3
:10278000FDF739FE00BF1348102101FB0406308815
:102790002843308070BD00002E2E2F2E2E2F2E2E7F
:1027A0002F2E2E2F2E2E2F2E2E2F647269766572CD
:1027B000732F686333325F6C6C5F64726976657225
:1027C0002F7372632F686333325F6C6C5F6770695D
:1027D0006F2E63000838054010B5044600BF44B1B1
:1027E000B4F5804F05D0B4F5004F02D0B4F5404F9A
:1027F00000D104E04FF4ED710EA0FDF7FCFD00BF29
:1028000000BF1B48008800F0010000B104E040F266
:10281000DB1108A0FDF7EFFD00BF1548001F008881
:10282000C0F30D0004F4404108431149091F08801A
:1028300010BD00002E2E2F2E2E2F2E2E2F2E2E2F9F
:102840002E2E2F2E2E2F647269766572732F686379
:1028500033325F6C6C5F6472697665722F7372637A
:102860002F686333325F6C6C5F6770696F2E630033
:10287000FC3B05400146002009B9C01E09E00022CA
:102880000A804A80CA800A820A814A818A81CA8172
:102890008A80704770B5044600260CB9F61E4BE0DE
:1028A00000BF2088B0F5007F00DA03E0CD21234887
:1028B000FDF7A1FD00BF2088400900EB400020216A
:1028C00001EB4000B4F9021088420AD82088400980
:1028D00000EB4000252101EB4000B4F902108842D2
:1028E00006D2B4F90200202802D36FF0020623E0DA
:1028F00060881349042212FB00152868C0F3080001
:1029000040F2FF11884208D120882860B4F90210F3
:102910000C4A606842F821000EE020882968C1F363
:102920000801884206D1B4F90210064A606842F8EC
:10293000210001E06FF00106304670BD104F00002D
:102940005C1005403086FF1F10B5034908688047BA
:10295000BFF34F8F10BD00003086FF1F10B5034935
:1029600048688047BFF34F8F10BD00003086FF1FBF
:1029700010B5034988688047BFF34F8F10BD000032
:102980003086FF1F10B50349C8688047BFF34F8FDB
:1029900010BD00003086FF1F10B50349086980474D
:1029A000BFF34F8F10BD00003086FF1F10B50349E5
:1029B00048698047BFF34F8F10BD00003086FF1F6E
:1029C00010B5034988698047BFF34F8F10BD0000E1
:1029D0003086FF1F10B50349C8698047BFF34F8F8A
:1029E00010BD00003086FF1F10B50349086A8047FC
:1029F000BFF34F8F10BD00003086FF1F10B5034995
:102A0000486A8047BFF34F8F10BD00003086FF1F1C
:102A100010B50349886A8047BFF34F8F10BD00008F
:102A20003086FF1F10B50349C86A8047BFF34F8F38
:102A300010BD00003086FF1F10B50349086B8047AA
:102A4000BFF34F8F10BD00003086FF1F10B5034944
:102A5000486B8047BFF34F8F10BD00003086FF1FCB
:102A600010B50349886B8047BFF34F8F10BD00003E
:102A70003086FF1F10B50349C86B8047BFF34F8FE7
:102A800010BD00003086FF1F10B50349086C804759
:102A9000BFF34F8F10BD00003086FF1F10B50349F4
:102AA000486C8047BFF34F8F10BD00003086FF1F7A
:102AB00010B50349886C8047BFF34F8F10BD0000ED
:102AC0003086FF1F10B50349C86C8047BFF34F8F96
:102AD00010BD00003086FF1F10B50349086D804708
:102AE000BFF34F8F10BD00003086FF1F10B50349A4
:102AF000486D8047BFF34F8F10BD00003086FF1F29
:102B000010B50349886D8047BFF34F8F10BD00009B
:102B10003086FF1F10B50349C86D8047BFF34F8F44
:102B200010BD00003086FF1F10B50349086E8047B6
:102B3000BFF34F8F10BD00003086FF1F10B5034953
:102B4000486E8047BFF34F8F10BD00003086FF1FD7
:102B500010B50349886E8047BFF34F8F10BD00004A
:102B60003086FF1F10B50349C86E8047BFF34F8FF3
:102B700010BD00003086FF1F10B50349086F804765
:102B8000BFF34F8F10BD00003086FF1F10B5034903
:102B9000486F8047BFF34F8F10BD00003086FF1F86
:102BA00010B50349886F8047BFF34F8F10BD0000F9
:102BB0003086FF1F10B50349C86F8047BFF34F8FA2
:102BC00010BD00003086FF1F10B50349D1F880000A
:102BD0008047BFF34F8F10BD3086FF1F10B50349EC
:102BE000D1F884008047BFF34F8F10BD3086FF1FA0
:102BF00010B50349D1F888008047BFF34F8F10BD4F
:102C00003086FF1F10B50349D1F88C008047BFF311
:102C10004F8F10BD3086FF1F10B50349D1F89000CB
:102C20008047BFF34F8F10BD3086FF1F10B503499B
:102C3000D1F894008047BFF34F8F10BD3086FF1F3F
:102C400010B50349D1F898008047BFF34F8F10BDEE
:102C50003086FF1F10B50349D1F89C008047BFF3B1
:102C60004F8F10BD3086FF1F10B50349D1F8A0006B
:102C70008047BFF34F8F10BD3086FF1F10B503494B
:102C8000D1F8A4008047BFF34F8F10BD3086FF1FDF
:102C900010B50349D1F8A8008047BFF34F8F10BD8E
:102CA0003086FF1F10B50349D1F8AC008047BFF351
:102CB0004F8F10BD3086FF1F10B50349D1F8B0000B
:102CC0008047BFF34F8F10BD3086FF1F10B50349FB
:102CD000D1F8B4008047BFF34F8F10BD3086FF1F7F
:102CE00010B50349D1F8B8008047BFF34F8F10BD2E
:102CF0003086FF1F10B50349D1F8BC008047BFF3F1
:102D00004F8F10BD3086FF1F10B50349D1F8C000AA
:102D10008047BFF34F8F10BD3086FF1F10B50349AA
:102D2000D1F8C4008047BFF34F8F10BD3086FF1F1E
:102D300010B50349D1F8C8008047BFF34F8F10BDCD
:102D40003086FF1F10B50349D1F8CC008047BFF390
:102D50004F8F10BD3086FF1F10B50349D1F8D0004A
:102D60008047BFF34F8F10BD3086FF1F10B503495A
:102D7000D1F8D4008047BFF34F8F10BD3086FF1FBE
:102D800010B50349D1F8D8008047BFF34F8F10BD6D
:102D90003086FF1F10B50349D1F8DC008047BFF330
:102DA0004F8F10BD3086FF1F10B50349D1F8E000EA
:102DB0008047BFF34F8F10BD3086FF1F10B503490A
:102DC000D1F8E4008047BFF34F8F10BD3086FF1F5E
:102DD00010B50349D1F8E8008047BFF34F8F10BD0D
:102DE0003086FF1F10B50349D1F8EC008047BFF3D0
:102DF0004F8F10BD3086FF1F10B50349D1F8F0008A
:102E00008047BFF34F8F10BD3086FF1F10B50349B9
:102E1000D1F8F4008047BFF34F8F10BD3086FF1FFD
:102E200010B50349D1F8F8008047BFF34F8F10BDAC
:102E30003086FF1F10B50349D1F8FC008047BFF36F
:102E40004F8F10BD3086FF1F10B50349D1F8000128
:102E50008047BFF34F8F10BD3086FF1F10B5034969
:102E6000D1F804018047BFF34F8F10BD3086FF1F9C
:102E700010B50349D1F808018047BFF34F8F10BD4B
:102E80003086FF1F10B50349D1F80C018047BFF30E
:102E90004F8F10BD3086FF1F10B50349D1F81001C8
:102EA0008047BFF34F8F10BD3086FF1F10B5034919
:102EB000D1F814018047BFF34F8F10BD3086FF1F3C
:102EC00010B50349D1F818018047BFF34F8F10BDEB
:102ED0003086FF1F10B50349D1F81C018047BFF3AE
:102EE0004F8F10BD3086FF1F10B50349D1F8200168
:102EF0008047BFF34F8F10BD3086FF1F10B50349C9
:102F0000D1F824018047BFF34F8F10BD3086FF1FDB
:102F100010B50349D1F828018047BFF34F8F10BD8A
:102F20003086FF1F10B50349D1F82C018047BFF34D
:102F30004F8F10BD3086FF1F10B50349D1F8300107
:102F40008047BFF34F8F10BD3086FF1F10B5034978
:102F5000D1F834018047BFF34F8F10BD3086FF1F7B
:102F600010B50349D1F838018047BFF34F8F10BD2A
:102F70003086FF1F10B50349D1F83C018047BFF3ED
:102F80004F8F10BD3086FF1F10B50349D1F84001A7
:102F90008047BFF34F8F10BD3086FF1F10B5034928
:102FA000D1F844018047BFF34F8F10BD3086FF1F1B
:102FB00010B50349D1F848018047BFF34F8F10BDCA
:102FC0003086FF1F10B50349D1F84C018047BFF38D
:102FD0004F8F10BD3086FF1F10B50349D1F8500147
:102FE0008047BFF34F8F10BD3086FF1F10B50349D8
:102FF000D1F854018047BFF34F8F10BD3086FF1FBB
:1030000010B50349D1F858018047BFF34F8F10BD69
:103010003086FF1F10B50349D1F85C018047BFF32C
:103020004F8F10BD3086FF1F10B50349D1F86001E6
:103030008047BFF34F8F10BD3086FF1F10B5034987
:10304000D1F864018047BFF34F8F10BD3086FF1F5A
:1030500010B50349D1F868018047BFF34F8F10BD09
:103060003086FF1F10B50349D1F86C018047BFF3CC
:103070004F8F10BD3086FF1F10B50349D1F8700186
:103080008047BFF34F8F10BD3086FF1F10B5034937
:10309000D1F874018047BFF34F8F10BD3086FF1FFA
:1030A00010B50349D1F878018047BFF34F8F10BDA9
:1030B0003086FF1F10B50349D1F87C018047BFF36C
:1030C0004F8F10BD3086FF1F10B50349D1F8800126
:1030D0008047BFF34F8F10BD3086FF1F10B50349E7
:1030E000D1F884018047BFF34F8F10BD3086FF1F9A
:1030F00010B50349D1F888018047BFF34F8F10BD49
:103100003086FF1F10B50349D1F88C018047BFF30B
:103110004F8F10BD3086FF1F10B50349D1F89001C5
:103120008047BFF34F8F10BD3086FF1F10B5034996
:10313000D1F894018047BFF34F8F10BD3086FF1F39
:1031400010B50349D1F898018047BFF34F8F10BDE8
:103150003086FF1F10B50349D1F89C018047BFF3AB
:103160004F8F10BD3086FF1F10B50349D1F8A00165
:103170008047BFF34F8F10BD3086FF1F10B5034946
:10318000D1F8A4018047BFF34F8F10BD3086FF1FD9
:1031900010B50349D1F8A8018047BFF34F8F10BD88
:1031A0003086FF1F10B50349D1F8AC018047BFF34B
:1031B0004F8F10BD3086FF1F10B50349D1F8B00105
:1031C0008047BFF34F8F10BD3086FF1F10B50349F6
:1031D000D1F8B4018047BFF34F8F10BD3086FF1F79
:1031E00010B50349D1F8B8018047BFF34F8F10BD28
:1031F0003086FF1F10B50349D1F8BC018047BFF3EB
:103200004F8F10BD3086FF1F10B50349D1F8C001A4
:103210008047BFF34F8F10BD3086FF1F10B50349A5
:10322000D1F8C4018047BFF34F8F10BD3086FF1F18
:1032300010B50349D1F8C8018047BFF34F8F10BDC7
:103240003086FF1F10B50349D1F8CC018047BFF38A
:103250004F8F10BD3086FF1F10B50349D1F8D00144
:103260008047BFF34F8F10BD3086FF1F10B5034955
:10327000D1F8D4018047BFF34F8F10BD3086FF1FB8
:1032800010B50349D1F8D8018047BFF34F8F10BD67
:103290003086FF1F10B50349D1F8DC018047BFF32A
:1032A0004F8F10BD3086FF1F10B50349D1F8E001E4
:1032B0008047BFF34F8F10BD3086FF1F10B5034905
:1032C000D1F8E4018047BFF34F8F10BD3086FF1F58
:1032D00010B50349D1F8E8018047BFF34F8F10BD07
:1032E0003086FF1F10B50349D1F8EC018047BFF3CA
:1032F0004F8F10BD3086FF1F10B50349D1F8F00184
:103300008047BFF34F8F10BD3086FF1F10B50349B4
:10331000D1F8F4018047BFF34F8F10BD3086FF1FF7
:1033200010B50349D1F8F8018047BFF34F8F10BDA6
:103330003086FF1F10B50349D1F8FC018047BFF369
:103340004F8F10BD3086FF1F10B5044604F00100FA
:1033500048B100BF40F223101A49086043F2102020
:10336000086000BF00BF04F0020028B100BF16488B
:103370001649086100BF00BF04F0040030B100BF6F
:103380004AF201501249088000BF00BF04F010004B
:1033900018B14AF2085000F0B3F804F0400018B138
:1033A0004AF2035000F0ACF804F0800040B100BFD6
:1033B00077200849086007490831086000BF00BF4E
:1033C00010BD0000000401400100A5A500800440DC
:1033D000FC3B05400408054010B5044604F001001C
:1033E00028B100BF00201949086000BF00BF04F0E9
:1033F000020028B100BF16481649086100BF00BF8F
:1034000004F0040030B100BF4FF425401249088099
:1034100000BF00BF04F0100018B14AF2085000F0DD
:1034200061F804F0400018B14AF2035000F05AF875
:1034300004F0800040B100BF7620084908600749C9
:103440000831086000BF00BF10BD0000000401404B
:103450000000A5A500800440FC3B05400408054091
:1034600010B500BF0F48008800F00200022800D10C
:1034700004E040F2AD410CA0FCF7BDFF00BF0948DD
:10348000001D007800F0C00040F00F000549091D44
:10349000087010200349113108701E20FDF7F8FE56
:1034A000002010BDFE4305402E2E2F2E2E2F2E2E37
:1034B0002F2E2E2F2E2E2F2E2E2F647269766572B0
:1034C000732F686333325F6C6C5F64726976657208
:1034D0002F7372632F686333325F6C6C5F70776336
:1034E0002E63000004490988814341F42541034AC1
:1034F000A2F8FE1370470000FE430540004005405F
:10350000034909880143034AA2F8FE1370470000EB
:10351000FE4305400040054010B5012007490870F2
:103520004FF4FA700649088000220121054800F096
:10353000D7FF01210448FDF7D3FF10BD1180FF1F05
:103540001280FF1F00D40140003005402DE9F047F4
:1035500004460F4690464FF0000900BF24B144F0E6
:103560000F000F2800D103E0C72126A0FCF743FF7E
:1035700000BF00BF072F00D803E0C82121A0FCF73F
:103580003AFF00BF00BFB8F1070F00D803E0C92120
:103590001CA0FCF730FF00BF00BF29480068772857
:1035A00000D103E0CA2117A0FCF725FF00BF24E0EB
:1035B00004F00100E0B14FEAC960050E281DC6B253
:1035C00007FA06F008FA05F108430721B14007227F
:1035D000AA40114308400721B1400722AA401143E5
:1035E000174A121F12688A4310431549091F0860C1
:1035F000640809F1010000F0FF09002CD8D1BDE8F2
:10360000F08700002E2E2F2E2E2F2E2E2F2E2E2F17
:103610002E2E2F2E2E2F647269766572732F68639B
:1036200033325F6C6C5F6472697665722F7372639C
:103630002F686333325F6C6C5F7372616D2E630051
:10364000040805407FB505460C460026B8480068CA
:103650000390B74840680290B54880680190B4482C
:10366000C068009000BF04F0E060E8B104F0E060E2
:10367000B0F1807F18D004F0E060B0F1007F13D08B
:1036800004F0E060B0F1407F0ED004F0E060B0F1F3
:10369000806F09D004F0E060B0F1A06F04D004F0B6
:1036A000E060B0F1C06F00D104E040F2A121A1A020
:1036B000FCF7A1FE00BF00BF04F07000B8B104F039
:1036C0007000102813D004F0700020280FD004F0F0
:1036D000700030280BD004F07000402807D004F0B0
:1036E0007000502803D004F07000602800D104E07E
:1036F00040F2A2218FA0FCF77EFE00BF00BF04F4C1
:10370000E020E8B104F4E020B0F5803F18D004F4E4
:10371000E020B0F5003F13D004F4E020B0F5403FC6
:103720000ED004F4E020B0F5802F09D004F4E0209E
:10373000B0F5A02F04D004F4E020B0F5C02F00D1E4
:1037400004E040F2A3217BA0FCF755FE00BF00BFC0
:1037500004F4E000E8B104F4E000B0F5801F18D0F4
:1037600004F4E000B0F5001F13D004F4E000B0F55D
:10377000401F0ED004F4E000B0F5800F09D004F42F
:10378000E000B0F5A00F04D004F4E000B0F5C00FE5
:1037900000D104E04FF4297166A0FCF72CFE00BFB5
:1037A00000BF04F00700B8B104F00700012813D0EF
:1037B00004F0070002280FD004F0070003280BD004
:1037C00004F00700042807D004F00700052803D000
:1037D00004F00700062800D104E040F2A52155A01E
:1037E000FCF709FE00BF00BF04F4E060E8B104F498
:1037F000E060B0F5807F18D004F4E060B0F5007FA1
:1038000013D004F4E060B0F5407F0ED004F4E06023
:10381000B0F5806F09D004F4E060B0F5A06F04D07B
:1038200004F4E060B0F5C06F00D104E040F2A621DE
:1038300040A0FCF7E0FD00BF00BF04F4E040E8B1A9
:1038400004F4E040B0F5805F18D004F4E040B0F537
:10385000005F13D004F4E040B0F5405F0ED004F4F4
:10386000E040B0F5804F09D004F4E040B0F5A04F3F
:1038700004D004F4E040B0F5C04F00D104E040F2C1
:10388000A7212CA0FCF7B7FD00BF00BF3848284097
:1038900000B104E04FF42A7126A0FCF7ACFD00BF94
:1038A00000BF3448008800F0010000B104E040F29D
:1038B000A92120A0FCF79FFD00BF2F48007800F051
:1038C0000700052817D1012600BF1948006900F03C
:1038D000010000B104E04FF42C7116A0FCF78BFD41
:1038E00000BF264812490860C01248608860C8605E
:1038F0001E20FDF7CDFC20482638006AA84304EAC4
:10390000050108431C49263908621E20FDF7C0FC4A
:10391000012E0BD10649039808600298486001986F
:1039200088600098C8601E20FDF7B2FC7FBD0000D3
:10393000008004402E2E2F2E2E2F2E2E2F2E2E2F97
:103940002E2E2F2E2E2F647269766572732F686368
:1039500033325F6C6C5F6472697665722F73726369
:103960002F686333325F6C6C5F636C6B2E63000097
:1039700077777707FE43054026400540EEFAFFFFC4
:103980007FB5044600253048006803902E48406803
:1039900002902D48806801902B48C068009000BFBD
:1039A0004CB1012C07D0022C05D0032C03D0042CE1
:1039B00001D0052C00D104E040F2372123A0FCF710
:1039C0001AFD00BF00BF3048008800F0010000B1C0
:1039D00004E04FF40E711DA0FCF70DFD00BF2B4855
:1039E000007800F00700052801D0052C17D101252B
:1039F00000BF1548006900F0010000B104E04FF479
:103A0000107112A0FCF7F7FC00BF21480E490860B6
:103A1000C01248608860C8601E20FDF739FC1B4852
:103A200004701E20FDF734FC012D0BD106490398CC
:103A3000086002984860019888600098C8601E205D
:103A4000FDF726FC7FBD0000008004402E2E2F2EA7
:103A50002E2F2E2E2F2E2E2F2E2E2F2E2E2F647207
:103A600069766572732F686333325F6C6C5F647262
:103A7000697665722F7372632F686333325F6C6C83
:103A80005F636C6B2E630000FE43054026400540DB
:103A9000EEFAFFFF2DE9F34F2DED088B8BB08A4630
:103AA0008A4B0FCB03AC0FC44FF0FF30029000BF26
:103AB0008749139888420BD086491398884207D0CB
:103AC00085491398884203D084491398884200D1CD
:103AD00004E040F2F31182A0FCF78DFC00BFDAF89D
:103AE0000040DAF80470002C7DD0002FFCD0139831
:103AF000406900F4600500BF5DB1B5F5001F08D056
:103B0000B5F5C00F05D0B5F5200F02D0B5F5400FC3
:103B100000D104E040F2F91171A0FCF76CFC00BF89
:103B2000680D03A931F8105007FB05F04000B4FB05
:103B3000F0F0461EFF2E7ED8CAF8086007FB05F09D
:103B40004000B4FBF0F100FB11400790079830B93A
:103B50009FED730A8AED040A002002906BE00220B8
:103B6000A0FB051200204FF0010C16EB0C0C40EBF3
:103B70000003A1FB0C0E02FB0CE201FB032200215F
:103B8000A0FB078302FB073200FB01294FF4807181
:103B90000022A8FB01C309FB013108FB02105208F7
:103BA0004FEA34031CEB0301504122460023CDE9C8
:103BB000001008460199FCF79FFB8021B0EB010B38
:103BC000BBF17F0F37D8CAF80CB049004FF0000C9A
:103BD0004246A2FB010E09FB01E108FB0C198046DD
:103BE0000020802200E06BE01BEB020240EB0003B0
:103BF0000021A2FB040C03FB04C302FB0131CDE94D
:103C0000080140464946FCF7B5FB41EC1A0BDDE9DB
:103C10000801FCF7AFFB53EC1A2BFCF701FCFCF797
:103C2000B5FB00EE100AF7EE000A30EE608A8AED6E
:103C3000048A002002900298B0F1FF3F40D104EBCB
:103C40008400410007FB05F04000B1FBF0F0401D8F
:103C50000A21B0FBF1F0461EFF2E31D8CAF80860E9
:103C60000220A0FB051200204FF0010C16EB0C0CFB
:103C700040411346A1FB0C2E03FB0CE301FB00317A
:103C80000023A2FB078C01FB07C102FB031940467E
:103C90004946FCF76FFB41EC1A0B2046FCF75DFB35
:103CA00053EC1A2BFCF7BCFBFCF770FB00EE100A80
:103CB000F7EE000A30EE608A8AED048A0020029056
:103CC00002980BB0BDEC088BBDE8FC8FA44E000041
:103CD00000D0014000D40140001002400014024016
:103CE0002E2E2F2E2E2F2E2E2F2E2E2F2E2E2F2EEF
:103CF0002E2F647269766572732F686333325F6C3E
:103D00006C5F6472697665722F7372632F686333B8
:103D1000325F6C6C5F75736172742E63000000001B
:103D20000000000070B52B4D2D6805F001051DB198
:103D3000294D2A4E356002E0294D284E3560294D27
:103D40002D7805F00700062840D2DFE800F00308D0
:103D50000C11151A214D2D68234E356037E0234D87
:103D6000214E356033E04FF400451F4E35602EE0A4
:103D70001E4D1D4E35602AE04FF400451A4E356049
:103D800025E0184DDA352D68C5F30822154D263D7E
:103D9000D5F800512B0F134DDA352D6805F01F04AF
:103DA000104D263DD5F8005105F080050DB90F499D
:103DB00001E00A4D2968651CB1FBF5F5561C7543F9
:103DC0005E1CB5FBF6F5084E356000E000BF00BF95
:103DD00070BD0000840601400024F4000480FF1F31
:103DE000002D3101264005400080FF1F00127A009F
:103DF00000B50648006840F4700004490860FFF709
:103E000091FF002001498039086000BD88ED00E085
:103E10002DE9FF41064601210220FEF705FA4FF485
:103E2000A06000903020019000200290019808B915
:103E3000072410E00198102801D105240BE0019817
:103E4000202805D00198302802D00198402801D1BF
:103E5000032400E00224019801090120884085B272
:103E60007019401EB0FBF5F0001B87B2ADF80C7066
:103E70006A460121074800F0C7F8012211460548AB
:103E800000F066F801221146024800F005F8BDE88E
:103E9000FF8100000044024070B504460D461646FE
:103EA00000BF1A48844202D01948844200D104E07D
:103EB00040F2162117A0FCF79EFA00BF00BF0DB11B
:103EC000012D00D104E040F2172112A0FCF793FA73
:103ED00000BF00BF0EB1012E00D104E04FF4067107
:103EE0000CA0FCF788FA00BF012E06D120692A0138
:103EF000B10391400843206106E020692A014FF494
:103F0000804191408843206170BD00000040024024
:103F1000004402402E2E2F2E2E2F2E2E2F2E2E2FEF
:103F20002E2E2F2E2E2F647269766572732F686382
:103F300033325F6C6C5F6472697665722F73726383
:103F40002F686333325F6C6C5F746D72302E630068
:103F500070B504460D46164600BF1A48844202D08A
:103F60001948844200D104E04FF4F27117A0FCF725
:103F700042FA00BF00BF0DB1012D00D104E040F2B4
:103F8000E51112A0FCF737FA00BF00BF0EB1012EF9
:103F900000D104E04FF4F3710CA0FCF72CFA00BF41
:103FA000012E06D120692A01310391400843206186
:103FB00006E020692A014FF4805191408843206136
:103FC00070BD000000400240004402402E2E2F2E03
:103FD0002E2F2E2E2F2E2E2F2E2E2F2E2E2F647282
:103FE00069766572732F686333325F6C6C5F6472DD
:103FF000697665722F7372632F686333325F6C6CFE
:104000005F746D72302E63002DE9F04706460D4651
:1040100014464FF0000914B96FF002097FE000BFA9
:104020004048864202D04048864200D103E0C32186
:104030003EA0FCF7E0F900BF00BF0DB1012D00D19B
:1040400003E0C42139A0FCF7D6F900BF00BF206807
:1040500058B12068B0F5007F07D02068B0F5807FA8
:1040600003D02068B0F5A06F00D103E0C5212FA0D8
:10407000FCF7C1F900BF00BF6068E8B160681028B4
:104080001AD06068202817D06068302814D0606883
:10409000402811D0606850280ED0606860280BD08E
:1040A0006068702808D06068802805D06068902813
:1040B00002D06068A02800D103E0C6211BA0FCF755
:1040C0009AF900BF00BFA06820B148F20201A068C1
:1040D000884200D103E0C72114A0FCF78CF900BF8F
:1040E00006EB85070020386006F1080000EB850824
:1040F000A089C8F8000030692A0148F2F2719140A5
:104100008843D4E900121143A26811432A01914067
:104110002B0148F2F2729A40114008433061484640
:10412000BDE8F08700400240004402402E2E2F2EB2
:104130002E2F2E2E2F2E2E2F2E2E2F2E2E2F647220
:1041400069766572732F686333325F6C6C5F64727B
:10415000697665722F7372632F686333325F6C6C9C
:104160005F746D72302E630010B501224021044847
:1041700000F0B6F901210348FDF7B2F910BD0000C7
:1041800000D40140003405402DE9F34F2DED088B9C
:1041900089B08A4601200290801E019000BF8B49A1
:1041A000119888420BD08A491198884207D08949D2
:1041B0001198884203D088491198884200D104E0C0
:1041C0004FF4A77185A0FCF716F900BFDAF800409C
:1041D000DAF80480002C7CD0B8F1000FFBD01198E5
:1041E000C068C0F3C0394FEAC800C9F102014843B2
:1041F000B4FBF0F0471EFF2F13D8CAF808704FEA3F
:10420000C800C9F102014843B4FBF0F100FB1140C2
:104210000390039830B99FED810A8AED040A0020CB
:1042200001907AE00022D9F1020362EB02004FF024
:10423000080CA3FB0C1E00FB0CE003FB0202002099
:104240004FF0010C17EB0C0C40410B46A3FB0C1E6E
:1042500002FB0CE203FB00200022A1FB083C00FB58
:1042600008C001FB0200CDE90630DDE906210802A5
:1042700040EA12601102CDE90610002040084FEA22
:104280003403DDE906125D1840EB02060020D5F18B
:10429000FF31B04108D22246002328463146FCF7C0
:1042A0002BF8A0F1800B03E0B5FBF4F0A0F1800B3C
:1042B000BBF17F0F2FD8CAF80CB0DDE906560020FD
:1042C00080221BEB020240EB00030021A2FB040C46
:1042D00000E062E003FB04C302FB0131CDE904010D
:1042E00028463146FCF746F841EC1A0BDDE904019B
:1042F000FCF740F853EC1A2BFCF792F8FCF746F861
:1043000000EE100AF7EE000A30EE608A8AED048AA9
:104310000020019001E0002002900298E8BB4FEAE3
:10432000C800C9F10201484304EB84014900B1FB14
:10433000F0F0401D0A21B0FBF1F0471EFF2F3FD8DF
:10434000CAF80870002108460B46D9F1020C60EB50
:10435000030008230022ACFB031E00FB03E00CFB60
:10436000020200204FF0010C17EB0C0C40410B46F1
:10437000A3FB0C1E02FB0CE203FB00220023A1FBAB
:10438000085C02FB08C201FB032628463146FBF706
:10439000F1FF41EC1A0B204600E011E0FBF7DDFFD6
:1043A00053EC1A2BFCF73CF8FBF7F0FF00EE100A79
:1043B000F7EE000A30EE608A8AED048A0020019050
:1043C000019809B0BDEC088BBDE8FC8F00D001401E
:1043D00000D4014000100240001402402E2E2F2E67
:1043E0002E2F2E2E2F2E2E2F2E2E2F2E2E2F64726E
:1043F00069766572732F686333325F6C6C5F6472C9
:10440000697665722F7372632F686333325F6C6CE9
:104410005F75736172742E6300000000000000007D
:1044200070B504460D4600BF1848844208D01848AD
:10443000844205D01748844202D01748844200D1F4
:1044400004E04FF4806115A0FBF7D5FF00BF00BF6B
:104450002DB1224828432149884200D104E040F28E
:1044600001410EA0FBF7C7FF00BF05F00B0028B10C
:10447000E06805F00B0140EA0140E06005F480705F
:1044800018B1E06840F48010E06070BD00D00140D9
:1044900000D4014000100240001402402E2E2F2EA6
:1044A0002E2F2E2E2F2E2E2F2E2E2F2E2E2F6472AD
:1044B00069766572732F686333325F6C6C5F647208
:1044C000697665722F7372632F686333325F6C6C29
:1044D0005F75736172742E6300000000EB010100D0
:1044E0002DE9F04104460D46164600BF1B488442A4
:1044F00008D01B48844205D01A48844202D01A488A
:10450000844200D104E040F2BB3118A0FBF773FFF6
:1045100000BF00BF0EB1012E00D104E04FF46F7157
:1045200012A0FBF768FF00BF00BF25B145F0EF0008
:10453000EF2800D104E040F2BD310CA0FBF75BFF97
:1045400000BFAFB247B1012E03D1E0683843E0604D
:1045500002E0E068B843E060BDE8F08100D00140CF
:1045600000D4014000100240001402402E2E2F2ED5
:104570002E2F2E2E2F2E2E2F2E2E2F2E2E2F6472DC
:1045800069766572732F686333325F6C6C5F647237
:10459000697665722F7372632F686333325F6C6C58
:1045A0005F75736172742E63000000000146044A57
:1045B000126AC2F30213034A126822FA03F0704728
:1045C000004005400080FF1F2DE9F041044600BF78
:1045D0001048844208D01048844205D00F488442D5
:1045E00002D00F48844200D104E040F249210DA0DE
:1045F000FBF701FF00BF2046FFF7D8FF0746A06981
:104600008007410F012000FA01F5B7FBF5F63046AF
:10461000BDE8F08100D0014000D40140001002400C
:10462000001402402E2E2F2E2E2F2E2E2F2E2E2F08
:104630002E2E2F2E2E2F647269766572732F68636B
:1046400033325F6C6C5F6472697665722F7372636C
:104650002F686333325F6C6C5F75736172742E63A5
:104660000000000010B5044600BF0A48844208D08C
:104670000948844205D00948844202D0084884424F
:1046800000D104E040F2725106A0FBF7B4FE00BF77
:10469000E08810BD00D0014000D40140001002406D
:1046A000001402402E2E2F2E2E2F2E2E2F2E2E2F88
:1046B0002E2E2F2E2E2F647269766572732F6863EB
:1046C00033325F6C6C5F6472697665722F737263EC
:1046D0002F686333325F6C6C5F75736172742E6325
:1046E0000000000010B50448FFF7BCFF0B21024892
:1046F000FFF796FE10BD000000D4014010B50F4832
:104700000078012810D001200C49087000210C48C5
:10471000FDF74EF8C0F5FA700A49088000BF012085
:104720000949086000BF00BF0121084800F0B0F847
:104730004FF480710648FFF773FE10BD1180FF1F14
:10474000003005401280FF1F00002142004402405B
:1047500000D401402DE9F04186B004460E461746CC
:1047600000BF06B104E040F2A95134A0FBF743FEBC
:1047700000BF00BF4148844208D04148844205D070
:104780004048844202D04048844200D104E040F2D4
:10479000AA512AA0FBF72FFE00BF00BFE06800F07F
:1047A0000C0000B904E040F2AB5124A0FBF723FE5B
:1047B00000BF2046FFF708FF019002969FED330AE5
:1047C0008DED050AFF200490E06800F08078B8F1D4
:1047D000000F0FD1606900F0200028B901A9204620
:1047E000FFF7D2FC05460AE001A92046FFF752F97F
:1047F000054604E001A92046FCF718FC05469DB9D2
:10480000DDE9031040EA01204FF67F710840A168FE
:104810004FF67F7291430843A0600498FF2803D0AD
:10482000E06840F00050E0601FB19DED050A87EDA3
:10483000000A284606B0BDE8F08100002E2E2F2E7B
:104840002E2F2E2E2F2E2E2F2E2E2F2E2E2F647209
:1048500069766572732F686333325F6C6C5F647264
:10486000697665722F7372632F686333325F6C6C85
:104870005F75736172742E630000000000D0014008
:1048800000D401400010024000140240000000006B
:1048900070B50B461A014FF4407505FA02F14FF45A
:1048A000007505FA02F405698D4304EA01063543F3
:1048B000056140F2013505FA02F14FF4807505FA01
:1048C00002F405698D4304EA01063543056170BDB4
:1048D00010B512480088124909880844C0F309003D
:1048E0000E49088000200F4908700D4908800022F9
:1048F00040210D48FFF7F4FD084800880B4909885E
:10490000884204D072B600F07DF962B604E000225D
:1049100008210548FFF7E4FD10BD00000A80FF1FD5
:104920000C80FF1F0E80FF1F00D401400880FF1F76
:104930002DE9F04705460C4690466FF0020A002C20
:1049400073D000BF6748854208D06748854205D0CC
:104950006648854202D06648854200D104E040F2B4
:104960002D3164A0FBF747FD00BF00BF2068B0F504
:10497000805F01D0206800B904E040F22E315DA0D4
:10498000FBF739FD00BF00BFA068B0F5006F01D094
:10499000A06800B904E040F22F3156A0FBF72BFDD0
:1049A00000BF00BFA069B0F5C06F05D0A069B0F529
:1049B000806F01D0A06900B904E04FF44C714DA0A4
:1049C000FBF719FD00BF00BF206918B12069B0F5E1
:1049D000805F00D104E040F2313146A0FBF70BFDCF
:1049E00000BF00BF606918B16069B0F5005F00D119
:1049F00004E040F232313FA0FBF7FDFC00BF00BFF6
:104A0000E069B0F5004F01D0E06900B904E040F280
:104A1000333138A0FBF7EFFC00BF00BF206AB0F1D4
:104A2000805F01D0206A08B905E058E04FF44D716D
:104A300030A0FBF7E0FC00BF00BF606A18B1606AFD
:104A4000B0F1004F00D104E040F2353129A0FBF76E
:104A5000D2FC00BF00BFA06AB0F5007F03D0A06AFF
:104A6000B0F5807F00D104E040F2363121A0FBF7A1
:104A7000C2FC00BF2169A0690843216A0843E169BB
:104A80000843616A40EA0106A16820680843616939
:104A900040EA0107A06AB0F5007F02D14FF4007030
:104AA00000E000208146EE602F61C5F81490206878
:104AB00098B900BF6068032800D804E04FF4517132
:104AC0000CA0FBF798FC00BF6068A861424628462E
:104AD000E168FFF73FFE824601E04FF0000A5046D2
:104AE000BDE8F08700D0014000D401400010024032
:104AF000001402402E2E2F2E2E2F2E2E2F2E2E2F34
:104B00002E2E2F2E2E2F647269766572732F686396
:104B100033325F6C6C5F6472697665722F73726397
:104B20002F686333325F6C6C5F75736172742E63D0
:104B30000000000001466FF0020089B100220A6007
:104B40004A608A604FF41652CA6000220A614A61C4
:104B50008A61CA610A62C2074A62D20D8A62002073
:104B6000704700002DE9F84F07460C4614B90020A5
:104B7000BDE8F88F4FF0000972B61F48008800901A
:104B80001E4805882946009800F0DAF8064616B94E
:104B900062B60020ECE7B44200DD3446C5F5806023
:104BA0001FFA80FA544501DA204600E0504680465C
:104BB000002005E0395C2A18114B9954411C88B239
:104BC0004045F7DBA4EB08001FFA80FB002006E05D
:104BD00008EB0001795C0A4A1154411C88B258451F
:104BE000F6DB2819C0F3090504480580A14600F04A
:104BF00009F862B64846BBE70A80FF1F0880FF1F1E
:104C00001C80FF1F7CB52148007800B17CBD204886
:104C1000048820480588AC4200D1F7E7A54201DDB1
:104C2000281B01E0C4F5806086B21B480680012085
:104C300016490870012208211848FFF751FC00228C
:104C400011461748FCF744FB164802190021144886
:104C5000FDF708F8324600211148FDF761F80121FF
:104C60000F48FCF73DFC012200210D48FCF730FB0A
:104C700000210B48FCF79CFD80B2019007480068BA
:104C80000090BDF8040000BF00BFBFE70E80FF1F0B
:104C90000A80FF1F0880FF1F0C80FF1F00D4014007
:104CA000003405401C80FF1F002807DB00F01F02B6
:104CB00001219140024A430942F823107047000045
:104CC00080E200E000280DDB00BF00BF00F01F0203
:104CD000012191404209920002F1E022C2F8001144
:104CE00000BF00BF7047000010B5002804DB0A07B2
:104CF000130E054A135406E00A07140E034A00F087
:104D00000F031B1FD45410BD00E400E018ED00E0B9
:104D100002E008C8121F08C1002AFAD1704700201B
:104D200001E001C1121F002AFBD1704700F01EF8FC
:104D300005E000F0ADF84FF47A70FCF789FAF8E777
:104D400070B504460D462946204600F005F840F2AD
:104D5000FF31081A80B270BD0246914201DB881A09
:104D600002E0501AC0F5806080B2704700B58DB087
:104D7000C720FEF7E9FAFBF7B3FCFBF7B5FDFCF73C
:104D800031FC4FF4FA60FFF743F82522042100209C
:104D9000FDF75AFC242208210020FDF755FC0121D3
:104DA0004806FDF7F7F902A8FFF7C4FE03200390B9
:104DB000002004904FF4E13005904FF4004009903A
:104DC000002202A92E48FFF7B3FD20B10120FBF716
:104DD000A7FD00BFFEE70220ADF802004FF48F7080
:104DE000ADF80000274801906846FDF753FDBDF976
:104DF0000200FFF759FFBDF902000F21FFF774FF12
:104E0000BDF90200FFF75EFF0320ADF8020040F29B
:104E10001B10ADF800001C4801906846FDF73AFDF4
:104E2000BDF90200FFF740FFBDF902000F21FFF7B7
:104E30005BFFBDF90200FFF745FF0420ADF802005B
:104E400040F21F10ADF80000104801906846FDF7D1
:104E500021FDBDF90200FFF727FFBDF902000F2178
:104E6000FFF742FFBDF90200FFF72CFFC720FEF756
:104E7000B3FA01222F210248FFF732FB0DB000BD2B
:104E800000D40140D1480000E5460000FD46000086
:104E900010B5052101A0FFF765FE10BD6162630D2D
:104EA0000A000000200040005D008000BA00000100
:104EB000740100020300080003001000030020003A
:104EC000030040000000100000002000000040002F
:104ED00003000010001000000C001D00E907000096
:104EE00003000020002000000D001E003D0800000F
:104EF00003000040004000000E001F009108000069
:104F0000010002000200000001001900C1070000BA
:104F10002E2E2F2E2E2F2E2E2F2E2E2F2E2E2F2EAC
:104F20002E2F647269766572732F686333325F6CFB
:104F30006C5F6472697665722F7372632F68633376
:104F4000325F6C6C5F696E74657272757074732E0B
:104F500063000000744F00000880FF1F1400000071
:104F6000104D0000884F00001C80FF1F1428000017
:104F70001E4D0000000000000000000000000000C6
:084F8000000000000000000029
:040000050000028174
:00000001FF
