:020000040000FA
:1000000010B701204D0300005D4F00006129000082
:10001000554F00006D0D0000C96A0000000000008F
:100020000000000000000000000000009502000039
:10003000B526000000000000E90200008D5A000013
:10004000692900007D29000091290000A5290000F0
:10005000B9290000CD290000E1290000F5290000A0
:10006000092A00001D2A0000312A0000452A00004C
:10007000592A00006D2A0000812A0000952A0000FC
:10008000A92A0000BD2A0000D12A0000E52A0000AC
:10009000F92A00000D2B0000212B0000352B000059
:1000A000492B00005D2B0000712B0000852B000008
:1000B000992B0000AD2B0000C12B0000D52B0000B8
:1000C000E92B0000012C0000192C0000312C00004D
:1000D000492C0000612C0000792C0000912C0000BC
:1000E000A92C0000C12C0000D92C0000F12C00002C
:1000F000092D0000212D0000392D0000512D000098
:10010000692D0000812D0000992D0000B12D000007
:10011000C92D0000E12D0000F92D0000112E000076
:10012000292E0000412E0000592E0000712E0000E3
:10013000892E0000A12E0000B92E0000D12E000053
:10014000E92E0000012F0000192F0000312F0000C0
:10015000492F0000612F0000792F0000912F00002F
:10016000A92F0000C12F0000D92F0000F12F00009F
:10017000093000002130000039300000513000000B
:10018000693000008130000099300000B13000007B
:10019000C9300000E1300000F930000011310000EA
:1001A0002931000041310000593100007131000057
:1001B00089310000A1310000B9310000D1310000C7
:1001C000E931000001320000193200003132000034
:1001D00049320000613200007932000091320000A3
:1001E000A9320000C1320000D9320000F132000013
:1001F000093300002133000039330000513300007F
:10020000693300008133000099330000B1330000EE
:10021000C9330000E1330000F9330000113400005D
:1002200029340000413400005934000071340000CA
:1002300089340000A1340000B9340000D13400003A
:10024000E934000039360000A13A00007D3B00008F
:10025000453E00008F0300008F0300008F03000065
:10026000B53F0000D54200005D4500009947000001
:10027000C1480000D54A0000314D0000454E000045
:10028000DFF80CD000F0D4FA004800472D750000CC
:1002900010B701202A4B19680868B0E8F04F80F3C6
:1002A0000988BFF36F8F4FF0000080F3118870470B
:1002B0000000000006480068006880F3088862B605
:1002C00061B6BFF34F8FBFF36F8F00DF00BF00BF7A
:1002D00008ED00E0DFF80C00016841F470010160F6
:1002E000704700BF88ED00E0EFF30980BFF36F8F28
:1002F000134B1A681EF0100F08BF20ED108A20E97A
:10030000F04F106008B44FF0500080F31188BFF335
:100310004F8FBFF36F8F08F06BF94FF0000080F341
:10032000118808BC19680868B0E8F04F1EF0100F7B
:1003300008BFB0EC108A80F30988BFF36F8F704755
:100340004C80FF1FEFF305807047000010484FF00E
:10035000770101600F484FF0770101600E484FF4BC
:10036000885101600A484FF07601016009484FF05A
:10037000760101600948804709480047FEE7FEE72B
:10038000FEE7FEE7FEE7FEE7FEE7FEE7FEE7FEE745
:10039000040805400C08054000080540AD5B00005E
:1003A000810200002DE9F05F0546002092469B4641
:1003B00088460646814640241BE02846414647467B
:1003C000224600F07EF953465A46C01A914110D396
:1003D00011461846224600F065F92D1A67EB010810
:1003E0004F4622460120002100F05CF917EB00097E
:1003F0004E41201EA4F10104DFDC484631462A4666
:100400004346BDE8F09F40EA01039B0703D009E0A3
:1004100008C9121F08C0042AFAD203E011F8013BF0
:1004200000F8013B521EF9D27047D2B201E000F849
:10043000012B491EFBD270470022F6E710B5134688
:100440000A4604461946FFF7F0FF204610BD10B5D6
:10045000002200E0521C835C8C5CA34201D1002B83
:10046000F8D1D8B2E1B2401A10BD2DE9FE4F804656
:1004700081EA0300C00F0C46009021F0004123F0F8
:100480000045B8EB0200A94105D2404621469046FE
:100490001C460B46024623F00040104347D0270D70
:1004A000C7F30A00C3F30A510290401A0190402892
:1004B0006BDAC3F3130040F4801B0098924620B11E
:1004C0000023D2EB030A63EB0B0B01985946C0F1F2
:1004D0004002504600F0E6F806460D4650465946A2
:1004E000019A00F0FEF810EB08006141002487EA51
:1004F000115284EAE7731A4340D0009A62B3019A1A
:10050000012A4FEA075215DC001B61EB02014FF094
:10051000004202EA0752CDE90042001C41F5801179
:1005200032462B4600F035F903B0BDE8F08F404667
:100530002146F9E7001B61EB0201001C41F5801325
:1005400000185B412018A2F5001747EB030140EAB1
:10055000D570B6196D4111E06D084FEA360645EACF
:10056000C0754FEA0752001B61EB0201001C41F508
:10057000801149084FEA30000019514132462B469C
:1005800003B0BDE8F04F00F0F5B80098012240003C
:100590000023D0EB020263EBE073009821464FEAA0
:1005A000E074B8EB000061EB0401E9E783F000437D
:1005B0005BE781F0004158E700F0004230F0004076
:1005C0000AD0C10D01F56071C0F3160042EA015175
:1005D000C2084007114370470020014670470000E1
:1005E00030B5041E71F1000404DB4FF000444042BA
:1005F00064EB0101141E73F1000405DB1C464FF08F
:100600000043524263EB04038B4208BF824230BD79
:1006100030B5041E71F1000404DB4FF00044404289
:1006200064EB0101141E73F1000405DB1C464FF05E
:100630000043524263EB0403994208BF904230BD2D
:1006400001F0004330B421F0004150EA010206D02D
:100650000A0DA2F56072C1F31301002A02DC30BC5E
:1006600000207047440F44EAC104C100E01830BCC8
:1006700000EBC25000F047B830B50B4601460020F1
:100680002022012409E021FA02F59D4205D303FA54
:1006900002F5491B04FA02F52844151EA2F10102D5
:1006A000F1DC30BD202A04DB203A00FA02F1002000
:1006B00070479140C2F1200320FA03F319439040A0
:1006C0007047202A04DB203A21FA02F0002170470B
:1006D00021FA02F3D040C2F12002914008431946AA
:1006E0007047202A06DBCB17203A41FA02F043EA92
:1006F000E07306E041FA02F3D040C2F120029140DB
:100700000843194670470029A8BF7047401C49009C
:1007100008BF20F00100704710B4B0FA80FC00FA66
:100720000CF050EA010404BF10BC704749B1CCF191
:10073000200421FA04F411FA0CF118BF012121431D
:100740000843A3EB0C01CB1D4FEA00614FEA1020D8
:1007500042BF002010BC704700EBC350104400297A
:10076000A4BF10BC7047401C490008BF20F0010026
:1007700010BC704710B5141E73F1000408DA401C59
:1007800041F1000192185B411A4301D120F00100B0
:1007900010BD2DE9F04D92469B4611B1B1FA81F2A0
:1007A00002E0B0FA80F220329046FFF77BFF044669
:1007B0000F4640EA0A0041EA0B0153465A460843F5
:1007C00013D0114653EA010019D0C8F14002504637
:1007D000FFF777FF05460E46504659464246FFF75B
:1007E00061FF084305D0012004E020463946BDE8FA
:1007F000F08D0020054346EAE0762C4337430A9803
:100800006305E40AA0EB08000022FD0A44EA47540D
:100810000A3002D500200146E9E7010510196941B7
:10082000DDE9084500196941BDE8F04DA2E7000087
:10083000064C074D06E0E06840F0010394E807002D
:1008400098471034AC42F6D3FFF71EFDC892000063
:10085000E89200002DE9F04704460E464FF0040AE6
:10086000002C50D0002E4ED0307901284BDC00BF38
:100870002648844202D02648844200D104E04FF446
:100880001A7124A001F0D0FE00BF2048844216D186
:100890003068C0F31005307940B9A089A9B2084387
:1008A000A081E08940EA1540E08116E0208AA9B2E3
:1008B00008432082608A40EA154060820DE030885B
:1008C000C0F30805307920B9A089A9B20843A081F6
:1008D00003E0208AA9B2084320820027B84604F129
:1008E00020090DE005F0010038B14046411C01F03F
:1008F000FF08B268105C09F807006D08781CC7B2E1
:10090000002DEFD1AA465046BDE8F0870000044014
:10091000000404402E2E5C2E2E5C2E2E5C64726928
:100920007665725C7372635C686333326634367802
:100930005F6164632E6300002DE9F84F04460F46A3
:1009400090461E460420009004F1500B002C35D038
:10095000B8F1000F32D0002E30D000BF19488442C9
:1009600002D01948844200D104E040F2C95117A0D6
:1009700001F05AFE00BF1348844202D1C7F31005AC
:1009800001E0C7F308054FF00009CA4611E005F081
:10099000010048B13BF8190028F81A000AF10100DB
:1009A00000F0FF0A701EC6B26D0809F1010000F0E8
:1009B000FF090DB1002EEAD1002000900098BDE89B
:1009C000F88F000000000440000404402E2E5C2E2E
:1009D0002E5C2E2E5C6472697665725C7372635C49
:1009E00068633332663436785F6164632E63000077
:1009F00070B505460C460426002D78D0002C76D024
:100A000000BF3C48854202D03B48854200D104E00B
:100A10004FF4867139A001F007FE00BF00BF2078B7
:100A2000022804D02078012801D0207800B904E001
:100A300040F20D1131A001F0F7FD00BF00BF60785A
:100A400010B16078012800D104E04FF487712BA029
:100A500001F0EAFD00BF00BFA078012801D0A07816
:100A600000B904E040F20F1124A001F0DDFD00BF49
:100A700000BFE07840B1E078012805D0E078022896
:100A800002D0E078032800D104E04FF488711BA065
:100A900001F0CAFD00BF00BF207910B12079012804
:100AA00000D104E040F2111114A001F0BDFD00BF1F
:100AB000002028702178688861F3051068806178CB
:100AC000688861F3C7106880A178688861F3861030
:100AD0006880E178688861F3010068802179A888DE
:100AE00061F38200A880002085F847000026304688
:100AF00070BD000000000440000404402E2E5C2E57
:100B00002E5C2E2E5C6472697665725C7372635C17
:100B100068633332663436785F6164632E63000045
:100B20002DE9F84F04460E46154698464FF0040A44
:100B30004FF000090027BB4600200090002C5BD03E
:100B4000002E59D0002D57D000BF2D48844202D02E
:100B50002C48844200D104E040F245512AA001F023
:100B600063FD00BF2648844209D1112D02D34FF006
:100B700011090BE0E7893F04A089074306E0092D2E
:100B800002D34FF0090901E01D4887890120207038
:100B9000264800680A21B0FBF1F04FF47A71B0FBEF
:100BA000F1F000FB08FB002000904FF0090A1FE065
:100BB00094F8460000F00100B8B1B9F1000F05D07B
:100BC0004A463146204600F033F805E02B463246CF
:100BD00039462046FFF7B0FE94F8460020F00100A9
:100BE00084F846004FF0000A05E00098401C009091
:100BF00000985845DCD300BF5046BDE8F88F000090
:100C000000000440000404402E2E5C2E2E5C2E2E8C
:100C10005C6472697665725C7372635C68633332BC
:100C2000663436785F6164632E6300000480FF1FC2
:100C300030B5034603F15004002005E034F81050AD
:100C400021F81050451CE8B29042F7DB30BD00009F
:100C50001FB50DA00068009000BF00200190029019
:100C6000039000BF4FF40070019000208DF8080041
:100C7000CDF80CD002220121044800F05DF801A952
:100C80000248FFF7E7FD1FBD3000000000000440F0
:100C900000B587B000BF0020069000BF00BF142140
:100CA00001A8FFF7C9FB00BF01208DF81800002044
:100CB0008DF8190002208DF81A0006A800F0A0FD9A
:100CC000012000F015FD022005903C20049010202A
:100CD000019002900390002000F02AFA01A800F091
:100CE00027FC012000F0CAFB0D2000F0E3F907B05B
:100CF00000BD10B5FFF7CCFF00F004F8FFF7A8FF28
:100D000010BD00001CB500BF00200090019000BF86
:100D10008DF800008DF801008DF802008DF80300B9
:100D20000121084604F068FC69460248FFF760FEAE
:100D30001CBD0000000004407CB506460C4615466C
:100D40000948864200D1A4B200BF00200090019063
:100D500000BF8DF800508DF804006A460221012082
:100D600004F02AF97CBD00000000044010B5AFF388
:100D7000008010BD70B5044600BF3CB1012C05D009
:100D8000022C03D0032C01D0042C00D104E040F24B
:100D900042611EA001F048FC00BF34B1012C0DD00F
:100DA000022C14D0032C24D11AE02148007800F042
:100DB000010080F0010080F0010524E01C4800786B
:100DC000C0F3C00080F0010080F001051BE018486E
:100DD0000078C0F3401080F0010080F0010512E0BF
:100DE00013480078C0F3801080F0010080F0010506
:100DF00009E00F48401D007800F0010080F001007C
:100E000080F0010500BF00BF284670BD2E2E5C2E6D
:100E10002E5C2E2E5C6472697665725C7372635C04
:100E200068633332663436785F636C6B2E63000020
:100E30003C400540F8B5044600200090002600BF65
:100E40000CB1012C00D104E040F24F3120A001F0A0
:100E5000EBFB00BF274800884AF2015108432649AE
:100E6000A1F8FE0394B924482630007800F007006A
:100E7000052801D101261FE01F482A30007820F004
:100E80000100401C1C4981F82A0015E01A482A304C
:100E9000007820F00100184981F82A0000BF0220E4
:100EA000FFF768FF05460098401C00900098B0F5D9
:100EB000805F01D2012DF2D10E4800884FF6FE71FD
:100EC000084040F425400C49A1F8FE033046F8BD27
:100ED0002E2E5C2E2E5C2E2E5C6472697665725C02
:100EE0007372635C68633332663436785F636C6B4D
:100EF0002E630000FE4305400040054070B50446E7
:100F000000250026002C7CD000BF2068022803D3D7
:100F10002068102800D804E040F21D3154A001F0F0
:100F200083FB00BF00BF6068012803D360681028FE
:100F300000D804E040F21E314DA001F075FB00BF67
:100F400000BFA068022803D3A068102800D804E0DE
:100F500040F21F3146A001F067FB00BF00BFE06810
:100F6000142804D3E068B0F5F07F00D804E04FF413
:100F700048713FA001F058FB00BF00BF2069012865
:100F800003D32069182800D804E040F2213138A0AA
:100F900001F04AFB00BF3F480068C0F3C01008B929
:100FA0003D4801E03D4800682169B0FBF1F5E0688B
:100FB00000FB05F600BF3A48854203D33948854215
:100FC00000D804E04FF44A7129A001F02DFB00BFC6
:100FD00000BF3548864203D34000864200D804E073
:100FE00040F2293122A001F01FFB00BF2F480088EA
:100FF0004AF2015108432D4908802078401E2C49AF
:1010000000E034E0D1F8001160F31F712148016065
:101010002079401E2649D1F8001160F31B611D485C
:101020000160207A401E2249D1F8001160F3175167
:1010300018480160A089401E1D49D1F8001160F3D5
:10104000102114480160207C401E1949D1F800117C
:1010500060F304011648C0F80011B0F8FE034FF623
:10106000FE71084040F425401149A1F8FE0370BD0F
:101070002E2E5C2E2E5C2E2E5C6472697665725C60
:101080007372635C68633332663436785F636C6BAB
:101090002E6300000041054000127A000080FF1F0F
:1010A00040420F0000366E01001C4E0EFE4305400C
:1010B0000040054010B5044600BF1CB1082C02DBFF
:1010C0000D2C00DC04E040F245510EA001F0ACFA1A
:1010D00000BF154800884AF2025108431349A1F89D
:1010E000FE030846008A64F3030008820E48008865
:1010F0004FF6FD71084040F425400C49A1F8FE036D
:1011000010BD00002E2E5C2E2E5C2E2E5C647269AB
:101110007665725C7372635C68633332663436780A
:101120005F636C6B2E630000FE430540004005408A
:1011300010B5044600BF0CB1012C00D104E040F210
:10114000FE210FA001F070FA00BF164800884AF295
:10115000015108431449A1F8FE030846D0F80001E4
:1011600064F3C710C1F800010846B0F8FE034FF65B
:10117000FE71084040F425400B49A1F8FE0310BD64
:101180002E2E5C2E2E5C2E2E5C6472697665725C4F
:101190007372635C68633332663436785F636C6B9A
:1011A0002E630000FE4305400040054010B586B0A8
:1011B000044600200590394800680490374840688C
:1011C00003903648806802903448C068019000BFA0
:1011D0001CB1012C02DB052C00DC04E040F2DF3105
:1011E0002FA001F021FA00BF36482C49086136488B
:1011F000007800F00700052801D0052C0ED13348F7
:1012000026490860C01248608860C86000BF059821
:10121000401C05900598B0F5007FF8D32C48008855
:101220004AF20151084328492639A1F8FE0308462D
:1012300090F8260064F3020081F826000846B0F812
:10124000FE034FF6FE71084040F425401E49263942
:10125000A1F8FE030020059000BF0598401C0590F2
:101260000598B0F5007FF8D30C49049808600398FE
:101270004860029888600198C8601248401E086162
:101280000020059000BF0598401C05900598B0F51A
:10129000007FF8D304F014FC06B010BD00800440B9
:1012A0002E2E5C2E2E5C2E2E5C6472697665725C2E
:1012B0007372635C68633332663436785F636C6B79
:1012C0002E6300000100A5A526400540EEFAFFFFB1
:1012D000FE43054010B586B00446002005905948ED
:1012E0000068049057484068039056488068029010
:1012F0005448C0680190544852490861002C7DD080
:1013000000BF2078E178884232DC20786179884219
:101310002EDC2078A17988422ADCA078E178884206
:1013200026DCA0786179884222DC2079A179401AF4
:1013300003281CD02079A179401A022817D02079DF
:10134000A179401A012812D02079A179401A0ED033
:10135000A0792179401A012809D0A0792179401A71
:10136000022804D0A0792179401A032800D104E092
:1013700040F23E4135A001F057F900BF3C480078EB
:1013800000F0070005280ED13A482E490860C01227
:1013900048608860C86000BF0598401C05900598AB
:1013A000B0F5007FF8D3344800884AF20151084371
:1013B00031490880A078E17840EA0110217940EABB
:1013C0000120617940EA0130A17940EA0140617869
:1013D00040EA0150217840EA016040EA0170244966
:1013E00026390862244800884FF6FE71084040F410
:1013F00025401F492639A1F8FE0300E01FE0002028
:10140000059000BF0598401C05900598B0F5007F39
:10141000F8D30C49049808600398486002988860E3
:101420000198C8600848401E08610020059000BF70
:101430000598401C05900598B0F5007FF8D306B0DC
:1014400010BD0000008004400100A5A52E2E5C2EDA
:101450002E5C2E2E5C6472697665725C7372635CBE
:1014600068633332663436785F636C6B2E630000DA
:1014700026400540EEFAFFFFFE43054038B504461E
:101480000020009000BF0CB1012C00D104E04FF40B
:101490006D711CA001F0C8F800BF234800884AF213
:1014A000015108432149A1F8FE03012C01D001207C
:1014B00000E000201D492E31097860F300011B482F
:1014C00080F82E10184800884FF6FE71084040F44E
:1014D00025401649A1F8FE0300BF0320FFF74AFC90
:1014E00005460098401C00900098B0F5805F06D239
:1014F000012C01D1012000E00020A842EDD1002004
:1015000038BD00002E2E5C2E2E5C2E2E5C6472697F
:101510007665725C7372635C686333326634367806
:101520005F636C6B2E630000FE4305400040054086
:1015300070B5044600250026002C7CD000BF206832
:10154000022803D32068102800D804E040F2833139
:1015500056A001F069F800BF00BF6068022803D3FD
:101560006068102800D804E04FF461714FA001F0CA
:101570005BF800BF00BFA068022803D3A068102852
:1015800000D804E040F2853148A001F04DF800BFDA
:1015900000BFE068142804D3E068B0F5F07F00D8FD
:1015A00004E040F2863141A001F03EF800BF00BFE8
:1015B0002069022803D32069182800D804E040F2EB
:1015C00087313AA001F030F800BF41480068C0F30D
:1015D000C01008B93F4801E03F4800682169B0FBEE
:1015E000F1F5E06800FB05F600BF3C48854203D3F7
:1015F0003B48854200D804E040F28E312BA001F038
:1016000013F800BF00BF3748864203D3400086422C
:1016100000D804E040F28F3124A001F005F800BFAB
:10162000314800884AF2015108432F490880207848
:10163000401E2E4900E038E0D1F8041160F31F711C
:101640002348001D01602079401E2849D1F804116B
:1016500060F31B611E48001D0160207A401E234973
:10166000D1F8041160F317511948001D0160A089D9
:10167000401E1E49D1F8041160F310211448001DCA
:101680000160207C401E1949D1F8041160F3040167
:101690001648C0F80411B0F8FE034FF6FE7108407A
:1016A00040F425401149A1F8FE0370BD2E2E5C2E9A
:1016B0002E5C2E2E5C6472697665725C7372635C5C
:1016C00068633332663436785F636C6B2E63000078
:1016D0000041054000127A000080FF1F40420F00C9
:1016E00000366E01001C4E0EFE43054000400540D2
:1016F000F8B5044600200090002600BF0CB1012C74
:1017000000D104E040F2A31131A000F08DFF00BF32
:1017100000BF0CB1012C00D104E040F2A5112CA0B7
:1017200000F082FF00BF334800884AF201510843AD
:101730003149A1F8FE034CBB2F482630007800F059
:101740000700032801D1012636E02C480068C0F3C9
:10175000C01088B928482A30007800F0010008B984
:10176000012629E024483230007820F00100401C96
:10177000214981F832001FE01F483230007820F004
:101780000100401C1C4981F8320015E01A48323033
:10179000007820F00100184981F8320000BF0120D4
:1017A000FFF7E8FA05460098401C00900098B0F555
:1017B000805F01D2012DF2D10E4800884FF6FE71F4
:1017C000084040F425400C49A1F8FE033046F8BD1E
:1017D0002E2E5C2E2E5C2E2E5C6472697665725CF9
:1017E0007372635C68633332663436785F636C6B44
:1017F0002E630000FE4305400040054000410540C7
:1018000058B3164909884AF201521143134A11800C
:10181000027812491231097862F3C7110F4A123265
:10182000117042780D491231097862F386110B4A22
:1018300012321170827809491231097862F3051168
:10184000064A12321170054909884FF6FE7211409E
:1018500041F42541024AA2F8FE137047FE430540B9
:101860000040054000B589B000BF0020029000BFD5
:1018700000BF0090019000BF00BF089000BF00BFF4
:10188000142103A8FEF7D8FD00BF00208DF800004A
:1018900001208DF8010000208DF8020001208DF854
:1018A000030002208DF804008DF8050001208DF85A
:1018B00006006846FFF70EFD00208DF8210002208B
:1018C0008DF8220001208DF8200008A8FFF798FF6E
:1018D0000120FFF70DFF0120079032200690042021
:1018E0000390049005900020FFF722FC03A8FFF767
:1018F00005FB01F02BF8052000F0E4FF00F0D6FF17
:101900000120FFF797FA00BF0220FFF733FA012802
:10191000FAD10520FFF74AFC09B000BD70B50646B4
:101920000C46154600BFA848864202D0A74886420A
:1019300000D104E040F2C461A5A000F075FE00BF34
:1019400000BF2CB1012C03D0022C01D0032C00D1FC
:1019500004E040F2C5619EA000F066FE00BF00BF3B
:10196000287828B12878012802D02878022800D1C8
:1019700004E040F2C66196A000F056FE00BF00BF32
:10198000687828B16878012802D06878022800D1E8
:1019900004E040F2C7618EA000F046FE00BF00BF29
:1019A000A87810B1A878012800D104E04FF4D961DB
:1019B00087A000F039FE00BF00BFE87810B1E878DA
:1019C000012800D104E040F2C96181A000F02CFEA2
:1019D00000BF00BF287910B12879012800D104E0A8
:1019E00040F2CA617AA000F01FFE00BF00BF687914
:1019F00010B16879012800D104E040F2CB6174A0F5
:101A000000F012FE00BF00BFA87928B1A879012814
:101A100002D0A879022800D104E040F2CC616CA089
:101A200000F002FE00BF00BFE87910B1E87901289C
:101A300000D104E040F2CD6165A000F0F5FD00BFEB
:101A400000BF287A10B1287A012800D104E040F2C2
:101A5000CE615FA000F0E8FD00BF00BF687A10B162
:101A6000687A012800D104E040F2CF6158A000F06C
:101A7000DBFD00BF00BF06F15C0000EB84100068D6
:101A800020F003002978084306F15C0101EB841182
:101A9000086000BF00BF06F15C0000EB8410006826
:101AA00020F00C00697840EA810106F15C0000EB4F
:101AB0008410016000BF00BF06F15C0000EB8410E1
:101AC000006820F01000A97840EA011106F15C00DE
:101AD00000EB8410016000BF00BF06F15C0000EB6A
:101AE0008410006820F02000E97840EA411106F1F6
:101AF0005C0000EB8410016000BF00BF06F15C00D9
:101B000000EB8410006820F04000297940EA811140
:101B100006F15C0000EB8410016000BF00BF06F11D
:101B20005C0000EB8410006820F08000697940EAD6
:101B3000C11106F15C0000EB8410016000BF00BF22
:101B400006F15C0000EB8410006820F44070A97975
:101B500040EA012106F15C0000EB8410016000BF47
:101B600000BF06F15C0000EB8410006820F4806088
:101B7000E97940EA812106F15C0000EB8410016004
:101B800000BF00BF06F15C0000EB8410006820F489
:101B90000060297A40EAC12106F15C0000EB841064
:101BA000016000BF00BF06F15C0000EB841000681C
:101BB00020F48050697A40EA013106F15C0000EBC4
:101BC0008410016000BF70BD003005400034054046
:101BD0002E2E5C2E2E5C2E2E5C6472697665725CF5
:101BE0007372635C68633332663436785F646D6148
:101BF000632E63002DE9F04704460D46904600260B
:101C0000B14600BF7548844202D07548844200D175
:101C100004E04FF4287173A000F006FD00BF00BF80
:101C20002DB1012D03D0022D01D0032D00D104E0F0
:101C300040F2A1216BA000F0F7FC00BF00BFB8F19B
:101C4000000F02D0B8F1010F00D104E040F2A22150
:101C500064A000F0E9FC00BF6B480078002872D156
:101C6000012069490870E0690121A94020EA0109C1
:101C7000B9F1000F68D0E06900F00100E0B1DDB11A
:101C8000A06C070CA06E0A21B1EB104F14D3A06E0C
:101C9000B7EB104F10D90AE0701C86B2B6F5A04F12
:101CA00005D90020584908700920BDE8F087E0698F
:101CB00000F001000028EFD1E06900F002000228E6
:101CC00020D1012D1ED0D4F88800070CD4F8A8002C
:101CD0000A21B1EB104F15D3D4F8A800B7EB104F81
:101CE00010D9002609E0701C86B2B6F5A04F04D9C1
:101CF0000020454908700920D7E7E06900F002009C
:101D00000028F0D1E06900F00400042822D1022D5F
:101D100020D00026D4F8C800070CD4F8E8000A2127
:101D2000B1EB104F16D3D4F8E800B7EB104F11D930
:101D30000BE0701C86B2B6F5A04F06D900203249E0
:101D400008700920B1E746E02AE0E06900F00400ED
:101D50000028EED1E06900F00800082820D1032D0A
:101D60001ED00026D4F80801070CD4F828010A2157
:101D7000B1EB104F14D3D4F82801B7EB104F0FD9A3
:101D800009E0701C86B2B6F5A04F04D900201E49A8
:101D90000870092089E7E06900F008000028F0D108
:101DA000B8F1000F0AD0B8F1010F0FD1E06901219D
:101DB000A94001F00F010843E06107E0E06901215B
:101DC000A9400F228A431040E06100BF00BF0020FD
:101DD0000D49087069E7012067E700000030054001
:101DE000003405402E2E5C2E2E5C2E2E5C64726913
:101DF0007665725C7372635C68633332663436781E
:101E00005F646D61632E63002080FF1F2DE9F04148
:101E100005460C461646002700BF2F48854202D0D3
:101E20002E48854200D104E040F267212CA000F04A
:101E3000FBFB00BF00BF2CB1012C03D0022C01D052
:101E4000032C00D104E04FF41A7125A000F0ECFB44
:101E500000BF00BF2EB1012E03D0022E01D0032EF1
:101E600000D104E040F269211DA000F0DDFB00BFBD
:101E70003CB1012C05D0022C03D0032C01D0042747
:101E800026E036B1012E0AD0022E10D0032E1CD12E
:101E900013E068690121A1400843686117E068699F
:101EA00004F1100101228A40104368610FE0A86923
:101EB0000121A1400843A86109E0A86904F11001CB
:101EC00001228A401043A86101E0042700BF00BF3F
:101ED0003846BDE8F0810000003005400034054080
:101EE0002E2E5C2E2E5C2E2E5C6472697665725CE2
:101EF0007372635C68633332663436785F646D6135
:101F0000632E630070B504460D4600BF0E48844240
:101F100002D00E48844200D104E040F29B110CA094
:101F200000F082FB00BF00BF0DB1012D00D104E025
:101F30004FF4CE7106A000F077FB00BF206865F378
:101F40000000206070BD00000030054000340540F6
:101F50002E2E5C2E2E5C2E2E5C6472697665725C71
:101F60007372635C68633332663436785F646D61C4
:101F7000632E630070B505460C46164600BF7348D5
:101F8000854202D07248854200D104E040F20571DA
:101F900070A000F049FB00BF00BF2CB1012C03D0A2
:101FA000022C01D0032C00D104E040F2067169A09C
:101FB00000F03AFB00BF00BF308800F47C4000B95D
:101FC00004E040F2077163A000F02EFB00BF00BFE9
:101FD000B078002000B904E04FF4E1615DA000F0AA
:101FE00023FB00BF00BFF0896FF3090000B904E0D4
:101FF00040F20A7157A000F017FB00BF01212846EC
:10200000FFF780FF05F15C0000EB8410006820F40E
:10201000805105F15C0000EB8410016005F1400087
:1020200000EB84107168016005F1440000EB84103E
:10203000B168016000BF05F1480000EB8410006842
:102040006FF309003188084305F1480101EB841161
:10205000086000BF00BF718805F1480000EB8410E4
:10206000006861F31F4005F1480101EB841108602D
:1020700000BF00BF05F14C0000EB841000686FF357
:102080000900B189084305F14C0101EB8411086096
:1020900000BF00BF05F14C0000EB8410006836491A
:1020A0000840F18940EA014105F14C0000EB841041
:1020B000016000BF00BF05F1500000EB8410006814
:1020C0006FF313007169084305F1500101EB8411AE
:1020D000086000BF00BF318B05F1500000EB841099
:1020E000006861F31F5005F1500101EB8411086095
:1020F00000BF00BF05F1540000EB841000686FF3CF
:102100001300F169084305F1540101EB84110860E3
:1021100000BF00BF318C05F1540000EB8410006853
:1021200061F31F5005F1540101EB8411086000BFF9
:1021300005F1580000EB84103169016006F12402BA
:1021400021462846FFF7EAFB70BD0000003005403D
:10215000003405402E2E5C2E2E5C2E2E5C6472699F
:102160007665725C7372635C6863333266343678AA
:102170005F646D61632E6300FFFF00FC2DE9F04199
:1021800005460C4616460027B84600BF2C48854237
:1021900002D02C48854200D104E040F232412AA00E
:1021A00000F042FA00BF00BF2CB1012C03D0022C7A
:1021B00001D0032C00D104E040F2334122A000F012
:1021C00033FA00BF00BF06F47C4000B904E040F2DF
:1021D00034411DA000F028FA00BF00BF05F14800FF
:1021E00000EB841000686FF30900304305F14801EB
:1021F00001EB8411086000BF16E0781C87B2B7F5C8
:10220000805F02D94FF009080EE000BF05F14800D9
:1022100000EB841000686FF30900304305F14801BA
:1022200001EB8411086000BF05F1680000EB841029
:102230000068C0F30900B042DFD14046BDE8F0813C
:1022400000300540003405402E2E5C2E2E5C2E2ED4
:102250005C6472697665725C7372635C6863333266
:10226000663436785F646D61632E63002DE9F0415A
:1022700005460C4616460027B84600BF1C48854256
:1022800002D01C48854200D104E040F205411AA06A
:1022900000F0CAF900BF00BF2CB1012C03D0022C02
:1022A00001D0032C00D104E040F2064112A000F05E
:1022B000BBF900BF05F1440000EB841006600CE0A0
:1022C000781C87B2B7F5805F02D94FF0090804E0A7
:1022D00005F1440000EB8410066005F1640000EB9A
:1022E00084100068B042EBD14046BDE8F0810000A8
:1022F00000300540003405402E2E5C2E2E5C2E2E24
:102300005C6472697665725C7372635C68633332B5
:10231000663436785F646D61632E63002DE9F041A9
:1023200005460C4616460027B84600BF2D48854294
:1023300002D02D48854200D104E040F2B6412BA0E6
:1023400000F072F900BF00BF2CB1012C03D0022CA9
:1023500001D0032C00D104E040F2B74123A000F0EB
:1023600063F900BF00BFB00A800200B904E04FF477
:1023700097611EA000F058F900BF00BF05F14C00A6
:1023800000EB841000682249084040EA064105F14C
:102390004C0000EB8410016000BF17E0781C87B28E
:1023A000B7F5805F02D94FF009080FE000BF05F1D3
:1023B0004C0000EB841000681549084040EA0641D3
:1023C00005F14C0000EB8410016000BF05F16C00CA
:1023D00000EB84100068C0F30940B042DED14046F3
:1023E000BDE8F08100300540003405402E2E5C2E03
:1023F0002E5C2E2E5C6472697665725C7372635C0F
:1024000068633332663436785F646D61632E6300CF
:10241000FFFF00FC2DE9F04105460C46164600275B
:10242000B84600BF1C48854202D01C48854200D1F6
:1024300004E040F2DA311AA000F0F6F800BF00BF65
:102440002CB1012C03D0022C01D0032C00D104E0CC
:1024500040F2DB3112A000F0E7F800BF05F14000C8
:1024600000EB841006600CE0781C87B2B7F5805F43
:1024700002D94FF0090804E005F1400000EB841098
:10248000066005F1600000EB84100068B042EBD1FB
:102490004046BDE8F08100000030054000340540B2
:1024A0002E2E5C2E2E5C2E2E5C6472697665725C1C
:1024B0007372635C68633332663436785F646D616F
:1024C000632E63002DE9F04105460C4616460027B1
:1024D000B84600BF2B48854202D02B48854200D128
:1024E00004E040F25E4129A000F09EF800BF00BF6A
:1024F0002CB1012C03D0022C01D0032C00D104E01C
:1025000040F25F4121A000F08FF800BF00BF300C07
:10251000000400B904E04FF48C611CA000F084F8C2
:1025200000BF00BF05F1480000EB8410006866F3AF
:102530001F4005F1480101EB8411086000BF15E060
:10254000781C87B2B7F5805F02D94FF009080DE01B
:1025500000BF05F1480000EB8410006866F31F40DF
:1025600005F1480101EB8411086000BF05F1680026
:1025700000EB84100068B6EB104FE1D14046BDE897
:10258000F081000000300540003405402E2E5C2E06
:102590002E5C2E2E5C6472697665725C7372635C6D
:1025A00068633332663436785F646D61632E63002E
:1025B00070B504460D46164600BF0F48844202D04F
:1025C0000E48844200D104E040F23A610CA000F0D1
:1025D0002BF800BF0848844205D1124901EB850061
:1025E000C0F8146807E00548844204D10D4901EBA6
:1025F0008500C0F8246870BD0030054000340540F7
:102600002E2E5C2E2E5C2E2E5C6472697665725CBA
:102610007372635C68633332663436785F646D610D
:10262000632E63000000014004460D462A46214601
:1026300002A004F0BBFA00BFFEE7000057726F6E05
:102640006720706172616D65746572732076616C6C
:1026500075653A2066696C65202573206F6E206C65
:10266000696E652025640D0A0000000008B501228E
:10267000002100910D4909680D4B994210D90B4971
:102680000968B1FBF3F206E0009200BF00994B1E0F
:1026900000930029FAD1011EA0F10100F4D104E059
:1026A00000BF011EA0F10100FBD108BD0480FF1F87
:1026B0008096980010B5AFF3008010BD04494860C3
:1026C00000BF03490968C1F380110029F9D07047A0
:1026D00000D0014000B58FB00121880302F0CAFE8E
:1026E0000121480402F0C6FE01215148FFF70AFC0F
:1026F00000BF302103A8FDF79FFE00BF8020ADF88A
:102700000E000120ADF80C008020ADF81A00012168
:102710008DF83310474804904748059000208DF805
:1027200030008DF831108DF8391000218DF83610F9
:1027300003AA3F48FFF71EFC012200213C48FFF797
:1027400059FA022200213A48FFF760FB01214804B0
:1027500002F090FE40F2171200213548FFF728FFE3
:102760000220ADF80600354802902020ADF80400A4
:1027700001A804F08FFCBDF90600082104F042FA1C
:10278000BDF9060004F022FABDF9060004F02CFAA7
:1027900000BF302103A8FDF74FFE00BF40F2DC5020
:1027A000ADF80E000120ADF80C0000218DF83210BC
:1027B000234804901F48801E059001208DF83000AA
:1027C0008DF8311001218DF8391000218DF8361067
:1027D00003AA01211648FFF7CDFB01221146144838
:1027E000FFF708FA022201211148FFF70FFB4FF40F
:1027F0008C7201210E48FFF7DBFE0320ADF80600C6
:10280000104802902120ADF8040001A804F042FC19
:10281000BDF90600082104F0F5F9BDF9060004F041
:10282000D5F9BDF9060004F0DFF90FB000BD0000D6
:102830000030054006D00140D6A4FF1F4928000003
:1028400056A5FF1F9128000010B5022200210D4857
:10285000FFF7DCFA802200210A48FFF733FE8022CE
:1028600000210848FFF75AFD074A00210548FFF7F5
:10287000FDFC012200210348FFF7BCF900200349B9
:10288000087010BD00300540D6A4FF1F1980FF1F3F
:1028900010B5022201210348FFF7B8FA00200249CF
:1028A000087010BD003005401880FF1F0448006804
:1028B000012804D143F210200149086008607047E4
:1028C0000004014010B5044600BFECB1012C1BD040
:1028D000022C19D0032C17D0042C15D0052C13D0A2
:1028E000062C11D0072C0FD0082C0DD0092C0BD0A2
:1028F0000A2C09D00B2C07D00C2C05D00D2C03D0A2
:102900000E2C01D00F2C00D103E0FB2105A0FFF716
:102910008BFE00BF0C48006864F307100A4908608A
:1029200010BD00002E2E5C2E2E5C2E2E5C64726973
:102930007665725C7372635C6863333266343678D2
:102940005F65666D2E6300000804014040F22310AD
:102950000249086043F210200860704700040140FB
:1029600010B5AFF3008010BD10B50348006810B17A
:1029700001490868804710BD50ABFF1F10B50348E0
:10298000406810B101494868804710BD50ABFF1F37
:1029900010B50348806810B101498868804710BDB0
:1029A00050ABFF1F10B50348C06810B10149C8689B
:1029B000804710BD50ABFF1F10B50348006910B130
:1029C00001490869804710BD50ABFF1F10B503488F
:1029D000406910B101494869804710BD50ABFF1FE5
:1029E00010B50348806910B101498869804710BD5E
:1029F00050ABFF1F10B50348C06910B10149C86949
:102A0000804710BD50ABFF1F10B50348006A10B1DE
:102A10000149086A804710BD50ABFF1F10B503483D
:102A2000406A10B10149486A804710BD50ABFF1F92
:102A300010B50348806A10B10149886A804710BD0B
:102A400050ABFF1F10B50348C06A10B10149C86AF6
:102A5000804710BD50ABFF1F10B50348006B10B18D
:102A60000149086B804710BD50ABFF1F10B50348EC
:102A7000406B10B10149486B804710BD50ABFF1F40
:102A800010B50348806B10B10149886B804710BDB9
:102A900050ABFF1F10B50348C06B10B10149C86BA4
:102AA000804710BD50ABFF1F10B50348006C10B13C
:102AB0000149086C804710BD50ABFF1F10B503489B
:102AC000406C10B10149486C804710BD50ABFF1FEE
:102AD00010B50348806C10B10149886C804710BD67
:102AE00050ABFF1F10B50348C06C10B10149C86C52
:102AF000804710BD50ABFF1F10B50348006D10B1EB
:102B00000149086D804710BD50ABFF1F10B5034849
:102B1000406D10B10149486D804710BD50ABFF1F9B
:102B200010B50348806D10B10149886D804710BD14
:102B300050ABFF1F10B50348C06D10B10149C86DFF
:102B4000804710BD50ABFF1F10B50348006E10B199
:102B50000149086E804710BD50ABFF1F10B50348F8
:102B6000406E10B10149486E804710BD50ABFF1F49
:102B700010B50348806E10B10149886E804710BDC2
:102B800050ABFF1F10B50348C06E10B10149C86EAD
:102B9000804710BD50ABFF1F10B50348006F10B148
:102BA0000149086F804710BD50ABFF1F10B50348A7
:102BB000406F10B10149486F804710BD50ABFF1FF7
:102BC00010B50348806F10B10149886F804710BD70
:102BD00050ABFF1F10B50348C06F10B10149C86F5B
:102BE000804710BD50ABFF1F10B50448D0F88000DF
:102BF00018B10249D1F88000804710BD50ABFF1FCB
:102C000010B50448D0F8840018B10249D1F8840006
:102C1000804710BD50ABFF1F10B50448D0F88800A6
:102C200018B10249D1F88800804710BD50ABFF1F92
:102C300010B50448D0F88C0018B10249D1F88C00C6
:102C4000804710BD50ABFF1F10B50448D0F890006E
:102C500018B10249D1F89000804710BD50ABFF1F5A
:102C600010B50448D0F8940018B10249D1F8940086
:102C7000804710BD50ABFF1F10B50448D0F8980036
:102C800018B10249D1F89800804710BD50ABFF1F22
:102C900010B50448D0F89C0018B10249D1F89C0046
:102CA000804710BD50ABFF1F10B50448D0F8A000FE
:102CB00018B10249D1F8A000804710BD50ABFF1FEA
:102CC00010B50448D0F8A40018B10249D1F8A40006
:102CD000804710BD50ABFF1F10B50448D0F8A800C6
:102CE00018B10249D1F8A800804710BD50ABFF1FB2
:102CF00010B50448D0F8AC0018B10249D1F8AC00C6
:102D0000804710BD50ABFF1F10B50448D0F8B0008D
:102D100018B10249D1F8B000804710BD50ABFF1F79
:102D200010B50448D0F8B40018B10249D1F8B40085
:102D3000804710BD50ABFF1F10B50448D0F8B80055
:102D400018B10249D1F8B800804710BD50ABFF1F41
:102D500010B50448D0F8BC0018B10249D1F8BC0045
:102D6000804710BD50ABFF1F10B50448D0F8C0001D
:102D700018B10249D1F8C000804710BD50ABFF1F09
:102D800010B50448D0F8C40018B10249D1F8C40005
:102D9000804710BD50ABFF1F10B50448D0F8C800E5
:102DA00018B10249D1F8C800804710BD50ABFF1FD1
:102DB00010B50448D0F8CC0018B10249D1F8CC00C5
:102DC000804710BD50ABFF1F10B50448D0F8D000AD
:102DD00018B10249D1F8D000804710BD50ABFF1F99
:102DE00010B50448D0F8D40018B10249D1F8D40085
:102DF000804710BD50ABFF1F10B50448D0F8D80075
:102E000018B10249D1F8D800804710BD50ABFF1F60
:102E100010B50448D0F8DC0018B10249D1F8DC0044
:102E2000804710BD50ABFF1F10B50448D0F8E0003C
:102E300018B10249D1F8E000804710BD50ABFF1F28
:102E400010B50448D0F8E40018B10249D1F8E40004
:102E5000804710BD50ABFF1F10B50448D0F8E80004
:102E600018B10249D1F8E800804710BD50ABFF1FF0
:102E700010B50448D0F8EC0018B10249D1F8EC00C4
:102E8000804710BD50ABFF1F10B50448D0F8F000CC
:102E900018B10249D1F8F000804710BD50ABFF1FB8
:102EA00010B50448D0F8F40018B10249D1F8F40084
:102EB000804710BD50ABFF1F10B50448D0F8F80094
:102EC00018B10249D1F8F800804710BD50ABFF1F80
:102ED00010B50448D0F8FC0018B10249D1F8FC0044
:102EE000804710BD50ABFF1F10B50448D0F800015B
:102EF00018B10249D1F80001804710BD50ABFF1F47
:102F000010B50448D0F8040118B10249D1F8040101
:102F1000804710BD50ABFF1F10B50448D0F8080122
:102F200018B10249D1F80801804710BD50ABFF1F0E
:102F300010B50448D0F80C0118B10249D1F80C01C1
:102F4000804710BD50ABFF1F10B50448D0F81001EA
:102F500018B10249D1F81001804710BD50ABFF1FD6
:102F600010B50448D0F8140118B10249D1F8140181
:102F7000804710BD50ABFF1F10B50448D0F81801B2
:102F800018B10249D1F81801804710BD50ABFF1F9E
:102F900010B50448D0F81C0118B10249D1F81C0141
:102FA000804710BD50ABFF1F10B50448D0F820017A
:102FB00018B10249D1F82001804710BD50ABFF1F66
:102FC00010B50448D0F8240118B10249D1F8240101
:102FD000804710BD50ABFF1F10B50448D0F8280142
:102FE00018B10249D1F82801804710BD50ABFF1F2E
:102FF00010B50448D0F82C0118B10249D1F82C01C1
:10300000804710BD50ABFF1F10B50448D0F8300109
:1030100018B10249D1F83001804710BD50ABFF1FF5
:1030200010B50448D0F8340118B10249D1F8340180
:10303000804710BD50ABFF1F10B50448D0F83801D1
:1030400018B10249D1F83801804710BD50ABFF1FBD
:1030500010B50448D0F83C0118B10249D1F83C0140
:10306000804710BD50ABFF1F10B50448D0F8400199
:1030700018B10249D1F84001804710BD50ABFF1F85
:1030800010B50448D0F8440118B10249D1F8440100
:10309000804710BD50ABFF1F10B50448D0F8480161
:1030A00018B10249D1F84801804710BD50ABFF1F4D
:1030B00010B50448D0F84C0118B10249D1F84C01C0
:1030C000804710BD50ABFF1F10B50448D0F8500129
:1030D00018B10249D1F85001804710BD50ABFF1F15
:1030E00010B50448D0F8540118B10249D1F8540180
:1030F000804710BD50ABFF1F10B50448D0F85801F1
:1031000018B10249D1F85801804710BD50ABFF1FDC
:1031100010B50448D0F85C0118B10249D1F85C013F
:10312000804710BD50ABFF1F10B50448D0F86001B8
:1031300018B10249D1F86001804710BD50ABFF1FA4
:1031400010B50448D0F8640118B10249D1F86401FF
:10315000804710BD50ABFF1F10B50448D0F8680180
:1031600018B10249D1F86801804710BD50ABFF1F6C
:1031700010B50448D0F86C0118B10249D1F86C01BF
:10318000804710BD50ABFF1F10B50448D0F8700148
:1031900018B10249D1F87001804710BD50ABFF1F34
:1031A00010B50448D0F8740118B10249D1F874017F
:1031B000804710BD50ABFF1F10B50448D0F8780110
:1031C00018B10249D1F87801804710BD50ABFF1FFC
:1031D00010B50448D0F87C0118B10249D1F87C013F
:1031E000804710BD50ABFF1F10B50448D0F88001D8
:1031F00018B10249D1F88001804710BD50ABFF1FC4
:1032000010B50448D0F8840118B10249D1F88401FE
:10321000804710BD50ABFF1F10B50448D0F888019F
:1032200018B10249D1F88801804710BD50ABFF1F8B
:1032300010B50448D0F88C0118B10249D1F88C01BE
:10324000804710BD50ABFF1F10B50448D0F8900167
:1032500018B10249D1F89001804710BD50ABFF1F53
:1032600010B50448D0F8940118B10249D1F894017E
:10327000804710BD50ABFF1F10B50448D0F898012F
:1032800018B10249D1F89801804710BD50ABFF1F1B
:1032900010B50448D0F89C0118B10249D1F89C013E
:1032A000804710BD50ABFF1F10B50448D0F8A001F7
:1032B00018B10249D1F8A001804710BD50ABFF1FE3
:1032C00010B50448D0F8A40118B10249D1F8A401FE
:1032D000804710BD50ABFF1F10B50448D0F8A801BF
:1032E00018B10249D1F8A801804710BD50ABFF1FAB
:1032F00010B50448D0F8AC0118B10249D1F8AC01BE
:10330000804710BD50ABFF1F10B50448D0F8B00186
:1033100018B10249D1F8B001804710BD50ABFF1F72
:1033200010B50448D0F8B40118B10249D1F8B4017D
:10333000804710BD50ABFF1F10B50448D0F8B8014E
:1033400018B10249D1F8B801804710BD50ABFF1F3A
:1033500010B50448D0F8BC0118B10249D1F8BC013D
:10336000804710BD50ABFF1F10B50448D0F8C00116
:1033700018B10249D1F8C001804710BD50ABFF1F02
:1033800010B50448D0F8C40118B10249D1F8C401FD
:10339000804710BD50ABFF1F10B50448D0F8C801DE
:1033A00018B10249D1F8C801804710BD50ABFF1FCA
:1033B00010B50448D0F8CC0118B10249D1F8CC01BD
:1033C000804710BD50ABFF1F10B50448D0F8D001A6
:1033D00018B10249D1F8D001804710BD50ABFF1F92
:1033E00010B50448D0F8D40118B10249D1F8D4017D
:1033F000804710BD50ABFF1F10B50448D0F8D8016E
:1034000018B10249D1F8D801804710BD50ABFF1F59
:1034100010B50448D0F8DC0118B10249D1F8DC013C
:10342000804710BD50ABFF1F10B50448D0F8E00135
:1034300018B10249D1F8E001804710BD50ABFF1F21
:1034400010B50448D0F8E40118B10249D1F8E401FC
:10345000804710BD50ABFF1F10B50448D0F8E801FD
:1034600018B10249D1F8E801804710BD50ABFF1FE9
:1034700010B50448D0F8EC0118B10249D1F8EC01BC
:10348000804710BD50ABFF1F10B50448D0F8F001C5
:1034900018B10249D1F8F001804710BD50ABFF1FB1
:1034A00010B50448D0F8F40118B10249D1F8F4017C
:1034B000804710BD50ABFF1F10B50448D0F8F8018D
:1034C00018B10249D1F8F801804710BD50ABFF1F79
:1034D00010B50448D0F8FC0118B10249D1F8FC013C
:1034E000804710BD50ABFF1F10B5514804685148CC
:1034F0000068012804D104F0010008B1AFF3008096
:103500004C48001D0068012804D104F0020008B1F5
:10351000AFF30080474808300068012804D104F068
:10352000040008B1AFF3008042480C300068012865
:1035300004D104F0080008B1AFF300803D4810301A
:103540000068012804D104F0100008B1AFF3008036
:10355000384814300068012804D104F0200008B174
:10356000AFF30080334818300068012804D104F01C
:10357000400008B1AFF300802E481C3000680128DD
:1035800004D104F0800008B1AFF300802948203056
:103590000068012804D104F4807008B1AFF3008002
:1035A000244824300068012804D104F4007008B1D4
:1035B000AFF300801F4828300068012804D104F4CC
:1035C000806008B1AFF300801A482C3000680128F1
:1035D00004D104F4006008B1AFF300801548303026
:1035E0000068012804D104F4805008B1AFF30080D2
:1035F000104834300068012804D104F4005008B1A8
:10360000AFF300800B4838300068012804D104F47F
:10361000804008B1AFF3008006483C3000680128C4
:1036200004D104F4004008B1AFF3008010BD0000E5
:103630005C120540800AA24270B5FE48046800266C
:103640000025FD48006801282BD1FC48006840B9DE
:10365000FB480068012804D104F0010008B1AFF371
:103660000080F6484030006848B9F54840300068AE
:10367000012804D104F4807008B1AFF30080F14850
:10368000406800F00116EF48C1684FF0011020EAD1
:10369000010506EA050020B104F4803008B1AFF35B
:1036A0000080E948006801282DD1E448001D006829
:1036B00048B9E348001D0068012804D104F0020065
:1036C00008B1AFF30080DD484430006848B9DC48F9
:1036D00044300068012804D104F4007008B1AFF34D
:1036E0000080D848406800F00216D648C1684FF004
:1036F000021020EA010506EA050020B104F480303A
:1037000008B1AFF30080D148006801282DD1CB4823
:103710000830006848B9CA4808300068012804D158
:1037200004F0040008B1AFF30080C44848300068DA
:1037300048B9C34848300068012804D104F48060C7
:1037400008B1AFF30080BF48406800F00416BD48E0
:10375000C1684FF0041020EA010506EA050020B117
:1037600004F4803008B1AFF30080B9480068012844
:103770002DD1B2480C30006848B9B1480C3000680F
:10378000012804D104F0080008B1AFF30080AB4871
:103790004C30006848B9AA484C300068012804D170
:1037A00004F4006008B1AFF30080A648406800F060
:1037B0000816A448C1684FF0081020EA010506EA7F
:1037C000050020B104F4803008B1AFF30080A148B7
:1037D000006801282CD1A048006840B99F480068C3
:1037E000012804D104F0100008B1AFF300809A481A
:1037F0004030006848B9994840300068012804D139
:1038000004F4805008B1AFF300809548006800F0E0
:1038100001169348083001684FF0011020EA0105B5
:1038200006EA050020B104F4003008B1AFF30080CF
:103830008C48006801282ED18748001D006848B9CF
:103840008648001D0068012804D104F0200008B15A
:10385000AFF3008080484430006848B9784844306D
:103860000068012804D104F4005008B1AFF30080CF
:103870007B48006800F002167948083001684FF074
:10388000021020EA010506EA050020B104F4003028
:1038900008B1AFF300807448006801282ED16E484B
:1038A0000830006848B96D4808300068012804D124
:1038B00004F0400008B1AFF300806748483000686A
:1038C00048B95F4848300068012804D104F48040BA
:1038D00008B1AFF300806248006800F00416604849
:1038E000083001684FF0041020EA010506EA0500DF
:1038F00020B104F4003008B1AFF300805B480068E9
:1039000001282ED154480C30006848B953480C3077
:103910000068012804D104F0800008B1AFF30080F2
:103920004D484C30006848B945484C300068012883
:1039300004D104F4004008B1AFF3008048480068A7
:1039400000F008164648083001684FF0081020EAD9
:10395000010506EA050020B104F4003008B1AFF318
:10396000008043480068012809D14248006800F0FF
:103970000F0020B104F4802008B1AFF300803C4870
:1039800008300068012809D13948EC38006801285E
:1039900004D104F4002008B1AFF300803448001DC6
:1039A0000068012809D13248F0380068012804D1A4
:1039B00004F4801008B1AFF300804FF01C40C068E1
:1039C000C0F3C01020B104F4800008B1AFF3008050
:1039D00029488669456806EA050000F07F0020B1A5
:1039E00004F4000008B1AFF30080244806682348BF
:1039F0001438056806EA050000F07F0020B104F0E5
:103A0000807008B1AFF300801D4806681C48143868
:103A1000056806EA050000F07F0020B104F00070A0
:103A200008B1AFF3008017480668164814380568D7
:103A30002AE0000060120540B00BA6420002A64238
:103A40000001A64200300540B013A642B01BA642BA
:103A5000B023A642B08BA6420082A6420081A642B5
:103A600004340540B093A642B09BA642B0A3A64240
:103A70000083204210040140002005401824054026
:103A800018280540182C054006EA050000F07F00C4
:103A900020B104F0806008B1AFF3008070BD000079
:103AA00010B52F4804682F48D0F80802012808D123
:103AB0002D480068012804D104F0010008B1AFF3DB
:103AC0000080294838380068012809D1264840304C
:103AD0000068012804D104F0020008B1AFF30080AF
:103AE00022480068012809D1204878300068012860
:103AF00004D104F0040008B1AFF300801B4840304B
:103B00000068012809D11948B8300068012804D19B
:103B100004F0080008B1AFF30080154800680128E0
:103B200009D1134820300068012804D104F40010A2
:103B300008B1AFF300800F48006B012804D104F4F2
:103B4000800008B1AFF300800B48006800F44030FB
:103B500020B104F4000008B1AFF3008010BD0000F4
:103B600064120540000048428002484208824842F0
:103B70000008A842008098420494044070B5AA4806
:103B8000046800260025A9480068012808D1A84833
:103B90000068012804D104F0010008B1AFF30080EF
:103BA000A248001D0068012809D1A148001D006835
:103BB000012804D104F0020008B1AFF300809B4853
:103BC00008300068012809D19948083000680128A8
:103BD00004D104F0040008B1AFF3008093480C3026
:103BE0000068012809D192480C300068012804D1EE
:103BF00004F0080008B1AFF300808C481030006872
:103C0000012809D18A4810300068012804D104F045
:103C1000100008B1AFF30080844814300068012818
:103C200009D1834814300068012804D104F0200031
:103C300008B1AFF300807D4818300068012809D131
:103C40007B4818300068012804D104F0400008B116
:103C5000AFF3008075481C300068012809D1744812
:103C60001C300068012804D104F0800008B1AFF3D3
:103C700000806E4820300068012809D16C4820304F
:103C80000068012804D104F4807008B1AFF300800B
:103C90006848406D00F44030C6096648006F00F483
:103CA000C06506EA050020B104F4006008B1AFF376
:103CB00000806048406D00F44020C6095D48006FF8
:103CC00000F4C05506EA050020B104F4805008B1A4
:103CD000AFF3008058480068012808D157480068B1
:103CE000012804D104F4803008B1AFF300805248B9
:103CF000001D0068012809D15048001D00680128F6
:103D000004D104F4003008B1AFF300804A48083011
:103D10000068012809D1494808300068012804D109
:103D200004F4802008B1AFF3008043480C300068F1
:103D3000012809D141480C300068012804D104F45D
:103D4000002008B1AFF300803B4810300068012824
:103D500009D13A4810300068012804D104F48010D9
:103D600008B1AFF30080344814300068012809D14D
:103D7000324814300068012804D104F4001008B15E
:103D8000AFF300802C4818300068012809D12B4877
:103D900018300068012804D104F4800008B1AFF3A2
:103DA000008025481C300068012809D123481C30B8
:103DB0000068012804D104F4000008B1AFF30080CA
:103DC0001D4820300068012809D11C4820300068B7
:103DD000012804D104F0807008B1AFF300801848C6
:103DE000006800F44030C60915481C30006800F433
:103DF000C06506EA050020B104F0006008B1AFF329
:103E000000800F48006800F44020C6090C481C30B0
:103E1000006800F4C05506EA050020B104F08050A7
:103E200008B1AFF3008070BD68120540800A3042CF
:103E3000000E304200800140808A3042008E3042C5
:103E40005484014070B55748046800260025564840
:103E50000068012808D155480068012804D104F001
:103E6000010008B1AFF300804F48001D0068012831
:103E700009D14E48001D0068012804D104F0020059
:103E800008B1AFF30080484808300068012809D124
:103E9000464808300068012804D104F0040008B145
:103EA000AFF3008040480C300068012809D13F483A
:103EB0000C300068012804D104F0080008B1AFF309
:103EC0000080394810300068012809D13748103087
:103ED0000068012804D104F0100008B1AFF300809D
:103EE000314814300068012809D130481430006886
:103EF000012804D104F0200008B1AFF300802A4863
:103F000018300068012809D12848183000680128B5
:103F100004D104F0400008B1AFF3008022481C3007
:103F20000068012809D121481C300068012804D10B
:103F300004F0800008B1AFF300801B482030006817
:103F4000012809D1194820300068012804D104F45F
:103F5000807008B1AFF300801548006800F440306D
:103F6000C60913481C30006800F4C06506EA050065
:103F700020B104F4006008B1AFF300800C48006881
:103F800000F44020C6090A481C30006800F4C055FF
:103F900006EA050020B104F4805008B1AFF30080B8
:103FA00070BD00006C120540800A3142000E3142A3
:103FB0005488014070B500240026BA480568BA4804
:103FC000D0F8804004F4805038B104F4804020B12F
:103FD00005F0010008B1AFF3008004F4005038B1DF
:103FE00004F4004020B105F0020008B1AFF30080F6
:103FF000AD4890300468AC48D0F89C6004EA0600F4
:10400000C0B220B105F0040008B1AFF30080A748AA
:10401000046804F4805038B104F4804020B105F005
:10402000080008B1AFF3008004F4005038B104F484
:10403000004020B105F0100008B1AFF300809B48AC
:104040001030046899481C30066804EA0600C0B2C3
:1040500020B105F0200008B1AFF300809448046857
:1040600004F4805038B104F4804020B105F04000E1
:1040700008B1AFF3008004F4005038B104F40040FC
:1040800020B105F0800008B1AFF3008088481030FF
:10409000046887481C30066804EA0600C0B220B1F4
:1040A00005F4807008B1AFF300808248046804F41E
:1040B000805038B104F4804020B105F4007008B19C
:1040C000AFF3008004F4005038B104F4004020B194
:1040D00005F4806008B1AFF30080764810300468C2
:1040E00074481C30066804EA0600C0B220B105F42A
:1040F000006008B1AFF300806F48046804F480509A
:1041000038B104F4804020B105F4805008B1AFF319
:10411000008004F4005038B104F4004020B105F4EC
:10412000005008B1AFF30080634810300468624863
:104130008038D0F89C6004EA0600C0B220B105F4D3
:10414000804008B1AFF300805C48046804F48050FC
:1041500038B104F4804020B105F4803008B1AFF3E9
:10416000008004F4005038B104F4004020B105F49C
:10417000003008B1AFF300805048103004684F4859
:104180001C30066804EA0600C0B220B105F48020A5
:1041900008B1AFF300804A480068012810D14948AF
:1041A0008069494900EA01044648406900EA01067D
:1041B00004EA060020B105F4002008B1AFF3008046
:1041C00042480468C66806F0200038B104F00B00CD
:1041D00020B105F4800008B1AFF3008006EA0400C6
:1041E00000F0200020B105F4000008B1AFF300801A
:1041F00006EA040000F0800020B105F0807008B1EC
:10420000AFF3008006EA040000F0400020B105F0A2
:10421000007008B1AFF3008006F0020038B104F47A
:10422000807020B105F0806008B1AFF300802848AD
:10423000046827480C30066806F0200038B104F006
:104240000B0020B105F0006008B1AFF3008006EA72
:10425000040000F0200020B105F0805008B1AFF359
:10426000008006EA040000F0800020B105F0005054
:1042700008B1AFF3008006EA040000F0400020B16E
:1042800005F0804008B1AFF3008006F0020038B1BD
:1042900004F4807020B105F0004008B1AFF3008055
:1042A00070BD00007C120540005001408054014068
:1042B00080580140805C0140806001408064014082
:1042C0000001804300000C40FBFC7CF700D0014063
:1042D00000D4014070B5002400269948056899482B
:1042E0000468C66806F0200038B104F00B0020B165
:1042F00005F0010008B1AFF3008006EA040000F009
:10430000200020B105F0020008B1AFF3008006EAFA
:10431000040000F0800020B105F0040008B1AFF304
:10432000008006EA040000F0400020B105F008001B
:1043300008B1AFF3008006F0020038B104F48070D9
:1043400020B105F0100008B1AFF300807E4804688A
:104350007D480C30066806F0200038B104F00B00F0
:1043600020B105F0200008B1AFF3008006EA040098
:1043700000F0200020B105F0400008B1AFF300804C
:1043800006EA040000F0800020B105F0800008B1CA
:10439000AFF3008006EA040000F0400020B105F40D
:1043A000807008B1AFF3008006F0020038B104F469
:1043B000807020B105F4007008B1AFF3008063484D
:1043C0004468466904F4806038B106F0800020B18A
:1043D00005F4006008B1AFF3008004F4007038B158
:1043E00006F0200020B105F4805008B1AFF3008042
:1043F00004F4006038B106F0020020B905F4005062
:1044000008B1AFF3008004F4807038B106F01D00ED
:1044100020B105F4804008B1AFF300804C48046837
:104420004B481030066804F4806038B106F0800014
:1044300020B105F4803008B1AFF3008004F40070BF
:1044400038B106F0200020B105F4003008B1AFF318
:10445000008004F4006038B106F0020020B905F4D1
:10446000802008B1AFF3008004F4807038B106F00A
:104470001D0020B105F4002008B1AFF300803548DD
:104480004468466904F4806038B106F0800020B1C9
:1044900005F4001008B1AFF3008004F4007038B1E7
:1044A00006F0200020B105F4800008B1AFF30080D1
:1044B00004F4006038B106F0020020B905F40000F1
:1044C00008B1AFF3008004F4807038B106F01D002D
:1044D00020B105F0807008B1AFF300801E48046879
:1044E0001D481030066804F4806038B106F0800082
:1044F00020B105F0806008B1AFF3008004F40070D3
:1045000038B106F0200020B105F0006008B1AFF32B
:10451000008004F4006038B106F0020020B905F014
:10452000805008B1AFF3008004F4807038B106F019
:104530001D0020B105F0005008B1AFF3008070BD40
:1045400080120540001002400014024000C00140EB
:1045500004C40140000002400404024070B500247D
:104560008A4805688A48048B05F0010038B104F0D8
:10457000100020B104F0400008B1AFF3008005F056
:10458000020038B104F0200020B104F0800008B12E
:10459000AFF300807E48848B05F0040038B104F04E
:1045A000100020B104F0400008B1AFF3008005F026
:1045B000080038B104F0200020B104F0800008B1F8
:1045C000AFF300807248048C05F0100038B104F09D
:1045D000100020B104F0400008B1AFF3008005F0F6
:1045E000200038B104F0200020B104F0800008B1B0
:1045F000AFF3008066484830048805F0400038B1C9
:1046000004F4807020B104F4007008B1AFF30080AE
:1046100005F0800038B104F4005020B104F480406B
:1046200008B1AFF300805A48A430048805F48070C4
:1046300040B104F00100C04320B104F0100008B103
:10464000AFF3008005F4007040B104F00200C043F5
:1046500020B104F4807008B1AFF3008005F48060ED
:1046600040B104F00400C04320B104F4805008B10C
:10467000AFF300804748048805F4803038B104F077
:10468000100020B104F0400008B1AFF3008005F441
:10469000003038B104F0200020B104F0800008B1EF
:1046A000AFF300803B48001D048805F4802038B13A
:1046B00004F0100020B104F0400008B1AFF3008016
:1046C00005F4002038B104F0200020B104F080008F
:1046D00008B1AFF300802F480830048805F480103B
:1046E00038B104F0100020B104F0400008B1AFF37D
:1046F000008005F4001038B104F0200020B104F06F
:10470000800008B1AFF3008022483030048805F4FF
:10471000800038B104F4807020B104F4007008B156
:10472000AFF3008005F4000038B104F4005020B16C
:1047300004F4804008B1AFF3008016488C30048840
:1047400005F0807040B104F00100C04320B104F0D6
:10475000100008B1AFF3008005F0007040B104F024
:104760000200C04320B104F4807008B1AFF30080B0
:1047700005F0806040B104F00400C04320B104F4AF
:10478000805008B1AFF3008070BD00008412054076
:10479000007001401848024070B500244648056882
:1047A0004648048805F0010038B104F0100020B13B
:1047B00004F0400008B1AFF3008005F0020038B10A
:1047C00004F0200020B104F0800008B1AFF30080B5
:1047D0003A48001D048805F0040038B104F01000C8
:1047E00020B104F0400008B1AFF3008005F00800EC
:1047F00038B104F0200020B104F0800008B1AFF31C
:1048000000802E480830048805F0100038B104F00C
:10481000100020B104F0400008B1AFF3008005F0B3
:10482000200038B104F0200020B104F0800008B16D
:10483000AFF3008021483030048805F0400038B1E3
:1048400004F4807020B104F4007008B1AFF300806C
:1048500005F0800038B104F4005020B104F4804029
:1048600008B1AFF3008015488C30048805F48070DF
:1048700040B104F00100C04320B104F0100008B1C1
:10488000AFF3008005F4007040B104F00200C043B3
:1048900020B104F4807008B1AFF3008005F48060AB
:1048A00040B104F00400C04320B104F4805008B1CA
:1048B000AFF3008070BD000088120540184C024024
:1048C00070B57A480468002600257948006800F031
:1048D0000F0677480830006800F00F0506EA05006B
:1048E00020B104F0400008B1AFF3008070482030E0
:1048F000006800F00F066E482830006800F00F05D1
:1049000006EA050020B104F0800008B1AFF3008092
:1049100067484030006800F00F066548483000687E
:1049200000F00F0506EA050020B104F4807008B11C
:10493000AFF300805E486030006800F00F065C480E
:104940006830006800F00F0506EA050020B104F4A5
:10495000007008B1AFF3008056484068012809D1C3
:10496000544880300068012804D104F4803008B134
:10497000AFF300804F48C068012809D14D4884300A
:104980000068012804D104F4003008B1AFF30080BE
:1049900048480069012809D14748806800F00300B1
:1049A00020B104F4802008B1AFF300804348406890
:1049B000012809D1414880300068012804D104F45D
:1049C000002008B1AFF300803C48C068012809D13D
:1049D0003A4884300068012804D104F4801008B1FA
:1049E000AFF3008035480069012809D134480068D8
:1049F00000F0030020B104F4001008B1AFF3008010
:104A000030484068012809D12E48803000680128CC
:104A100004D104F4800008B1AFF300802948C068D5
:104A2000012809D1274884300068012804D104F402
:104A3000000008B1AFF3008022480069012809D1C5
:104A40002148806800F0030020B104F0807008B1B4
:104A5000AFF300801D484068012809D11B48803011
:104A60000068012804D104F0007008B1AFF30080A1
:104A70001648C068012809D114488430006801280C
:104A800004D104F0806008B1AFF300800F480069E2
:104A9000012809D10E48006800F0030020B104F09D
:104AA000006008B1AFF3008070BD00008C120540BB
:104AB0000C7C014000003C4200E0014000803C4290
:104AC00008E40140000044420020024000804442CB
:104AD0000824024070B587480468002600258648EF
:104AE000D0F89800012808D184480068012804D132
:104AF00004F0100008B1AFF300807F489C300068DC
:104B0000012809D17D48001D0068012804D104F066
:104B1000200008B1AFF3008077488C30006801288E
:104B200009D176480C380068012804D104F040000F
:104B300008B1AFF3008072484068724900EA01068C
:104B40006F48C06900EA010506EA050020B104F0DB
:104B5000800008B1AFF300806B480068012808D1DD
:104B60006A480068012804D104F4807008B1AFF3EA
:104B700000806548001D0068012809D16348001DB8
:104B80000068012804D104F4007008B1AFF300807C
:104B90005D480C380068012809D15C480C38006871
:104BA000012804D104F4806008B1AFF300805848B4
:104BB0000068544900EA010655481830006800EAC8
:104BC000010506EA050020B104F4006008B1AFF366
:104BD000008050480068012808D14F48006801282B
:104BE00004D104F4805008B1AFF300804948001D9F
:104BF0000068012809D14848001D0068012804D137
:104C000004F4005008B1AFF3008042480C3800684B
:104C1000012809D140480C380068012804D104F467
:104C2000804008B1AFF300803C480068354900EA95
:104C300001063A481830006800EA010506EA050056
:104C400020B104F4004008B1AFF30080344800689C
:104C5000012808D133480068012804D104F4003049
:104C600008B1AFF300802E4810300068012809D148
:104C70002C4810300068012804D104F4802008B1C9
:104C8000AFF3008028480068012809D12648803009
:104C90000068012804D104F4801008B1AFF300804B
:104CA0002148001D0068012809D11F488430006890
:104CB000012804D104F4001008B1AFF300801A48B1
:104CC00008300068012809D1174888300068012899
:104CD00004D104F4800008B1AFF3008013484068A9
:104CE00000F4403020B104F4000008B1AFF30080BC
:104CF00070BD00009012054000009C4298039C4249
:104D000000E004401752F00098809C4298839C4237
:104D100004E4044098009D4298039D4204E8044046
:104D20006082A842241CA842008390420090044064
:104D300070B53C48046800253B480068012809D14B
:104D4000394820380068012804D104F0010008B176
:104D5000AFF300803448001D0068012809D13248B3
:104D60001C380068012804D104F0020008B1AFF338
:104D700000802E4805882E480068012809D12D485A
:104D80000068012800D025B104F0040008B1AFF399
:104D9000008027480068012809D1264800680128BA
:104DA00000D025B104F0080008B1AFF3008022481C
:104DB0000068012809D1204820380068012804D162
:104DC00004F0100008B1AFF300801B48001D00681C
:104DD000012809D118481C380068012804D104F0C2
:104DE000200008B1AFF3008014480068012809D101
:104DF00013480088C0F3080020B104F0400008B157
:104E0000AFF300800D480068012809D10C480088E4
:104E1000C0F3080020B104F0800008B1AFF30080B7
:104E200070BD000094120540E0088042B0000440CC
:104E30002014804240168042E088804220948042C4
:104E4000B00404402DE9F05F0026B346002400259D
:104E50000027A046A146A2463A48006801281AD178
:104E60003948078838480830B0F80080801FB0F80B
:104E7000009035480A30B0F800A007EA080040F278
:104E8000F711084028B909EA0A0040F27F110840EA
:104E900008B1AFF300802B480C300068012815D111
:104EA0002A48078EB0F83880B0F83290B0F83AA0AF
:104EB00007EA080040F2F711084028B909EA0A0099
:104EC00040F27F11084008B1AFF300801D48103058
:104ED0000068012834D11E480678401E90F800B0C2
:104EE000801C04781A481A30057805F0200028BB89
:104EF00006F0010010BB06EA0B0000F0FE00E8B966
:104F000004F0010010B104F00200B8B904F004008C
:104F100010B104F0080088B904F0100010B104F0DA
:104F2000200058B905F0080010B105F0100028B9AC
:104F300005F0400020B105F0800008B1AFF300801B
:104F4000BDE8F09F0853A24230FC06400000074035
:104F5000A504074010B5AFF3008010BD10B500F0F8
:104F600001F810BD10B500BF0648006800B104E0AC
:104F70004FF4A37104A0FDF757FB00BF0148006880
:104F8000804710BD2480FF1F2E2E5C2E2E5C2E2EFF
:104F90005C6472697665725C7372635C68633332F9
:104FA000663436785F6578696E745F6E6D695F73BD
:104FB00077692E63000000002DE9F0470646894618
:104FC0001446002700BF4EB1012E07D0022E05D097
:104FD000032E03D0042E01D0052E00D104E040F2B0
:104FE00013116CA0FDF720FB00BF00BF207828B193
:104FF0002078012802D02078022800D104E040F275
:10500000151164A0FDF710FB00BF00BF607928B147
:105010006079012802D06079022800D104E04FF4C1
:105020008B715CA0FDF700FB00BF00BFA07910B141
:10503000A079012800D104E040F2171155A0FDF736
:10504000F3FA00BF00BF607810B16078012800D18A
:1050500004E04FF48C714FA0FDF7E6FA00BF00BFEB
:10506000A07810B1A078012800D104E040F2191115
:1050700048A0FDF7D9FA00BF00BFE07810B1E07892
:10508000012800D104E04FF48D7142A0FDF7CCFA65
:1050900000BF00BF207910B12079012800D104E0C1
:1050A00040F21B113BA0FDF7BFFA00BF00BFE07943
:1050B00010B1E079012800D104E04FF48E7135A0E1
:1050C000FDF7B2FA00BF00F0CDF900275AE0012049
:1050D000B84000EA090078B3374800EB861000EBCF
:1050E00087053548801C00EB861000EB8708617847
:1050F000288861F38E302880A178288861F30C30ED
:105100002880E178288861F349202880217928883F
:1051100061F386102880A179288861F382002880B5
:105120006179288861F305102880207828B101284A
:105130000CD002281BD113E022E0288820F4004084
:105140002880288820F00200288011E0288820F498
:1051500000402880288820F00200801C288007E07A
:10516000288820F4004000F50040288000E000BFBF
:1051700000BFE179B8F8000061F30820A8F800004A
:10518000781CC7B2102FA2D300F018F80020BDE899
:10519000F08700002E2E5C2E2E5C2E2E5C64726931
:1051A0007665725C7372635C68633332663436783A
:1051B0005F6770696F2E6300003C05404FF4254027
:1051C0000149088070470000FC3B054070B504466B
:1051D0000E4600BF4CB1012C07D0022C05D0032C89
:1051E00003D0042C01D0052C00D104E040F276213C
:1051F00006A0FDF719FA00BF0D48102101FB0405B8
:10520000288830432880002070BD00002E2E5C2EA0
:105210002E5C2E2E5C6472697665725C7372635CC0
:1052200068633332663436785F6770696F2E630067
:105230000A38054070B504460E4600BF4CB1012C3B
:1052400007D0022C05D0032C03D0042C01D0052C50
:1052500000D104E040F25E2106A0FDF7E5F900BFB1
:105260000D48102101FB04052888304328800020C8
:1052700070BD00002E2E5C2E2E5C2E2E5C6472699A
:105280007665725C7372635C686333326634367859
:105290005F6770696F2E6300083805402DE9F0479D
:1052A0000546894614461F464FF0000800BF4DB121
:1052B000012D07D0022D05D0032D03D0042D01D0E0
:1052C000052D00D104E040F2CF215CA0FDF7ACF940
:1052D00000BF00BF002C73D0012C71D070D06FD0F4
:1052E0006ED06DD0022C6BD0032C69D0042C67D00B
:1052F000052C65D0062C63D062D0072C60D05FD01F
:105300005ED0082C5CD0092C5AD00A2C58D057D02B
:105310000E2C55D00F2C53D0202C51D050D0212CF6
:105320004ED04DD0222C4BD04AD0232C48D047D041
:10533000242C45D044D0252C42D041D0262C3FD01F
:105340003ED0272C3CD03BD0282C39D038D0292C2B
:1053500036D035D02A2C33D032D02B2C30D02FD091
:105360002C2C2DD02CD02D2C2AD029D02E2C27D04F
:1053700026D02F2C24D023D0302C21D020D0312C5B
:105380001ED01DD0322C1BD01AD0332C18D017D0E1
:10539000342C15D014D0352C12D011D0362C0FD07F
:1053A0000ED0372C0CD00BD0382C09D008D0392C8B
:1053B00006D005D03A2C03D002D03B2C00D000D12F
:1053C00004E04FF434711DA0FDF72EF900BF00BFBB
:1053D0000FB1012F00D104E040F2D12117A0FDF759
:1053E00023F900BF00F03EF84FF000081DE0012057
:1053F00000FA08F000EA090098B11948402101FBC1
:105400000500042101FB0806308864F305003080A4
:10541000012F01D1012000E00020318860F3082134
:10542000318008F1010000F0FF08B8F1100FDED361
:10543000FFF7C4FE0020BDE8F08700002E2E5C2E92
:105440002E5C2E2E5C6472697665725C7372635C8E
:1054500068633332663436785F6770696F2E630035
:10546000023C05404AF201500149088070470000A3
:10547000FC3B054070B504460D4600BF1448204073
:1054800008B904B104E040F2BD2112A0FDF7CCF848
:1054900000BF00BF0DB1012D00D104E040F2BE21DC
:1054A0000CA0FDF7C1F800BF134814490861012D95
:1054B00004D108460068A043086004E00F48006873
:1054C00020430E4908600C48401E0C49086170BD1D
:1054D000EE3A0C702E2E5C2E2E5C2E2E5C647269C1
:1054E0007665725C7372635C6863333266343678F7
:1054F0005F7077632E6300000100A5A50080044063
:1055000070B504460D4600BF1148204008B904B1EB
:1055100004E040F2F6210FA0FDF786F800BF00BFBF
:105520000DB1012D00D104E040F2F72109A0FDF7F3
:105530007BF800BF012D05D10F484068A0430E49FC
:10554000486004E00C48406820430B49486070BD47
:105550008602F0F02E2E5C2E2E5C2E2E5C6472697C
:105560007665725C7372635C686333326634367876
:105570005F7077632E6300000080044070B50446BE
:105580000D4600BF1148204008B904B104E040F2C4
:1055900027310FA0FDF748F800BF00BF0DB1012D66
:1055A00000D104E04FF44A7109A0FDF73DF800BFB7
:1055B000012D05D10F488068A0430E49886004E0A2
:1055C0000C48806820430B49886070BD0078F8FF64
:1055D0002E2E5C2E2E5C2E2E5C6472697665725CBB
:1055E0007372635C68633332663436785F707763F6
:1055F0002E6300000080044070B504460D4600BFD5
:1056000041F2131024EA000008B904B104E04FF499
:1056100053710EA0FDF708F800BF00BF0DB1012DBA
:1056200000D104E040F24D3108A0FCF7FDFF00BFBF
:10563000012D05D10E48C068A0430D49C86004E0A3
:105640000B48C06820430A49C86070BD2E2E5C2EEE
:105650002E5C2E2E5C6472697665725C7372635C7C
:1056600068633332663436785F7077632E63000088
:10567000008004402DE9F04F2DED028B83B00446ED
:105680008A460026B14600BF9FED410AB0EE408A2F
:1056900000254FF0FF3B042002903E48844208D092
:1056A0003D48844205D03D48844202D03C48844273
:1056B00067D1204601F02EFA0646002E61D0D14671
:1056C00000EE109AB8EE400AF1EE000A60EE200AF1
:1056D00000EE106AB8EE400A80EE201AB7EE000A1B
:1056E00031EE400AB0EE408ABCEEC80A10EE105A05
:1056F000B5EEC08AF1EE10FA43D3FF2D41D8002059
:10570000029000EE105AB8EE400A38EE400ADFED83
:10571000250AB4EEE00AF1EE10FA1EDD6A1C4041E3
:105720000021A2FB097300FB093002FB01084FF4C2
:1057300080610022A7FB010308FB013107FB021176
:1057400032460023CDE90001FAF72CFEB0F1800BC0
:10575000BBF17F0F01D904200290029888B9BBF1F8
:105760007F0F01D8012100E00021E06861F35D7046
:10577000E060A0686BF30600A060A06865F30F20EE
:10578000A060029803B0BDEC028BBDE8F08F000072
:105790000000000000D0014000D401400010024091
:1057A00000140240ACC527372DE9F04F2DED028BD8
:1057B00089B004468B460026B146B2469FED4F0A9B
:1057C000B0EE408A00BF0025681E07904C4B0FCBFF
:1057D00003AF0FC7042002904A48844208D04A48C9
:1057E000844205D04948844202D0494884427FD14E
:1057F000204601F08FF98146B9F1000F78D05E465E
:105800006069C0F3425003A931F810A000EE106A9D
:10581000F8EE400A00EE10AAB8EE400A20EE800A28
:10582000F0EE000A60EE200A00EE109AB8EE401A80
:1058300081EE200AF7EE000A30EE600AB0EE408AF0
:10584000BCEEC80A10EE105AB5EEC08AF1EE10FA9E
:105850004ED3FF2D4CD80020029000EE105AB8EE27
:10586000400A38EE400ADFED2B0AB4EEE00AF1EE12
:1058700010FA27DD6A1C40410023A2FB061C00FB36
:1058800006C002FB03021846A1FB0A7302FB0A32A0
:1058900001FB00284FF400710020A7FB012308FB47
:1058A000013107FB0010CDE900204A460023DDE965
:1058B0000001FAF777FD8038079007987F2801D913
:1058C00004200290029820B907987F2802D801216D
:1058D00001E00DE00021E06861F35D70E060079891
:1058E000A16860F30601A160A06865F30F20A060C5
:1058F000029809B0BDEC028BBDE8F08F00000000FB
:10590000B892000000D0014000D4014000100240D5
:1059100000140240ACC527372DE9F04F2DED028B66
:1059200085B004468B460026B146B2469FED510A2B
:10593000B0EE408A00BF0025681E0390042002904C
:105940004D48844208D04D48844205D04C4884429A
:1059500002D04C48844277D1204601F0DBF88146E2
:10596000B9F1000F7FD05E46E068C0F3C03A00EEA8
:10597000106AB8EE400AF2EE000A60EE200A00EE6D
:1059800010AAB8EE400AB0EE001A31EE400A60EEFE
:10599000800A00EE109AB8EE401A81EE200AF7EE67
:1059A000000A30EE600AB0EE408ABCEEC80A10EE83
:1059B000105AB5EEC08AF1EE10FA54D3FF2D52D82A
:1059C0000020029000EE105AB8EE400A38EE400A6D
:1059D000DFED2D0AB4EEE00AF1EE10FA2DDD002124
:1059E000DAF1020261EB01004FF0010C15EB0C0C37
:1059F00041EB0103A2FB0C1E00FB0CE002FB0302C7
:105A00000020A1FB067302FB063201FB00284FF4C5
:105A100000610022A7FB010308FB013107FB021113
:105A20004A460023CDE90001FAF7BCFC8038039018
:105A300003987F2801D904200290029820B9039886
:105A40007F2802D8012101E00DE00021E06861F328
:105A50005D70E0600398A16860F30601A160A06832
:105A600065F30F20A060029805B0BDEC028BBDE885
:105A7000F08F00000000000000D0014000D4014081
:105A80000010024000140240ACC5273710B500BF1B
:105A9000502080F31188BFF34F8FBFF36F8F00BF8B
:105AA00003F0C0F918B14FF080500449086000BFFE
:105AB000002080F3118800BF10BD000004ED00E05D
:105AC00070B500241320012100220023304D2D68E1
:105AD00005F001051DB12F4D2F4E356002E02F4D11
